{
	"contracts/Crowdfunding.sol": {
		"Crowdfunding": {
			"abi": [
				{
					"inputs": [
						{
							"internalType": "string",
							"name": "_name",
							"type": "string"
						},
						{
							"internalType": "string",
							"name": "_description",
							"type": "string"
						},
						{
							"internalType": "uint256",
							"name": "_goal",
							"type": "uint256"
						},
						{
							"internalType": "uint256",
							"name": "_durationInDays",
							"type": "uint256"
						}
					],
					"stateMutability": "nonpayable",
					"type": "constructor"
				},
				{
					"inputs": [
						{
							"internalType": "string",
							"name": "_name",
							"type": "string"
						},
						{
							"internalType": "uint256",
							"name": "_amount",
							"type": "uint256"
						}
					],
					"name": "addTier",
					"outputs": [],
					"stateMutability": "nonpayable",
					"type": "function"
				},
				{
					"inputs": [
						{
							"internalType": "address",
							"name": "",
							"type": "address"
						}
					],
					"name": "backers",
					"outputs": [
						{
							"internalType": "uint256",
							"name": "totalContribution",
							"type": "uint256"
						}
					],
					"stateMutability": "view",
					"type": "function"
				},
				{
					"inputs": [],
					"name": "deadline",
					"outputs": [
						{
							"internalType": "uint256",
							"name": "",
							"type": "uint256"
						}
					],
					"stateMutability": "view",
					"type": "function"
				},
				{
					"inputs": [],
					"name": "description",
					"outputs": [
						{
							"internalType": "string",
							"name": "",
							"type": "string"
						}
					],
					"stateMutability": "view",
					"type": "function"
				},
				{
					"inputs": [
						{
							"internalType": "uint256",
							"name": "_daysToAdd",
							"type": "uint256"
						}
					],
					"name": "extendDeadline",
					"outputs": [],
					"stateMutability": "nonpayable",
					"type": "function"
				},
				{
					"inputs": [
						{
							"internalType": "uint256",
							"name": "_tierIndex",
							"type": "uint256"
						}
					],
					"name": "fund",
					"outputs": [],
					"stateMutability": "payable",
					"type": "function"
				},
				{
					"inputs": [],
					"name": "getCampaignStatus",
					"outputs": [
						{
							"internalType": "enum Crowdfunding.CampaignState",
							"name": "",
							"type": "uint8"
						}
					],
					"stateMutability": "view",
					"type": "function"
				},
				{
					"inputs": [],
					"name": "getContractBalance",
					"outputs": [
						{
							"internalType": "uint256",
							"name": "",
							"type": "uint256"
						}
					],
					"stateMutability": "view",
					"type": "function"
				},
				{
					"inputs": [],
					"name": "getTiers",
					"outputs": [
						{
							"components": [
								{
									"internalType": "string",
									"name": "name",
									"type": "string"
								},
								{
									"internalType": "uint256",
									"name": "amount",
									"type": "uint256"
								},
								{
									"internalType": "uint256",
									"name": "backers",
									"type": "uint256"
								}
							],
							"internalType": "struct Crowdfunding.Tier[]",
							"name": "",
							"type": "tuple[]"
						}
					],
					"stateMutability": "view",
					"type": "function"
				},
				{
					"inputs": [],
					"name": "goal",
					"outputs": [
						{
							"internalType": "uint256",
							"name": "",
							"type": "uint256"
						}
					],
					"stateMutability": "view",
					"type": "function"
				},
				{
					"inputs": [
						{
							"internalType": "address",
							"name": "_backer",
							"type": "address"
						},
						{
							"internalType": "uint256",
							"name": "_tierIndex",
							"type": "uint256"
						}
					],
					"name": "hasFundedTier",
					"outputs": [
						{
							"internalType": "bool",
							"name": "",
							"type": "bool"
						}
					],
					"stateMutability": "view",
					"type": "function"
				},
				{
					"inputs": [],
					"name": "name",
					"outputs": [
						{
							"internalType": "string",
							"name": "",
							"type": "string"
						}
					],
					"stateMutability": "view",
					"type": "function"
				},
				{
					"inputs": [],
					"name": "owner",
					"outputs": [
						{
							"internalType": "address",
							"name": "",
							"type": "address"
						}
					],
					"stateMutability": "view",
					"type": "function"
				},
				{
					"inputs": [],
					"name": "paused",
					"outputs": [
						{
							"internalType": "bool",
							"name": "",
							"type": "bool"
						}
					],
					"stateMutability": "view",
					"type": "function"
				},
				{
					"inputs": [],
					"name": "refund",
					"outputs": [],
					"stateMutability": "nonpayable",
					"type": "function"
				},
				{
					"inputs": [
						{
							"internalType": "uint256",
							"name": "_index",
							"type": "uint256"
						}
					],
					"name": "removeTier",
					"outputs": [],
					"stateMutability": "nonpayable",
					"type": "function"
				},
				{
					"inputs": [],
					"name": "state",
					"outputs": [
						{
							"internalType": "enum Crowdfunding.CampaignState",
							"name": "",
							"type": "uint8"
						}
					],
					"stateMutability": "view",
					"type": "function"
				},
				{
					"inputs": [
						{
							"internalType": "uint256",
							"name": "",
							"type": "uint256"
						}
					],
					"name": "tiers",
					"outputs": [
						{
							"internalType": "string",
							"name": "name",
							"type": "string"
						},
						{
							"internalType": "uint256",
							"name": "amount",
							"type": "uint256"
						},
						{
							"internalType": "uint256",
							"name": "backers",
							"type": "uint256"
						}
					],
					"stateMutability": "view",
					"type": "function"
				},
				{
					"inputs": [],
					"name": "togglePause",
					"outputs": [],
					"stateMutability": "nonpayable",
					"type": "function"
				},
				{
					"inputs": [],
					"name": "withdraw",
					"outputs": [],
					"stateMutability": "nonpayable",
					"type": "function"
				}
			],
			"devdoc": {
				"kind": "dev",
				"methods": {},
				"version": 1
			},
			"evm": {
				"assembly": "    /* \"contracts/Crowdfunding.sol\":57:4461  contract Crowdfunding {... */\n  mstore(0x40, 0x80)\n    /* \"contracts/Crowdfunding.sol\":1053:1395  constructor (... */\n  callvalue\n  dup1\n  iszero\n  tag_1\n  jumpi\n  0x00\n  dup1\n  revert\ntag_1:\n  pop\n  mload(0x40)\n  sub(codesize, bytecodeSize)\n  dup1\n  bytecodeSize\n  dup4\n  codecopy\n  dup2\n  dup2\n  add\n  0x40\n  mstore\n  dup2\n  add\n  swap1\n  tag_2\n  swap2\n  swap1\n  tag_3\n  jump\t// in\ntag_2:\n    /* \"contracts/Crowdfunding.sol\":1194:1199  _name */\n  dup4\n    /* \"contracts/Crowdfunding.sol\":1187:1191  name */\n  0x00\n    /* \"contracts/Crowdfunding.sol\":1187:1199  name = _name */\n  swap1\n  dup2\n  tag_6\n  swap2\n  swap1\n  tag_7\n  jump\t// in\ntag_6:\n  pop\n    /* \"contracts/Crowdfunding.sol\":1223:1235  _description */\n  dup3\n    /* \"contracts/Crowdfunding.sol\":1209:1220  description */\n  0x01\n    /* \"contracts/Crowdfunding.sol\":1209:1235  description = _description */\n  swap1\n  dup2\n  tag_8\n  swap2\n  swap1\n  tag_7\n  jump\t// in\ntag_8:\n  pop\n    /* \"contracts/Crowdfunding.sol\":1252:1257  _goal */\n  dup2\n    /* \"contracts/Crowdfunding.sol\":1245:1249  goal */\n  0x02\n    /* \"contracts/Crowdfunding.sol\":1245:1257  goal = _goal */\n  dup2\n  swap1\n  sstore\n  pop\n    /* \"contracts/Crowdfunding.sol\":1315:1321  1 days */\n  0x015180\n    /* \"contracts/Crowdfunding.sol\":1297:1312  _durationInDays */\n  dup2\n    /* \"contracts/Crowdfunding.sol\":1297:1321  _durationInDays * 1 days */\n  tag_9\n  swap2\n  swap1\n  tag_10\n  jump\t// in\ntag_9:\n    /* \"contracts/Crowdfunding.sol\":1278:1293  block.timestamp */\n  timestamp\n    /* \"contracts/Crowdfunding.sol\":1278:1322  block.timestamp + (_durationInDays * 1 days) */\n  tag_11\n  swap2\n  swap1\n  tag_12\n  jump\t// in\ntag_11:\n    /* \"contracts/Crowdfunding.sol\":1267:1275  deadline */\n  0x03\n    /* \"contracts/Crowdfunding.sol\":1267:1322  deadline = block.timestamp + (_durationInDays * 1 days) */\n  dup2\n  swap1\n  sstore\n  pop\n    /* \"contracts/Crowdfunding.sol\":1340:1350  msg.sender */\n  caller\n    /* \"contracts/Crowdfunding.sol\":1332:1337  owner */\n  0x04\n  0x00\n    /* \"contracts/Crowdfunding.sol\":1332:1350  owner = msg.sender */\n  0x0100\n  exp\n  dup2\n  sload\n  dup2\n  0xffffffffffffffffffffffffffffffffffffffff\n  mul\n  not\n  and\n  swap1\n  dup4\n  0xffffffffffffffffffffffffffffffffffffffff\n  and\n  mul\n  or\n  swap1\n  sstore\n  pop\n    /* \"contracts/Crowdfunding.sol\":1368:1388  CampaignState.Active */\n  0x00\n    /* \"contracts/Crowdfunding.sol\":1360:1365  state */\n  0x04\n  0x15\n    /* \"contracts/Crowdfunding.sol\":1360:1388  state = CampaignState.Active */\n  0x0100\n  exp\n  dup2\n  sload\n  dup2\n  0xff\n  mul\n  not\n  and\n  swap1\n  dup4\n  0x02\n  dup2\n  gt\n  iszero\n  tag_13\n  jumpi\n  tag_14\n  tag_15\n  jump\t// in\ntag_14:\ntag_13:\n  mul\n  or\n  swap1\n  sstore\n  pop\n    /* \"contracts/Crowdfunding.sol\":1053:1395  constructor (... */\n  pop\n  pop\n  pop\n  pop\n    /* \"contracts/Crowdfunding.sol\":57:4461  contract Crowdfunding {... */\n  jump(tag_16)\n    /* \"#utility.yul\":7:82   */\ntag_17:\n    /* \"#utility.yul\":40:46   */\n  0x00\n    /* \"#utility.yul\":73:75   */\n  0x40\n    /* \"#utility.yul\":67:76   */\n  mload\n    /* \"#utility.yul\":57:76   */\n  swap1\n  pop\n    /* \"#utility.yul\":7:82   */\n  swap1\n  jump\t// out\n    /* \"#utility.yul\":88:205   */\ntag_18:\n    /* \"#utility.yul\":197:198   */\n  0x00\n    /* \"#utility.yul\":194:195   */\n  dup1\n    /* \"#utility.yul\":187:199   */\n  revert\n    /* \"#utility.yul\":211:328   */\ntag_19:\n    /* \"#utility.yul\":320:321   */\n  0x00\n    /* \"#utility.yul\":317:318   */\n  dup1\n    /* \"#utility.yul\":310:322   */\n  revert\n    /* \"#utility.yul\":334:451   */\ntag_20:\n    /* \"#utility.yul\":443:444   */\n  0x00\n    /* \"#utility.yul\":440:441   */\n  dup1\n    /* \"#utility.yul\":433:445   */\n  revert\n    /* \"#utility.yul\":457:574   */\ntag_21:\n    /* \"#utility.yul\":566:567   */\n  0x00\n    /* \"#utility.yul\":563:564   */\n  dup1\n    /* \"#utility.yul\":556:568   */\n  revert\n    /* \"#utility.yul\":580:682   */\ntag_22:\n    /* \"#utility.yul\":621:627   */\n  0x00\n    /* \"#utility.yul\":672:674   */\n  0x1f\n    /* \"#utility.yul\":668:675   */\n  not\n    /* \"#utility.yul\":663:665   */\n  0x1f\n    /* \"#utility.yul\":656:661   */\n  dup4\n    /* \"#utility.yul\":652:666   */\n  add\n    /* \"#utility.yul\":648:676   */\n  and\n    /* \"#utility.yul\":638:676   */\n  swap1\n  pop\n    /* \"#utility.yul\":580:682   */\n  swap2\n  swap1\n  pop\n  jump\t// out\n    /* \"#utility.yul\":688:868   */\ntag_23:\n    /* \"#utility.yul\":736:813   */\n  0x4e487b7100000000000000000000000000000000000000000000000000000000\n    /* \"#utility.yul\":733:734   */\n  0x00\n    /* \"#utility.yul\":726:814   */\n  mstore\n    /* \"#utility.yul\":833:837   */\n  0x41\n    /* \"#utility.yul\":830:831   */\n  0x04\n    /* \"#utility.yul\":823:838   */\n  mstore\n    /* \"#utility.yul\":857:861   */\n  0x24\n    /* \"#utility.yul\":854:855   */\n  0x00\n    /* \"#utility.yul\":847:862   */\n  revert\n    /* \"#utility.yul\":874:1155   */\ntag_24:\n    /* \"#utility.yul\":957:984   */\n  tag_61\n    /* \"#utility.yul\":979:983   */\n  dup3\n    /* \"#utility.yul\":957:984   */\n  tag_22\n  jump\t// in\ntag_61:\n    /* \"#utility.yul\":949:955   */\n  dup2\n    /* \"#utility.yul\":945:985   */\n  add\n    /* \"#utility.yul\":1087:1093   */\n  dup2\n    /* \"#utility.yul\":1075:1085   */\n  dup2\n    /* \"#utility.yul\":1072:1094   */\n  lt\n    /* \"#utility.yul\":1051:1069   */\n  0xffffffffffffffff\n    /* \"#utility.yul\":1039:1049   */\n  dup3\n    /* \"#utility.yul\":1036:1070   */\n  gt\n    /* \"#utility.yul\":1033:1095   */\n  or\n    /* \"#utility.yul\":1030:1118   */\n  iszero\n  tag_62\n  jumpi\n    /* \"#utility.yul\":1098:1116   */\n  tag_63\n  tag_23\n  jump\t// in\ntag_63:\n    /* \"#utility.yul\":1030:1118   */\ntag_62:\n    /* \"#utility.yul\":1138:1148   */\n  dup1\n    /* \"#utility.yul\":1134:1136   */\n  0x40\n    /* \"#utility.yul\":1127:1149   */\n  mstore\n    /* \"#utility.yul\":917:1155   */\n  pop\n    /* \"#utility.yul\":874:1155   */\n  pop\n  pop\n  jump\t// out\n    /* \"#utility.yul\":1161:1290   */\ntag_25:\n    /* \"#utility.yul\":1195:1201   */\n  0x00\n    /* \"#utility.yul\":1222:1242   */\n  tag_65\n  tag_17\n  jump\t// in\ntag_65:\n    /* \"#utility.yul\":1212:1242   */\n  swap1\n  pop\n    /* \"#utility.yul\":1251:1284   */\n  tag_66\n    /* \"#utility.yul\":1279:1283   */\n  dup3\n    /* \"#utility.yul\":1271:1277   */\n  dup3\n    /* \"#utility.yul\":1251:1284   */\n  tag_24\n  jump\t// in\ntag_66:\n    /* \"#utility.yul\":1161:1290   */\n  swap2\n  swap1\n  pop\n  jump\t// out\n    /* \"#utility.yul\":1296:1604   */\ntag_26:\n    /* \"#utility.yul\":1358:1362   */\n  0x00\n    /* \"#utility.yul\":1448:1466   */\n  0xffffffffffffffff\n    /* \"#utility.yul\":1440:1446   */\n  dup3\n    /* \"#utility.yul\":1437:1467   */\n  gt\n    /* \"#utility.yul\":1434:1490   */\n  iszero\n  tag_68\n  jumpi\n    /* \"#utility.yul\":1470:1488   */\n  tag_69\n  tag_23\n  jump\t// in\ntag_69:\n    /* \"#utility.yul\":1434:1490   */\ntag_68:\n    /* \"#utility.yul\":1508:1537   */\n  tag_70\n    /* \"#utility.yul\":1530:1536   */\n  dup3\n    /* \"#utility.yul\":1508:1537   */\n  tag_22\n  jump\t// in\ntag_70:\n    /* \"#utility.yul\":1500:1537   */\n  swap1\n  pop\n    /* \"#utility.yul\":1592:1596   */\n  0x20\n    /* \"#utility.yul\":1586:1590   */\n  dup2\n    /* \"#utility.yul\":1582:1597   */\n  add\n    /* \"#utility.yul\":1574:1597   */\n  swap1\n  pop\n    /* \"#utility.yul\":1296:1604   */\n  swap2\n  swap1\n  pop\n  jump\t// out\n    /* \"#utility.yul\":1610:1749   */\ntag_27:\n    /* \"#utility.yul\":1699:1705   */\n  dup3\n    /* \"#utility.yul\":1694:1697   */\n  dup2\n    /* \"#utility.yul\":1689:1692   */\n  dup4\n    /* \"#utility.yul\":1683:1706   */\n  mcopy\n    /* \"#utility.yul\":1740:1741   */\n  0x00\n    /* \"#utility.yul\":1731:1737   */\n  dup4\n    /* \"#utility.yul\":1726:1729   */\n  dup4\n    /* \"#utility.yul\":1722:1738   */\n  add\n    /* \"#utility.yul\":1715:1742   */\n  mstore\n    /* \"#utility.yul\":1610:1749   */\n  pop\n  pop\n  pop\n  jump\t// out\n    /* \"#utility.yul\":1755:2189   */\ntag_28:\n    /* \"#utility.yul\":1844:1849   */\n  0x00\n    /* \"#utility.yul\":1869:1935   */\n  tag_73\n    /* \"#utility.yul\":1885:1934   */\n  tag_74\n    /* \"#utility.yul\":1927:1933   */\n  dup5\n    /* \"#utility.yul\":1885:1934   */\n  tag_26\n  jump\t// in\ntag_74:\n    /* \"#utility.yul\":1869:1935   */\n  tag_25\n  jump\t// in\ntag_73:\n    /* \"#utility.yul\":1860:1935   */\n  swap1\n  pop\n    /* \"#utility.yul\":1958:1964   */\n  dup3\n    /* \"#utility.yul\":1951:1956   */\n  dup2\n    /* \"#utility.yul\":1944:1965   */\n  mstore\n    /* \"#utility.yul\":1996:2000   */\n  0x20\n    /* \"#utility.yul\":1989:1994   */\n  dup2\n    /* \"#utility.yul\":1985:2001   */\n  add\n    /* \"#utility.yul\":2034:2037   */\n  dup5\n    /* \"#utility.yul\":2025:2031   */\n  dup5\n    /* \"#utility.yul\":2020:2023   */\n  dup5\n    /* \"#utility.yul\":2016:2032   */\n  add\n    /* \"#utility.yul\":2013:2038   */\n  gt\n    /* \"#utility.yul\":2010:2122   */\n  iszero\n  tag_75\n  jumpi\n    /* \"#utility.yul\":2041:2120   */\n  tag_76\n  tag_21\n  jump\t// in\ntag_76:\n    /* \"#utility.yul\":2010:2122   */\ntag_75:\n    /* \"#utility.yul\":2131:2183   */\n  tag_77\n    /* \"#utility.yul\":2176:2182   */\n  dup5\n    /* \"#utility.yul\":2171:2174   */\n  dup3\n    /* \"#utility.yul\":2166:2169   */\n  dup6\n    /* \"#utility.yul\":2131:2183   */\n  tag_27\n  jump\t// in\ntag_77:\n    /* \"#utility.yul\":1850:2189   */\n  pop\n    /* \"#utility.yul\":1755:2189   */\n  swap4\n  swap3\n  pop\n  pop\n  pop\n  jump\t// out\n    /* \"#utility.yul\":2209:2564   */\ntag_29:\n    /* \"#utility.yul\":2276:2281   */\n  0x00\n    /* \"#utility.yul\":2325:2328   */\n  dup3\n    /* \"#utility.yul\":2318:2322   */\n  0x1f\n    /* \"#utility.yul\":2310:2316   */\n  dup4\n    /* \"#utility.yul\":2306:2323   */\n  add\n    /* \"#utility.yul\":2302:2329   */\n  slt\n    /* \"#utility.yul\":2292:2414   */\n  tag_79\n  jumpi\n    /* \"#utility.yul\":2333:2412   */\n  tag_80\n  tag_20\n  jump\t// in\ntag_80:\n    /* \"#utility.yul\":2292:2414   */\ntag_79:\n    /* \"#utility.yul\":2443:2449   */\n  dup2\n    /* \"#utility.yul\":2437:2450   */\n  mload\n    /* \"#utility.yul\":2468:2558   */\n  tag_81\n    /* \"#utility.yul\":2554:2557   */\n  dup5\n    /* \"#utility.yul\":2546:2552   */\n  dup3\n    /* \"#utility.yul\":2539:2543   */\n  0x20\n    /* \"#utility.yul\":2531:2537   */\n  dup7\n    /* \"#utility.yul\":2527:2544   */\n  add\n    /* \"#utility.yul\":2468:2558   */\n  tag_28\n  jump\t// in\ntag_81:\n    /* \"#utility.yul\":2459:2558   */\n  swap2\n  pop\n    /* \"#utility.yul\":2282:2564   */\n  pop\n    /* \"#utility.yul\":2209:2564   */\n  swap3\n  swap2\n  pop\n  pop\n  jump\t// out\n    /* \"#utility.yul\":2570:2647   */\ntag_30:\n    /* \"#utility.yul\":2607:2614   */\n  0x00\n    /* \"#utility.yul\":2636:2641   */\n  dup2\n    /* \"#utility.yul\":2625:2641   */\n  swap1\n  pop\n    /* \"#utility.yul\":2570:2647   */\n  swap2\n  swap1\n  pop\n  jump\t// out\n    /* \"#utility.yul\":2653:2775   */\ntag_31:\n    /* \"#utility.yul\":2726:2750   */\n  tag_84\n    /* \"#utility.yul\":2744:2749   */\n  dup2\n    /* \"#utility.yul\":2726:2750   */\n  tag_30\n  jump\t// in\ntag_84:\n    /* \"#utility.yul\":2719:2724   */\n  dup2\n    /* \"#utility.yul\":2716:2751   */\n  eq\n    /* \"#utility.yul\":2706:2769   */\n  tag_85\n  jumpi\n    /* \"#utility.yul\":2765:2766   */\n  0x00\n    /* \"#utility.yul\":2762:2763   */\n  dup1\n    /* \"#utility.yul\":2755:2767   */\n  revert\n    /* \"#utility.yul\":2706:2769   */\ntag_85:\n    /* \"#utility.yul\":2653:2775   */\n  pop\n  jump\t// out\n    /* \"#utility.yul\":2781:2924   */\ntag_32:\n    /* \"#utility.yul\":2838:2843   */\n  0x00\n    /* \"#utility.yul\":2869:2875   */\n  dup2\n    /* \"#utility.yul\":2863:2876   */\n  mload\n    /* \"#utility.yul\":2854:2876   */\n  swap1\n  pop\n    /* \"#utility.yul\":2885:2918   */\n  tag_87\n    /* \"#utility.yul\":2912:2917   */\n  dup2\n    /* \"#utility.yul\":2885:2918   */\n  tag_31\n  jump\t// in\ntag_87:\n    /* \"#utility.yul\":2781:2924   */\n  swap3\n  swap2\n  pop\n  pop\n  jump\t// out\n    /* \"#utility.yul\":2930:4096   */\ntag_3:\n    /* \"#utility.yul\":3047:3053   */\n  0x00\n    /* \"#utility.yul\":3055:3061   */\n  dup1\n    /* \"#utility.yul\":3063:3069   */\n  0x00\n    /* \"#utility.yul\":3071:3077   */\n  dup1\n    /* \"#utility.yul\":3120:3123   */\n  0x80\n    /* \"#utility.yul\":3108:3117   */\n  dup6\n    /* \"#utility.yul\":3099:3106   */\n  dup8\n    /* \"#utility.yul\":3095:3118   */\n  sub\n    /* \"#utility.yul\":3091:3124   */\n  slt\n    /* \"#utility.yul\":3088:3208   */\n  iszero\n  tag_89\n  jumpi\n    /* \"#utility.yul\":3127:3206   */\n  tag_90\n  tag_18\n  jump\t// in\ntag_90:\n    /* \"#utility.yul\":3088:3208   */\ntag_89:\n    /* \"#utility.yul\":3268:3269   */\n  0x00\n    /* \"#utility.yul\":3257:3266   */\n  dup6\n    /* \"#utility.yul\":3253:3270   */\n  add\n    /* \"#utility.yul\":3247:3271   */\n  mload\n    /* \"#utility.yul\":3298:3316   */\n  0xffffffffffffffff\n    /* \"#utility.yul\":3290:3296   */\n  dup2\n    /* \"#utility.yul\":3287:3317   */\n  gt\n    /* \"#utility.yul\":3284:3401   */\n  iszero\n  tag_91\n  jumpi\n    /* \"#utility.yul\":3320:3399   */\n  tag_92\n  tag_19\n  jump\t// in\ntag_92:\n    /* \"#utility.yul\":3284:3401   */\ntag_91:\n    /* \"#utility.yul\":3425:3499   */\n  tag_93\n    /* \"#utility.yul\":3491:3498   */\n  dup8\n    /* \"#utility.yul\":3482:3488   */\n  dup3\n    /* \"#utility.yul\":3471:3480   */\n  dup9\n    /* \"#utility.yul\":3467:3489   */\n  add\n    /* \"#utility.yul\":3425:3499   */\n  tag_29\n  jump\t// in\ntag_93:\n    /* \"#utility.yul\":3415:3499   */\n  swap5\n  pop\n    /* \"#utility.yul\":3218:3509   */\n  pop\n    /* \"#utility.yul\":3569:3571   */\n  0x20\n    /* \"#utility.yul\":3558:3567   */\n  dup6\n    /* \"#utility.yul\":3554:3572   */\n  add\n    /* \"#utility.yul\":3548:3573   */\n  mload\n    /* \"#utility.yul\":3600:3618   */\n  0xffffffffffffffff\n    /* \"#utility.yul\":3592:3598   */\n  dup2\n    /* \"#utility.yul\":3589:3619   */\n  gt\n    /* \"#utility.yul\":3586:3703   */\n  iszero\n  tag_94\n  jumpi\n    /* \"#utility.yul\":3622:3701   */\n  tag_95\n  tag_19\n  jump\t// in\ntag_95:\n    /* \"#utility.yul\":3586:3703   */\ntag_94:\n    /* \"#utility.yul\":3727:3801   */\n  tag_96\n    /* \"#utility.yul\":3793:3800   */\n  dup8\n    /* \"#utility.yul\":3784:3790   */\n  dup3\n    /* \"#utility.yul\":3773:3782   */\n  dup9\n    /* \"#utility.yul\":3769:3791   */\n  add\n    /* \"#utility.yul\":3727:3801   */\n  tag_29\n  jump\t// in\ntag_96:\n    /* \"#utility.yul\":3717:3801   */\n  swap4\n  pop\n    /* \"#utility.yul\":3519:3811   */\n  pop\n    /* \"#utility.yul\":3850:3852   */\n  0x40\n    /* \"#utility.yul\":3876:3940   */\n  tag_97\n    /* \"#utility.yul\":3932:3939   */\n  dup8\n    /* \"#utility.yul\":3923:3929   */\n  dup3\n    /* \"#utility.yul\":3912:3921   */\n  dup9\n    /* \"#utility.yul\":3908:3930   */\n  add\n    /* \"#utility.yul\":3876:3940   */\n  tag_32\n  jump\t// in\ntag_97:\n    /* \"#utility.yul\":3866:3940   */\n  swap3\n  pop\n    /* \"#utility.yul\":3821:3950   */\n  pop\n    /* \"#utility.yul\":3989:3991   */\n  0x60\n    /* \"#utility.yul\":4015:4079   */\n  tag_98\n    /* \"#utility.yul\":4071:4078   */\n  dup8\n    /* \"#utility.yul\":4062:4068   */\n  dup3\n    /* \"#utility.yul\":4051:4060   */\n  dup9\n    /* \"#utility.yul\":4047:4069   */\n  add\n    /* \"#utility.yul\":4015:4079   */\n  tag_32\n  jump\t// in\ntag_98:\n    /* \"#utility.yul\":4005:4079   */\n  swap2\n  pop\n    /* \"#utility.yul\":3960:4089   */\n  pop\n    /* \"#utility.yul\":2930:4096   */\n  swap3\n  swap6\n  swap2\n  swap5\n  pop\n  swap3\n  pop\n  jump\t// out\n    /* \"#utility.yul\":4102:4201   */\ntag_33:\n    /* \"#utility.yul\":4154:4160   */\n  0x00\n    /* \"#utility.yul\":4188:4193   */\n  dup2\n    /* \"#utility.yul\":4182:4194   */\n  mload\n    /* \"#utility.yul\":4172:4194   */\n  swap1\n  pop\n    /* \"#utility.yul\":4102:4201   */\n  swap2\n  swap1\n  pop\n  jump\t// out\n    /* \"#utility.yul\":4207:4387   */\ntag_34:\n    /* \"#utility.yul\":4255:4332   */\n  0x4e487b7100000000000000000000000000000000000000000000000000000000\n    /* \"#utility.yul\":4252:4253   */\n  0x00\n    /* \"#utility.yul\":4245:4333   */\n  mstore\n    /* \"#utility.yul\":4352:4356   */\n  0x22\n    /* \"#utility.yul\":4349:4350   */\n  0x04\n    /* \"#utility.yul\":4342:4357   */\n  mstore\n    /* \"#utility.yul\":4376:4380   */\n  0x24\n    /* \"#utility.yul\":4373:4374   */\n  0x00\n    /* \"#utility.yul\":4366:4381   */\n  revert\n    /* \"#utility.yul\":4393:4713   */\ntag_35:\n    /* \"#utility.yul\":4437:4443   */\n  0x00\n    /* \"#utility.yul\":4474:4475   */\n  0x02\n    /* \"#utility.yul\":4468:4472   */\n  dup3\n    /* \"#utility.yul\":4464:4476   */\n  div\n    /* \"#utility.yul\":4454:4476   */\n  swap1\n  pop\n    /* \"#utility.yul\":4521:4522   */\n  0x01\n    /* \"#utility.yul\":4515:4519   */\n  dup3\n    /* \"#utility.yul\":4511:4523   */\n  and\n    /* \"#utility.yul\":4542:4560   */\n  dup1\n    /* \"#utility.yul\":4532:4613   */\n  tag_102\n  jumpi\n    /* \"#utility.yul\":4598:4602   */\n  0x7f\n    /* \"#utility.yul\":4590:4596   */\n  dup3\n    /* \"#utility.yul\":4586:4603   */\n  and\n    /* \"#utility.yul\":4576:4603   */\n  swap2\n  pop\n    /* \"#utility.yul\":4532:4613   */\ntag_102:\n    /* \"#utility.yul\":4660:4662   */\n  0x20\n    /* \"#utility.yul\":4652:4658   */\n  dup3\n    /* \"#utility.yul\":4649:4663   */\n  lt\n    /* \"#utility.yul\":4629:4647   */\n  dup2\n    /* \"#utility.yul\":4626:4664   */\n  sub\n    /* \"#utility.yul\":4623:4707   */\n  tag_103\n  jumpi\n    /* \"#utility.yul\":4679:4697   */\n  tag_104\n  tag_34\n  jump\t// in\ntag_104:\n    /* \"#utility.yul\":4623:4707   */\ntag_103:\n    /* \"#utility.yul\":4444:4713   */\n  pop\n    /* \"#utility.yul\":4393:4713   */\n  swap2\n  swap1\n  pop\n  jump\t// out\n    /* \"#utility.yul\":4719:4860   */\ntag_36:\n    /* \"#utility.yul\":4768:4772   */\n  0x00\n    /* \"#utility.yul\":4791:4794   */\n  dup2\n    /* \"#utility.yul\":4783:4794   */\n  swap1\n  pop\n    /* \"#utility.yul\":4814:4817   */\n  dup2\n    /* \"#utility.yul\":4811:4812   */\n  0x00\n    /* \"#utility.yul\":4804:4818   */\n  mstore\n    /* \"#utility.yul\":4848:4852   */\n  0x20\n    /* \"#utility.yul\":4845:4846   */\n  0x00\n    /* \"#utility.yul\":4835:4853   */\n  keccak256\n    /* \"#utility.yul\":4827:4853   */\n  swap1\n  pop\n    /* \"#utility.yul\":4719:4860   */\n  swap2\n  swap1\n  pop\n  jump\t// out\n    /* \"#utility.yul\":4866:4959   */\ntag_37:\n    /* \"#utility.yul\":4903:4909   */\n  0x00\n    /* \"#utility.yul\":4950:4952   */\n  0x20\n    /* \"#utility.yul\":4945:4947   */\n  0x1f\n    /* \"#utility.yul\":4938:4943   */\n  dup4\n    /* \"#utility.yul\":4934:4948   */\n  add\n    /* \"#utility.yul\":4930:4953   */\n  div\n    /* \"#utility.yul\":4920:4953   */\n  swap1\n  pop\n    /* \"#utility.yul\":4866:4959   */\n  swap2\n  swap1\n  pop\n  jump\t// out\n    /* \"#utility.yul\":4965:5072   */\ntag_38:\n    /* \"#utility.yul\":5009:5017   */\n  0x00\n    /* \"#utility.yul\":5059:5064   */\n  dup3\n    /* \"#utility.yul\":5053:5057   */\n  dup3\n    /* \"#utility.yul\":5049:5065   */\n  shl\n    /* \"#utility.yul\":5028:5065   */\n  swap1\n  pop\n    /* \"#utility.yul\":4965:5072   */\n  swap3\n  swap2\n  pop\n  pop\n  jump\t// out\n    /* \"#utility.yul\":5078:5471   */\ntag_39:\n    /* \"#utility.yul\":5147:5153   */\n  0x00\n    /* \"#utility.yul\":5197:5198   */\n  0x08\n    /* \"#utility.yul\":5185:5195   */\n  dup4\n    /* \"#utility.yul\":5181:5199   */\n  mul\n    /* \"#utility.yul\":5220:5317   */\n  tag_109\n    /* \"#utility.yul\":5250:5316   */\n  0xffffffffffffffffffffffffffffffffffffffffffffffffffffffffffffffff\n    /* \"#utility.yul\":5239:5248   */\n  dup3\n    /* \"#utility.yul\":5220:5317   */\n  tag_38\n  jump\t// in\ntag_109:\n    /* \"#utility.yul\":5338:5377   */\n  tag_110\n    /* \"#utility.yul\":5368:5376   */\n  dup7\n    /* \"#utility.yul\":5357:5366   */\n  dup4\n    /* \"#utility.yul\":5338:5377   */\n  tag_38\n  jump\t// in\ntag_110:\n    /* \"#utility.yul\":5326:5377   */\n  swap6\n  pop\n    /* \"#utility.yul\":5410:5414   */\n  dup1\n    /* \"#utility.yul\":5406:5415   */\n  not\n    /* \"#utility.yul\":5399:5404   */\n  dup5\n    /* \"#utility.yul\":5395:5416   */\n  and\n    /* \"#utility.yul\":5386:5416   */\n  swap4\n  pop\n    /* \"#utility.yul\":5459:5463   */\n  dup1\n    /* \"#utility.yul\":5449:5457   */\n  dup7\n    /* \"#utility.yul\":5445:5464   */\n  and\n    /* \"#utility.yul\":5438:5443   */\n  dup5\n    /* \"#utility.yul\":5435:5465   */\n  or\n    /* \"#utility.yul\":5425:5465   */\n  swap3\n  pop\n    /* \"#utility.yul\":5154:5471   */\n  pop\n  pop\n    /* \"#utility.yul\":5078:5471   */\n  swap4\n  swap3\n  pop\n  pop\n  pop\n  jump\t// out\n    /* \"#utility.yul\":5477:5537   */\ntag_40:\n    /* \"#utility.yul\":5505:5508   */\n  0x00\n    /* \"#utility.yul\":5526:5531   */\n  dup2\n    /* \"#utility.yul\":5519:5531   */\n  swap1\n  pop\n    /* \"#utility.yul\":5477:5537   */\n  swap2\n  swap1\n  pop\n  jump\t// out\n    /* \"#utility.yul\":5543:5685   */\ntag_41:\n    /* \"#utility.yul\":5593:5602   */\n  0x00\n    /* \"#utility.yul\":5626:5679   */\n  tag_113\n    /* \"#utility.yul\":5644:5678   */\n  tag_114\n    /* \"#utility.yul\":5653:5677   */\n  tag_115\n    /* \"#utility.yul\":5671:5676   */\n  dup5\n    /* \"#utility.yul\":5653:5677   */\n  tag_30\n  jump\t// in\ntag_115:\n    /* \"#utility.yul\":5644:5678   */\n  tag_40\n  jump\t// in\ntag_114:\n    /* \"#utility.yul\":5626:5679   */\n  tag_30\n  jump\t// in\ntag_113:\n    /* \"#utility.yul\":5613:5679   */\n  swap1\n  pop\n    /* \"#utility.yul\":5543:5685   */\n  swap2\n  swap1\n  pop\n  jump\t// out\n    /* \"#utility.yul\":5691:5766   */\ntag_42:\n    /* \"#utility.yul\":5734:5737   */\n  0x00\n    /* \"#utility.yul\":5755:5760   */\n  dup2\n    /* \"#utility.yul\":5748:5760   */\n  swap1\n  pop\n    /* \"#utility.yul\":5691:5766   */\n  swap2\n  swap1\n  pop\n  jump\t// out\n    /* \"#utility.yul\":5772:6041   */\ntag_43:\n    /* \"#utility.yul\":5882:5921   */\n  tag_118\n    /* \"#utility.yul\":5913:5920   */\n  dup4\n    /* \"#utility.yul\":5882:5921   */\n  tag_41\n  jump\t// in\ntag_118:\n    /* \"#utility.yul\":5943:6034   */\n  tag_119\n    /* \"#utility.yul\":5992:6033   */\n  tag_120\n    /* \"#utility.yul\":6016:6032   */\n  dup3\n    /* \"#utility.yul\":5992:6033   */\n  tag_42\n  jump\t// in\ntag_120:\n    /* \"#utility.yul\":5984:5990   */\n  dup5\n    /* \"#utility.yul\":5977:5981   */\n  dup5\n    /* \"#utility.yul\":5971:5982   */\n  sload\n    /* \"#utility.yul\":5943:6034   */\n  tag_39\n  jump\t// in\ntag_119:\n    /* \"#utility.yul\":5937:5941   */\n  dup3\n    /* \"#utility.yul\":5930:6035   */\n  sstore\n    /* \"#utility.yul\":5848:6041   */\n  pop\n    /* \"#utility.yul\":5772:6041   */\n  pop\n  pop\n  pop\n  jump\t// out\n    /* \"#utility.yul\":6047:6120   */\ntag_44:\n    /* \"#utility.yul\":6092:6095   */\n  0x00\n    /* \"#utility.yul\":6047:6120   */\n  swap1\n  jump\t// out\n    /* \"#utility.yul\":6126:6315   */\ntag_45:\n    /* \"#utility.yul\":6203:6235   */\n  tag_123\n  tag_44\n  jump\t// in\ntag_123:\n    /* \"#utility.yul\":6244:6309   */\n  tag_124\n    /* \"#utility.yul\":6302:6308   */\n  dup2\n    /* \"#utility.yul\":6294:6300   */\n  dup5\n    /* \"#utility.yul\":6288:6292   */\n  dup5\n    /* \"#utility.yul\":6244:6309   */\n  tag_43\n  jump\t// in\ntag_124:\n    /* \"#utility.yul\":6179:6315   */\n  pop\n    /* \"#utility.yul\":6126:6315   */\n  pop\n  pop\n  jump\t// out\n    /* \"#utility.yul\":6321:6507   */\ntag_46:\n    /* \"#utility.yul\":6381:6501   */\ntag_126:\n    /* \"#utility.yul\":6398:6401   */\n  dup2\n    /* \"#utility.yul\":6391:6396   */\n  dup2\n    /* \"#utility.yul\":6388:6402   */\n  lt\n    /* \"#utility.yul\":6381:6501   */\n  iszero\n  tag_128\n  jumpi\n    /* \"#utility.yul\":6452:6491   */\n  tag_129\n    /* \"#utility.yul\":6489:6490   */\n  0x00\n    /* \"#utility.yul\":6482:6487   */\n  dup3\n    /* \"#utility.yul\":6452:6491   */\n  tag_45\n  jump\t// in\ntag_129:\n    /* \"#utility.yul\":6425:6426   */\n  0x01\n    /* \"#utility.yul\":6418:6423   */\n  dup2\n    /* \"#utility.yul\":6414:6427   */\n  add\n    /* \"#utility.yul\":6405:6427   */\n  swap1\n  pop\n    /* \"#utility.yul\":6381:6501   */\n  jump(tag_126)\ntag_128:\n    /* \"#utility.yul\":6321:6507   */\n  pop\n  pop\n  jump\t// out\n    /* \"#utility.yul\":6513:7056   */\ntag_47:\n    /* \"#utility.yul\":6614:6616   */\n  0x1f\n    /* \"#utility.yul\":6609:6612   */\n  dup3\n    /* \"#utility.yul\":6606:6617   */\n  gt\n    /* \"#utility.yul\":6603:7049   */\n  iszero\n  tag_131\n  jumpi\n    /* \"#utility.yul\":6648:6686   */\n  tag_132\n    /* \"#utility.yul\":6680:6685   */\n  dup2\n    /* \"#utility.yul\":6648:6686   */\n  tag_36\n  jump\t// in\ntag_132:\n    /* \"#utility.yul\":6732:6761   */\n  tag_133\n    /* \"#utility.yul\":6750:6760   */\n  dup5\n    /* \"#utility.yul\":6732:6761   */\n  tag_37\n  jump\t// in\ntag_133:\n    /* \"#utility.yul\":6722:6730   */\n  dup2\n    /* \"#utility.yul\":6718:6762   */\n  add\n    /* \"#utility.yul\":6915:6917   */\n  0x20\n    /* \"#utility.yul\":6903:6913   */\n  dup6\n    /* \"#utility.yul\":6900:6918   */\n  lt\n    /* \"#utility.yul\":6897:6946   */\n  iszero\n  tag_134\n  jumpi\n    /* \"#utility.yul\":6936:6944   */\n  dup2\n    /* \"#utility.yul\":6921:6944   */\n  swap1\n  pop\n    /* \"#utility.yul\":6897:6946   */\ntag_134:\n    /* \"#utility.yul\":6959:7039   */\n  tag_135\n    /* \"#utility.yul\":7015:7037   */\n  tag_136\n    /* \"#utility.yul\":7033:7036   */\n  dup6\n    /* \"#utility.yul\":7015:7037   */\n  tag_37\n  jump\t// in\ntag_136:\n    /* \"#utility.yul\":7005:7013   */\n  dup4\n    /* \"#utility.yul\":7001:7038   */\n  add\n    /* \"#utility.yul\":6988:6999   */\n  dup3\n    /* \"#utility.yul\":6959:7039   */\n  tag_46\n  jump\t// in\ntag_135:\n    /* \"#utility.yul\":6618:7049   */\n  pop\n  pop\n    /* \"#utility.yul\":6603:7049   */\ntag_131:\n    /* \"#utility.yul\":6513:7056   */\n  pop\n  pop\n  pop\n  jump\t// out\n    /* \"#utility.yul\":7062:7179   */\ntag_48:\n    /* \"#utility.yul\":7116:7124   */\n  0x00\n    /* \"#utility.yul\":7166:7171   */\n  dup3\n    /* \"#utility.yul\":7160:7164   */\n  dup3\n    /* \"#utility.yul\":7156:7172   */\n  shr\n    /* \"#utility.yul\":7135:7172   */\n  swap1\n  pop\n    /* \"#utility.yul\":7062:7179   */\n  swap3\n  swap2\n  pop\n  pop\n  jump\t// out\n    /* \"#utility.yul\":7185:7354   */\ntag_49:\n    /* \"#utility.yul\":7229:7235   */\n  0x00\n    /* \"#utility.yul\":7262:7313   */\n  tag_139\n    /* \"#utility.yul\":7310:7311   */\n  0x00\n    /* \"#utility.yul\":7306:7312   */\n  not\n    /* \"#utility.yul\":7298:7303   */\n  dup5\n    /* \"#utility.yul\":7295:7296   */\n  0x08\n    /* \"#utility.yul\":7291:7304   */\n  mul\n    /* \"#utility.yul\":7262:7313   */\n  tag_48\n  jump\t// in\ntag_139:\n    /* \"#utility.yul\":7258:7314   */\n  not\n    /* \"#utility.yul\":7343:7347   */\n  dup1\n    /* \"#utility.yul\":7337:7341   */\n  dup4\n    /* \"#utility.yul\":7333:7348   */\n  and\n    /* \"#utility.yul\":7323:7348   */\n  swap2\n  pop\n    /* \"#utility.yul\":7236:7354   */\n  pop\n    /* \"#utility.yul\":7185:7354   */\n  swap3\n  swap2\n  pop\n  pop\n  jump\t// out\n    /* \"#utility.yul\":7359:7654   */\ntag_50:\n    /* \"#utility.yul\":7435:7439   */\n  0x00\n    /* \"#utility.yul\":7581:7610   */\n  tag_141\n    /* \"#utility.yul\":7606:7609   */\n  dup4\n    /* \"#utility.yul\":7600:7604   */\n  dup4\n    /* \"#utility.yul\":7581:7610   */\n  tag_49\n  jump\t// in\ntag_141:\n    /* \"#utility.yul\":7573:7610   */\n  swap2\n  pop\n    /* \"#utility.yul\":7643:7646   */\n  dup3\n    /* \"#utility.yul\":7640:7641   */\n  0x02\n    /* \"#utility.yul\":7636:7647   */\n  mul\n    /* \"#utility.yul\":7630:7634   */\n  dup3\n    /* \"#utility.yul\":7627:7648   */\n  or\n    /* \"#utility.yul\":7619:7648   */\n  swap1\n  pop\n    /* \"#utility.yul\":7359:7654   */\n  swap3\n  swap2\n  pop\n  pop\n  jump\t// out\n    /* \"#utility.yul\":7659:9054   */\ntag_7:\n    /* \"#utility.yul\":7776:7813   */\n  tag_143\n    /* \"#utility.yul\":7809:7812   */\n  dup3\n    /* \"#utility.yul\":7776:7813   */\n  tag_33\n  jump\t// in\ntag_143:\n    /* \"#utility.yul\":7878:7896   */\n  0xffffffffffffffff\n    /* \"#utility.yul\":7870:7876   */\n  dup2\n    /* \"#utility.yul\":7867:7897   */\n  gt\n    /* \"#utility.yul\":7864:7920   */\n  iszero\n  tag_144\n  jumpi\n    /* \"#utility.yul\":7900:7918   */\n  tag_145\n  tag_23\n  jump\t// in\ntag_145:\n    /* \"#utility.yul\":7864:7920   */\ntag_144:\n    /* \"#utility.yul\":7944:7982   */\n  tag_146\n    /* \"#utility.yul\":7976:7980   */\n  dup3\n    /* \"#utility.yul\":7970:7981   */\n  sload\n    /* \"#utility.yul\":7944:7982   */\n  tag_35\n  jump\t// in\ntag_146:\n    /* \"#utility.yul\":8029:8096   */\n  tag_147\n    /* \"#utility.yul\":8089:8095   */\n  dup3\n    /* \"#utility.yul\":8081:8087   */\n  dup3\n    /* \"#utility.yul\":8075:8079   */\n  dup6\n    /* \"#utility.yul\":8029:8096   */\n  tag_47\n  jump\t// in\ntag_147:\n    /* \"#utility.yul\":8123:8124   */\n  0x00\n    /* \"#utility.yul\":8147:8151   */\n  0x20\n    /* \"#utility.yul\":8134:8151   */\n  swap1\n  pop\n    /* \"#utility.yul\":8179:8181   */\n  0x1f\n    /* \"#utility.yul\":8171:8177   */\n  dup4\n    /* \"#utility.yul\":8168:8182   */\n  gt\n    /* \"#utility.yul\":8196:8197   */\n  0x01\n    /* \"#utility.yul\":8191:8809   */\n  dup2\n  eq\n  tag_149\n  jumpi\n    /* \"#utility.yul\":8853:8854   */\n  0x00\n    /* \"#utility.yul\":8870:8876   */\n  dup5\n    /* \"#utility.yul\":8867:8944   */\n  iszero\n  tag_150\n  jumpi\n    /* \"#utility.yul\":8919:8928   */\n  dup3\n    /* \"#utility.yul\":8914:8917   */\n  dup8\n    /* \"#utility.yul\":8910:8929   */\n  add\n    /* \"#utility.yul\":8904:8930   */\n  mload\n    /* \"#utility.yul\":8895:8930   */\n  swap1\n  pop\n    /* \"#utility.yul\":8867:8944   */\ntag_150:\n    /* \"#utility.yul\":8970:9037   */\n  tag_151\n    /* \"#utility.yul\":9030:9036   */\n  dup6\n    /* \"#utility.yul\":9023:9028   */\n  dup3\n    /* \"#utility.yul\":8970:9037   */\n  tag_50\n  jump\t// in\ntag_151:\n    /* \"#utility.yul\":8964:8968   */\n  dup7\n    /* \"#utility.yul\":8957:9038   */\n  sstore\n    /* \"#utility.yul\":8826:9048   */\n  pop\n    /* \"#utility.yul\":8161:9048   */\n  jump(tag_148)\n    /* \"#utility.yul\":8191:8809   */\ntag_149:\n    /* \"#utility.yul\":8243:8247   */\n  0x1f\n    /* \"#utility.yul\":8239:8248   */\n  not\n    /* \"#utility.yul\":8231:8237   */\n  dup5\n    /* \"#utility.yul\":8227:8249   */\n  and\n    /* \"#utility.yul\":8277:8314   */\n  tag_152\n    /* \"#utility.yul\":8309:8313   */\n  dup7\n    /* \"#utility.yul\":8277:8314   */\n  tag_36\n  jump\t// in\ntag_152:\n    /* \"#utility.yul\":8336:8337   */\n  0x00\n    /* \"#utility.yul\":8350:8558   */\ntag_153:\n    /* \"#utility.yul\":8364:8371   */\n  dup3\n    /* \"#utility.yul\":8361:8362   */\n  dup2\n    /* \"#utility.yul\":8358:8372   */\n  lt\n    /* \"#utility.yul\":8350:8558   */\n  iszero\n  tag_155\n  jumpi\n    /* \"#utility.yul\":8443:8452   */\n  dup5\n    /* \"#utility.yul\":8438:8441   */\n  dup10\n    /* \"#utility.yul\":8434:8453   */\n  add\n    /* \"#utility.yul\":8428:8454   */\n  mload\n    /* \"#utility.yul\":8420:8426   */\n  dup3\n    /* \"#utility.yul\":8413:8455   */\n  sstore\n    /* \"#utility.yul\":8494:8495   */\n  0x01\n    /* \"#utility.yul\":8486:8492   */\n  dup3\n    /* \"#utility.yul\":8482:8496   */\n  add\n    /* \"#utility.yul\":8472:8496   */\n  swap2\n  pop\n    /* \"#utility.yul\":8541:8543   */\n  0x20\n    /* \"#utility.yul\":8530:8539   */\n  dup6\n    /* \"#utility.yul\":8526:8544   */\n  add\n    /* \"#utility.yul\":8513:8544   */\n  swap5\n  pop\n    /* \"#utility.yul\":8387:8391   */\n  0x20\n    /* \"#utility.yul\":8384:8385   */\n  dup2\n    /* \"#utility.yul\":8380:8392   */\n  add\n    /* \"#utility.yul\":8375:8392   */\n  swap1\n  pop\n    /* \"#utility.yul\":8350:8558   */\n  jump(tag_153)\ntag_155:\n    /* \"#utility.yul\":8586:8592   */\n  dup7\n    /* \"#utility.yul\":8577:8584   */\n  dup4\n    /* \"#utility.yul\":8574:8593   */\n  lt\n    /* \"#utility.yul\":8571:8750   */\n  iszero\n  tag_156\n  jumpi\n    /* \"#utility.yul\":8644:8653   */\n  dup5\n    /* \"#utility.yul\":8639:8642   */\n  dup10\n    /* \"#utility.yul\":8635:8654   */\n  add\n    /* \"#utility.yul\":8629:8655   */\n  mload\n    /* \"#utility.yul\":8687:8735   */\n  tag_157\n    /* \"#utility.yul\":8729:8733   */\n  0x1f\n    /* \"#utility.yul\":8721:8727   */\n  dup10\n    /* \"#utility.yul\":8717:8734   */\n  and\n    /* \"#utility.yul\":8706:8715   */\n  dup3\n    /* \"#utility.yul\":8687:8735   */\n  tag_49\n  jump\t// in\ntag_157:\n    /* \"#utility.yul\":8679:8685   */\n  dup4\n    /* \"#utility.yul\":8672:8736   */\n  sstore\n    /* \"#utility.yul\":8594:8750   */\n  pop\n    /* \"#utility.yul\":8571:8750   */\ntag_156:\n    /* \"#utility.yul\":8796:8797   */\n  0x01\n    /* \"#utility.yul\":8792:8793   */\n  0x02\n    /* \"#utility.yul\":8784:8790   */\n  dup9\n    /* \"#utility.yul\":8780:8794   */\n  mul\n    /* \"#utility.yul\":8776:8798   */\n  add\n    /* \"#utility.yul\":8770:8774   */\n  dup9\n    /* \"#utility.yul\":8763:8799   */\n  sstore\n    /* \"#utility.yul\":8198:8809   */\n  pop\n  pop\n  pop\n    /* \"#utility.yul\":8161:9048   */\ntag_148:\n  pop\n    /* \"#utility.yul\":7751:9054   */\n  pop\n  pop\n  pop\n    /* \"#utility.yul\":7659:9054   */\n  pop\n  pop\n  jump\t// out\n    /* \"#utility.yul\":9060:9240   */\ntag_51:\n    /* \"#utility.yul\":9108:9185   */\n  0x4e487b7100000000000000000000000000000000000000000000000000000000\n    /* \"#utility.yul\":9105:9106   */\n  0x00\n    /* \"#utility.yul\":9098:9186   */\n  mstore\n    /* \"#utility.yul\":9205:9209   */\n  0x11\n    /* \"#utility.yul\":9202:9203   */\n  0x04\n    /* \"#utility.yul\":9195:9210   */\n  mstore\n    /* \"#utility.yul\":9229:9233   */\n  0x24\n    /* \"#utility.yul\":9226:9227   */\n  0x00\n    /* \"#utility.yul\":9219:9234   */\n  revert\n    /* \"#utility.yul\":9246:9656   */\ntag_10:\n    /* \"#utility.yul\":9286:9293   */\n  0x00\n    /* \"#utility.yul\":9309:9329   */\n  tag_160\n    /* \"#utility.yul\":9327:9328   */\n  dup3\n    /* \"#utility.yul\":9309:9329   */\n  tag_30\n  jump\t// in\ntag_160:\n    /* \"#utility.yul\":9304:9329   */\n  swap2\n  pop\n    /* \"#utility.yul\":9343:9363   */\n  tag_161\n    /* \"#utility.yul\":9361:9362   */\n  dup4\n    /* \"#utility.yul\":9343:9363   */\n  tag_30\n  jump\t// in\ntag_161:\n    /* \"#utility.yul\":9338:9363   */\n  swap3\n  pop\n    /* \"#utility.yul\":9398:9399   */\n  dup3\n    /* \"#utility.yul\":9395:9396   */\n  dup3\n    /* \"#utility.yul\":9391:9400   */\n  mul\n    /* \"#utility.yul\":9420:9450   */\n  tag_162\n    /* \"#utility.yul\":9438:9449   */\n  dup2\n    /* \"#utility.yul\":9420:9450   */\n  tag_30\n  jump\t// in\ntag_162:\n    /* \"#utility.yul\":9409:9450   */\n  swap2\n  pop\n    /* \"#utility.yul\":9599:9600   */\n  dup3\n    /* \"#utility.yul\":9590:9597   */\n  dup3\n    /* \"#utility.yul\":9586:9601   */\n  div\n    /* \"#utility.yul\":9583:9584   */\n  dup5\n    /* \"#utility.yul\":9580:9602   */\n  eq\n    /* \"#utility.yul\":9560:9561   */\n  dup4\n    /* \"#utility.yul\":9553:9562   */\n  iszero\n    /* \"#utility.yul\":9533:9616   */\n  or\n    /* \"#utility.yul\":9510:9649   */\n  tag_163\n  jumpi\n    /* \"#utility.yul\":9629:9647   */\n  tag_164\n  tag_51\n  jump\t// in\ntag_164:\n    /* \"#utility.yul\":9510:9649   */\ntag_163:\n    /* \"#utility.yul\":9294:9656   */\n  pop\n    /* \"#utility.yul\":9246:9656   */\n  swap3\n  swap2\n  pop\n  pop\n  jump\t// out\n    /* \"#utility.yul\":9662:9853   */\ntag_12:\n    /* \"#utility.yul\":9702:9705   */\n  0x00\n    /* \"#utility.yul\":9721:9741   */\n  tag_166\n    /* \"#utility.yul\":9739:9740   */\n  dup3\n    /* \"#utility.yul\":9721:9741   */\n  tag_30\n  jump\t// in\ntag_166:\n    /* \"#utility.yul\":9716:9741   */\n  swap2\n  pop\n    /* \"#utility.yul\":9755:9775   */\n  tag_167\n    /* \"#utility.yul\":9773:9774   */\n  dup4\n    /* \"#utility.yul\":9755:9775   */\n  tag_30\n  jump\t// in\ntag_167:\n    /* \"#utility.yul\":9750:9775   */\n  swap3\n  pop\n    /* \"#utility.yul\":9798:9799   */\n  dup3\n    /* \"#utility.yul\":9795:9796   */\n  dup3\n    /* \"#utility.yul\":9791:9800   */\n  add\n    /* \"#utility.yul\":9784:9800   */\n  swap1\n  pop\n    /* \"#utility.yul\":9819:9822   */\n  dup1\n    /* \"#utility.yul\":9816:9817   */\n  dup3\n    /* \"#utility.yul\":9813:9823   */\n  gt\n    /* \"#utility.yul\":9810:9846   */\n  iszero\n  tag_168\n  jumpi\n    /* \"#utility.yul\":9826:9844   */\n  tag_169\n  tag_51\n  jump\t// in\ntag_169:\n    /* \"#utility.yul\":9810:9846   */\ntag_168:\n    /* \"#utility.yul\":9662:9853   */\n  swap3\n  swap2\n  pop\n  pop\n  jump\t// out\n    /* \"#utility.yul\":9859:10039   */\ntag_15:\n    /* \"#utility.yul\":9907:9984   */\n  0x4e487b7100000000000000000000000000000000000000000000000000000000\n    /* \"#utility.yul\":9904:9905   */\n  0x00\n    /* \"#utility.yul\":9897:9985   */\n  mstore\n    /* \"#utility.yul\":10004:10008   */\n  0x21\n    /* \"#utility.yul\":10001:10002   */\n  0x04\n    /* \"#utility.yul\":9994:10009   */\n  mstore\n    /* \"#utility.yul\":10028:10032   */\n  0x24\n    /* \"#utility.yul\":10025:10026   */\n  0x00\n    /* \"#utility.yul\":10018:10033   */\n  revert\n    /* \"contracts/Crowdfunding.sol\":57:4461  contract Crowdfunding {... */\ntag_16:\n  dataSize(sub_0)\n  dup1\n  dataOffset(sub_0)\n  0x00\n  codecopy\n  0x00\n  return\nstop\n\nsub_0: assembly {\n        /* \"contracts/Crowdfunding.sol\":57:4461  contract Crowdfunding {... */\n      mstore(0x40, 0x80)\n      jumpi(tag_1, lt(calldatasize, 0x04))\n      shr(0xe0, calldataload(0x00))\n      dup1\n      0x7284e416\n      gt\n      tag_22\n      jumpi\n      dup1\n      0xb85dfb80\n      gt\n      tag_23\n      jumpi\n      dup1\n      0xb85dfb80\n      eq\n      tag_17\n      jumpi\n      dup1\n      0xc19d93fb\n      eq\n      tag_18\n      jumpi\n      dup1\n      0xc4ae3168\n      eq\n      tag_19\n      jumpi\n      dup1\n      0xca1d209d\n      eq\n      tag_20\n      jumpi\n      dup1\n      0xde170570\n      eq\n      tag_21\n      jumpi\n      jump(tag_1)\n    tag_23:\n      dup1\n      0x7284e416\n      eq\n      tag_12\n      jumpi\n      dup1\n      0x7497211b\n      eq\n      tag_13\n      jumpi\n      dup1\n      0x7adba527\n      eq\n      tag_14\n      jumpi\n      dup1\n      0x8da5cb5b\n      eq\n      tag_15\n      jumpi\n      dup1\n      0x8ece7b91\n      eq\n      tag_16\n      jumpi\n      jump(tag_1)\n    tag_22:\n      dup1\n      0x3ccfd60b\n      gt\n      tag_24\n      jumpi\n      dup1\n      0x3ccfd60b\n      eq\n      tag_7\n      jumpi\n      dup1\n      0x40193883\n      eq\n      tag_8\n      jumpi\n      dup1\n      0x590e1ae3\n      eq\n      tag_9\n      jumpi\n      dup1\n      0x5c975abb\n      eq\n      tag_10\n      jumpi\n      dup1\n      0x6f9fb98a\n      eq\n      tag_11\n      jumpi\n      jump(tag_1)\n    tag_24:\n      dup1\n      0x039af9eb\n      eq\n      tag_2\n      jumpi\n      dup1\n      0x06fdde03\n      eq\n      tag_3\n      jumpi\n      dup1\n      0x10550515\n      eq\n      tag_4\n      jumpi\n      dup1\n      0x29dcb0cf\n      eq\n      tag_5\n      jumpi\n      dup1\n      0x389b7533\n      eq\n      tag_6\n      jumpi\n    tag_1:\n      0x00\n      dup1\n      revert\n        /* \"contracts/Crowdfunding.sol\":621:640  Tier[] public tiers */\n    tag_2:\n      callvalue\n      dup1\n      iszero\n      tag_25\n      jumpi\n      0x00\n      dup1\n      revert\n    tag_25:\n      pop\n      tag_26\n      0x04\n      dup1\n      calldatasize\n      sub\n      dup2\n      add\n      swap1\n      tag_27\n      swap2\n      swap1\n      tag_28\n      jump\t// in\n    tag_27:\n      tag_29\n      jump\t// in\n    tag_26:\n      mload(0x40)\n      tag_30\n      swap4\n      swap3\n      swap2\n      swap1\n      tag_31\n      jump\t// in\n    tag_30:\n      mload(0x40)\n      dup1\n      swap2\n      sub\n      swap1\n      return\n        /* \"contracts/Crowdfunding.sol\":85:103  string public name */\n    tag_3:\n      callvalue\n      dup1\n      iszero\n      tag_32\n      jumpi\n      0x00\n      dup1\n      revert\n    tag_32:\n      pop\n      tag_33\n      tag_34\n      jump\t// in\n    tag_33:\n      mload(0x40)\n      tag_35\n      swap2\n      swap1\n      tag_36\n      jump\t// in\n    tag_35:\n      mload(0x40)\n      dup1\n      swap2\n      sub\n      swap1\n      return\n        /* \"contracts/Crowdfunding.sol\":4052:4330  function getCampaignStatus() public view returns (CampaignState) {... */\n    tag_4:\n      callvalue\n      dup1\n      iszero\n      tag_37\n      jumpi\n      0x00\n      dup1\n      revert\n    tag_37:\n      pop\n      tag_38\n      tag_39\n      jump\t// in\n    tag_38:\n      mload(0x40)\n      tag_40\n      swap2\n      swap1\n      tag_41\n      jump\t// in\n    tag_40:\n      mload(0x40)\n      dup1\n      swap2\n      sub\n      swap1\n      return\n        /* \"contracts/Crowdfunding.sol\":165:188  uint256 public deadline */\n    tag_5:\n      callvalue\n      dup1\n      iszero\n      tag_42\n      jumpi\n      0x00\n      dup1\n      revert\n    tag_42:\n      pop\n      tag_43\n      tag_44\n      jump\t// in\n    tag_43:\n      mload(0x40)\n      tag_45\n      swap2\n      swap1\n      tag_46\n      jump\t// in\n    tag_45:\n      mload(0x40)\n      dup1\n      swap2\n      sub\n      swap1\n      return\n        /* \"contracts/Crowdfunding.sol\":4336:4458  function extendDeadline(uint256 _daysToAdd) public onlyOwner campaignOpen {... */\n    tag_6:\n      callvalue\n      dup1\n      iszero\n      tag_47\n      jumpi\n      0x00\n      dup1\n      revert\n    tag_47:\n      pop\n      tag_48\n      0x04\n      dup1\n      calldatasize\n      sub\n      dup2\n      add\n      swap1\n      tag_49\n      swap2\n      swap1\n      tag_28\n      jump\t// in\n    tag_49:\n      tag_50\n      jump\t// in\n    tag_48:\n      stop\n        /* \"contracts/Crowdfunding.sol\":2930:3240  function withdraw() public onlyOwner{... */\n    tag_7:\n      callvalue\n      dup1\n      iszero\n      tag_51\n      jumpi\n      0x00\n      dup1\n      revert\n    tag_51:\n      pop\n      tag_52\n      tag_53\n      jump\t// in\n    tag_52:\n      stop\n        /* \"contracts/Crowdfunding.sol\":140:159  uint256 public goal */\n    tag_8:\n      callvalue\n      dup1\n      iszero\n      tag_54\n      jumpi\n      0x00\n      dup1\n      revert\n    tag_54:\n      pop\n      tag_55\n      tag_56\n      jump\t// in\n    tag_55:\n      mload(0x40)\n      tag_57\n      swap2\n      swap1\n      tag_46\n      jump\t// in\n    tag_57:\n      mload(0x40)\n      dup1\n      swap2\n      sub\n      swap1\n      return\n        /* \"contracts/Crowdfunding.sol\":3358:3722  function refund() public {... */\n    tag_9:\n      callvalue\n      dup1\n      iszero\n      tag_58\n      jumpi\n      0x00\n      dup1\n      revert\n    tag_58:\n      pop\n      tag_59\n      tag_60\n      jump\t// in\n    tag_59:\n      stop\n        /* \"contracts/Crowdfunding.sol\":220:238  bool public paused */\n    tag_10:\n      callvalue\n      dup1\n      iszero\n      tag_61\n      jumpi\n      0x00\n      dup1\n      revert\n    tag_61:\n      pop\n      tag_62\n      tag_63\n      jump\t// in\n    tag_62:\n      mload(0x40)\n      tag_64\n      swap2\n      swap1\n      tag_65\n      jump\t// in\n    tag_64:\n      mload(0x40)\n      dup1\n      swap2\n      sub\n      swap1\n      return\n        /* \"contracts/Crowdfunding.sol\":3246:3352  function getContractBalance() public view returns(uint256)  {... */\n    tag_11:\n      callvalue\n      dup1\n      iszero\n      tag_66\n      jumpi\n      0x00\n      dup1\n      revert\n    tag_66:\n      pop\n      tag_67\n      tag_68\n      jump\t// in\n    tag_67:\n      mload(0x40)\n      tag_69\n      swap2\n      swap1\n      tag_46\n      jump\t// in\n    tag_69:\n      mload(0x40)\n      dup1\n      swap2\n      sub\n      swap1\n      return\n        /* \"contracts/Crowdfunding.sol\":109:134  string public description */\n    tag_12:\n      callvalue\n      dup1\n      iszero\n      tag_70\n      jumpi\n      0x00\n      dup1\n      revert\n    tag_70:\n      pop\n      tag_71\n      tag_72\n      jump\t// in\n    tag_71:\n      mload(0x40)\n      tag_73\n      swap2\n      swap1\n      tag_36\n      jump\t// in\n    tag_73:\n      mload(0x40)\n      dup1\n      swap2\n      sub\n      swap1\n      return\n        /* \"contracts/Crowdfunding.sol\":2732:2924  function removeTier(uint256 _index) public onlyOwner {... */\n    tag_13:\n      callvalue\n      dup1\n      iszero\n      tag_74\n      jumpi\n      0x00\n      dup1\n      revert\n    tag_74:\n      pop\n      tag_75\n      0x04\n      dup1\n      calldatasize\n      sub\n      dup2\n      add\n      swap1\n      tag_76\n      swap2\n      swap1\n      tag_28\n      jump\t// in\n    tag_76:\n      tag_77\n      jump\t// in\n    tag_75:\n      stop\n        /* \"contracts/Crowdfunding.sol\":3728:3878  function hasFundedTier(address _backer, uint256 _tierIndex) public view returns (bool){... */\n    tag_14:\n      callvalue\n      dup1\n      iszero\n      tag_78\n      jumpi\n      0x00\n      dup1\n      revert\n    tag_78:\n      pop\n      tag_79\n      0x04\n      dup1\n      calldatasize\n      sub\n      dup2\n      add\n      swap1\n      tag_80\n      swap2\n      swap1\n      tag_81\n      jump\t// in\n    tag_80:\n      tag_82\n      jump\t// in\n    tag_79:\n      mload(0x40)\n      tag_83\n      swap2\n      swap1\n      tag_65\n      jump\t// in\n    tag_83:\n      mload(0x40)\n      dup1\n      swap2\n      sub\n      swap1\n      return\n        /* \"contracts/Crowdfunding.sol\":194:214  address public owner */\n    tag_15:\n      callvalue\n      dup1\n      iszero\n      tag_84\n      jumpi\n      0x00\n      dup1\n      revert\n    tag_84:\n      pop\n      tag_85\n      tag_86\n      jump\t// in\n    tag_85:\n      mload(0x40)\n      tag_87\n      swap2\n      swap1\n      tag_88\n      jump\t// in\n    tag_87:\n      mload(0x40)\n      dup1\n      swap2\n      sub\n      swap1\n      return\n        /* \"contracts/Crowdfunding.sol\":2517:2726  function addTier(... */\n    tag_16:\n      callvalue\n      dup1\n      iszero\n      tag_89\n      jumpi\n      0x00\n      dup1\n      revert\n    tag_89:\n      pop\n      tag_90\n      0x04\n      dup1\n      calldatasize\n      sub\n      dup2\n      add\n      swap1\n      tag_91\n      swap2\n      swap1\n      tag_92\n      jump\t// in\n    tag_91:\n      tag_93\n      jump\t// in\n    tag_90:\n      stop\n        /* \"contracts/Crowdfunding.sol\":646:687  mapping(address => Backer) public backers */\n    tag_17:\n      callvalue\n      dup1\n      iszero\n      tag_94\n      jumpi\n      0x00\n      dup1\n      revert\n    tag_94:\n      pop\n      tag_95\n      0x04\n      dup1\n      calldatasize\n      sub\n      dup2\n      add\n      swap1\n      tag_96\n      swap2\n      swap1\n      tag_97\n      jump\t// in\n    tag_96:\n      tag_98\n      jump\t// in\n    tag_95:\n      mload(0x40)\n      tag_99\n      swap2\n      swap1\n      tag_46\n      jump\t// in\n    tag_99:\n      mload(0x40)\n      dup1\n      swap2\n      sub\n      swap1\n      return\n        /* \"contracts/Crowdfunding.sol\":296:322  CampaignState public state */\n    tag_18:\n      callvalue\n      dup1\n      iszero\n      tag_100\n      jumpi\n      0x00\n      dup1\n      revert\n    tag_100:\n      pop\n      tag_101\n      tag_102\n      jump\t// in\n    tag_101:\n      mload(0x40)\n      tag_103\n      swap2\n      swap1\n      tag_41\n      jump\t// in\n    tag_103:\n      mload(0x40)\n      dup1\n      swap2\n      sub\n      swap1\n      return\n        /* \"contracts/Crowdfunding.sol\":3974:4046  function togglePause() public onlyOwner{... */\n    tag_19:\n      callvalue\n      dup1\n      iszero\n      tag_104\n      jumpi\n      0x00\n      dup1\n      revert\n    tag_104:\n      pop\n      tag_105\n      tag_106\n      jump\t// in\n    tag_105:\n      stop\n        /* \"contracts/Crowdfunding.sol\":2054:2511  function fund(uint256 _tierIndex)public payable campaignOpen notPaused{... */\n    tag_20:\n      tag_107\n      0x04\n      dup1\n      calldatasize\n      sub\n      dup2\n      add\n      swap1\n      tag_108\n      swap2\n      swap1\n      tag_28\n      jump\t// in\n    tag_108:\n      tag_109\n      jump\t// in\n    tag_107:\n      stop\n        /* \"contracts/Crowdfunding.sol\":3884:3968  function getTiers() public view returns (Tier[] memory){... */\n    tag_21:\n      callvalue\n      dup1\n      iszero\n      tag_110\n      jumpi\n      0x00\n      dup1\n      revert\n    tag_110:\n      pop\n      tag_111\n      tag_112\n      jump\t// in\n    tag_111:\n      mload(0x40)\n      tag_113\n      swap2\n      swap1\n      tag_114\n      jump\t// in\n    tag_113:\n      mload(0x40)\n      dup1\n      swap2\n      sub\n      swap1\n      return\n        /* \"contracts/Crowdfunding.sol\":621:640  Tier[] public tiers */\n    tag_29:\n      0x05\n      dup2\n      dup2\n      sload\n      dup2\n      lt\n      tag_115\n      jumpi\n      0x00\n      dup1\n      revert\n    tag_115:\n      swap1\n      0x00\n      mstore\n      keccak256(0x00, 0x20)\n      swap1\n      0x03\n      mul\n      add\n      0x00\n      swap2\n      pop\n      swap1\n      pop\n      dup1\n      0x00\n      add\n      dup1\n      sload\n      tag_117\n      swap1\n      tag_118\n      jump\t// in\n    tag_117:\n      dup1\n      0x1f\n      add\n      0x20\n      dup1\n      swap2\n      div\n      mul\n      0x20\n      add\n      mload(0x40)\n      swap1\n      dup2\n      add\n      0x40\n      mstore\n      dup1\n      swap3\n      swap2\n      swap1\n      dup2\n      dup2\n      mstore\n      0x20\n      add\n      dup3\n      dup1\n      sload\n      tag_119\n      swap1\n      tag_118\n      jump\t// in\n    tag_119:\n      dup1\n      iszero\n      tag_120\n      jumpi\n      dup1\n      0x1f\n      lt\n      tag_121\n      jumpi\n      0x0100\n      dup1\n      dup4\n      sload\n      div\n      mul\n      dup4\n      mstore\n      swap2\n      0x20\n      add\n      swap2\n      jump(tag_120)\n    tag_121:\n      dup3\n      add\n      swap2\n      swap1\n      0x00\n      mstore\n      keccak256(0x00, 0x20)\n      swap1\n    tag_122:\n      dup2\n      sload\n      dup2\n      mstore\n      swap1\n      0x01\n      add\n      swap1\n      0x20\n      add\n      dup1\n      dup4\n      gt\n      tag_122\n      jumpi\n      dup3\n      swap1\n      sub\n      0x1f\n      and\n      dup3\n      add\n      swap2\n    tag_120:\n      pop\n      pop\n      pop\n      pop\n      pop\n      swap1\n      dup1\n      0x01\n      add\n      sload\n      swap1\n      dup1\n      0x02\n      add\n      sload\n      swap1\n      pop\n      dup4\n      jump\t// out\n        /* \"contracts/Crowdfunding.sol\":85:103  string public name */\n    tag_34:\n      0x00\n      dup1\n      sload\n      tag_123\n      swap1\n      tag_118\n      jump\t// in\n    tag_123:\n      dup1\n      0x1f\n      add\n      0x20\n      dup1\n      swap2\n      div\n      mul\n      0x20\n      add\n      mload(0x40)\n      swap1\n      dup2\n      add\n      0x40\n      mstore\n      dup1\n      swap3\n      swap2\n      swap1\n      dup2\n      dup2\n      mstore\n      0x20\n      add\n      dup3\n      dup1\n      sload\n      tag_124\n      swap1\n      tag_118\n      jump\t// in\n    tag_124:\n      dup1\n      iszero\n      tag_125\n      jumpi\n      dup1\n      0x1f\n      lt\n      tag_126\n      jumpi\n      0x0100\n      dup1\n      dup4\n      sload\n      div\n      mul\n      dup4\n      mstore\n      swap2\n      0x20\n      add\n      swap2\n      jump(tag_125)\n    tag_126:\n      dup3\n      add\n      swap2\n      swap1\n      0x00\n      mstore\n      keccak256(0x00, 0x20)\n      swap1\n    tag_127:\n      dup2\n      sload\n      dup2\n      mstore\n      swap1\n      0x01\n      add\n      swap1\n      0x20\n      add\n      dup1\n      dup4\n      gt\n      tag_127\n      jumpi\n      dup3\n      swap1\n      sub\n      0x1f\n      and\n      dup3\n      add\n      swap2\n    tag_125:\n      pop\n      pop\n      pop\n      pop\n      pop\n      dup2\n      jump\t// out\n        /* \"contracts/Crowdfunding.sol\":4052:4330  function getCampaignStatus() public view returns (CampaignState) {... */\n    tag_39:\n        /* \"contracts/Crowdfunding.sol\":4102:4115  CampaignState */\n      0x00\n        /* \"contracts/Crowdfunding.sol\":4140:4160  CampaignState.Active */\n      dup1\n        /* \"contracts/Crowdfunding.sol\":4131:4160  state == CampaignState.Active */\n      0x02\n      dup2\n      gt\n      iszero\n      tag_129\n      jumpi\n      tag_130\n      tag_131\n      jump\t// in\n    tag_130:\n    tag_129:\n        /* \"contracts/Crowdfunding.sol\":4131:4136  state */\n      0x04\n      0x15\n      swap1\n      sload\n      swap1\n      0x0100\n      exp\n      swap1\n      div\n      0xff\n      and\n        /* \"contracts/Crowdfunding.sol\":4131:4160  state == CampaignState.Active */\n      0x02\n      dup2\n      gt\n      iszero\n      tag_132\n      jumpi\n      tag_133\n      tag_131\n      jump\t// in\n    tag_133:\n    tag_132:\n      eq\n        /* \"contracts/Crowdfunding.sol\":4131:4190  state == CampaignState.Active && block.timestamp > deadline */\n      dup1\n      iszero\n      tag_134\n      jumpi\n      pop\n        /* \"contracts/Crowdfunding.sol\":4182:4190  deadline */\n      sload(0x03)\n        /* \"contracts/Crowdfunding.sol\":4164:4179  block.timestamp */\n      timestamp\n        /* \"contracts/Crowdfunding.sol\":4164:4190  block.timestamp > deadline */\n      gt\n        /* \"contracts/Crowdfunding.sol\":4131:4190  state == CampaignState.Active && block.timestamp > deadline */\n    tag_134:\n        /* \"contracts/Crowdfunding.sol\":4127:4302  if (state == CampaignState.Active && block.timestamp > deadline){... */\n      iszero\n      tag_135\n      jumpi\n        /* \"contracts/Crowdfunding.sol\":4237:4241  goal */\n      sload(0x02)\n        /* \"contracts/Crowdfunding.sol\":4212:4233  address(this).balance */\n      selfbalance\n        /* \"contracts/Crowdfunding.sol\":4212:4241  address(this).balance >= goal */\n      lt\n      iszero\n        /* \"contracts/Crowdfunding.sol\":4212:4291  address(this).balance >= goal ? CampaignState.Successful : CampaignState.Failed */\n      tag_136\n      jumpi\n        /* \"contracts/Crowdfunding.sol\":4271:4291  CampaignState.Failed */\n      0x02\n        /* \"contracts/Crowdfunding.sol\":4212:4291  address(this).balance >= goal ? CampaignState.Successful : CampaignState.Failed */\n      jump(tag_137)\n    tag_136:\n        /* \"contracts/Crowdfunding.sol\":4244:4268  CampaignState.Successful */\n      0x01\n        /* \"contracts/Crowdfunding.sol\":4212:4291  address(this).balance >= goal ? CampaignState.Successful : CampaignState.Failed */\n    tag_137:\n        /* \"contracts/Crowdfunding.sol\":4205:4291  return address(this).balance >= goal ? CampaignState.Successful : CampaignState.Failed */\n      swap1\n      pop\n      jump(tag_128)\n        /* \"contracts/Crowdfunding.sol\":4127:4302  if (state == CampaignState.Active && block.timestamp > deadline){... */\n    tag_135:\n        /* \"contracts/Crowdfunding.sol\":4318:4323  state */\n      0x04\n      0x15\n      swap1\n      sload\n      swap1\n      0x0100\n      exp\n      swap1\n      div\n      0xff\n      and\n        /* \"contracts/Crowdfunding.sol\":4311:4323  return state */\n      swap1\n      pop\n        /* \"contracts/Crowdfunding.sol\":4052:4330  function getCampaignStatus() public view returns (CampaignState) {... */\n    tag_128:\n      swap1\n      jump\t// out\n        /* \"contracts/Crowdfunding.sol\":165:188  uint256 public deadline */\n    tag_44:\n      sload(0x03)\n      dup2\n      jump\t// out\n        /* \"contracts/Crowdfunding.sol\":4336:4458  function extendDeadline(uint256 _daysToAdd) public onlyOwner campaignOpen {... */\n    tag_50:\n        /* \"contracts/Crowdfunding.sol\":746:751  owner */\n      0x04\n      0x00\n      swap1\n      sload\n      swap1\n      0x0100\n      exp\n      swap1\n      div\n      0xffffffffffffffffffffffffffffffffffffffff\n      and\n        /* \"contracts/Crowdfunding.sol\":732:751  msg.sender == owner */\n      0xffffffffffffffffffffffffffffffffffffffff\n      and\n        /* \"contracts/Crowdfunding.sol\":732:742  msg.sender */\n      caller\n        /* \"contracts/Crowdfunding.sol\":732:751  msg.sender == owner */\n      0xffffffffffffffffffffffffffffffffffffffff\n      and\n      eq\n        /* \"contracts/Crowdfunding.sol\":724:769  require(msg.sender == owner, \"Not the owner\") */\n      tag_139\n      jumpi\n      mload(0x40)\n      0x08c379a000000000000000000000000000000000000000000000000000000000\n      dup2\n      mstore\n      0x04\n      add\n      tag_140\n      swap1\n      tag_141\n      jump\t// in\n    tag_140:\n      mload(0x40)\n      dup1\n      swap2\n      sub\n      swap1\n      revert\n    tag_139:\n        /* \"contracts/Crowdfunding.sol\":846:866  CampaignState.Active */\n      0x00\n        /* \"contracts/Crowdfunding.sol\":837:866  state == CampaignState.Active */\n      0x02\n      dup2\n      gt\n      iszero\n      tag_143\n      jumpi\n      tag_144\n      tag_131\n      jump\t// in\n    tag_144:\n    tag_143:\n        /* \"contracts/Crowdfunding.sol\":837:842  state */\n      0x04\n      0x15\n      swap1\n      sload\n      swap1\n      0x0100\n      exp\n      swap1\n      div\n      0xff\n      and\n        /* \"contracts/Crowdfunding.sol\":837:866  state == CampaignState.Active */\n      0x02\n      dup2\n      gt\n      iszero\n      tag_145\n      jumpi\n      tag_146\n      tag_131\n      jump\t// in\n    tag_146:\n    tag_145:\n      eq\n        /* \"contracts/Crowdfunding.sol\":829:893  require(state == CampaignState.Active, \"Campaign is not active\") */\n      tag_147\n      jumpi\n      mload(0x40)\n      0x08c379a000000000000000000000000000000000000000000000000000000000\n      dup2\n      mstore\n      0x04\n      add\n      tag_148\n      swap1\n      tag_149\n      jump\t// in\n    tag_148:\n      mload(0x40)\n      dup1\n      swap2\n      sub\n      swap1\n      revert\n    tag_147:\n        /* \"contracts/Crowdfunding.sol\":4445:4451  1 days */\n      0x015180\n        /* \"contracts/Crowdfunding.sol\":4432:4442  _daysToAdd */\n      dup2\n        /* \"contracts/Crowdfunding.sol\":4432:4451  _daysToAdd * 1 days */\n      tag_151\n      swap2\n      swap1\n      tag_152\n      jump\t// in\n    tag_151:\n        /* \"contracts/Crowdfunding.sol\":4420:4428  deadline */\n      0x03\n      0x00\n        /* \"contracts/Crowdfunding.sol\":4420:4451  deadline += _daysToAdd * 1 days */\n      dup3\n      dup3\n      sload\n      tag_153\n      swap2\n      swap1\n      tag_154\n      jump\t// in\n    tag_153:\n      swap3\n      pop\n      pop\n      dup2\n      swap1\n      sstore\n      pop\n        /* \"contracts/Crowdfunding.sol\":4336:4458  function extendDeadline(uint256 _daysToAdd) public onlyOwner campaignOpen {... */\n      pop\n      jump\t// out\n        /* \"contracts/Crowdfunding.sol\":2930:3240  function withdraw() public onlyOwner{... */\n    tag_53:\n        /* \"contracts/Crowdfunding.sol\":746:751  owner */\n      0x04\n      0x00\n      swap1\n      sload\n      swap1\n      0x0100\n      exp\n      swap1\n      div\n      0xffffffffffffffffffffffffffffffffffffffff\n      and\n        /* \"contracts/Crowdfunding.sol\":732:751  msg.sender == owner */\n      0xffffffffffffffffffffffffffffffffffffffff\n      and\n        /* \"contracts/Crowdfunding.sol\":732:742  msg.sender */\n      caller\n        /* \"contracts/Crowdfunding.sol\":732:751  msg.sender == owner */\n      0xffffffffffffffffffffffffffffffffffffffff\n      and\n      eq\n        /* \"contracts/Crowdfunding.sol\":724:769  require(msg.sender == owner, \"Not the owner\") */\n      tag_156\n      jumpi\n      mload(0x40)\n      0x08c379a000000000000000000000000000000000000000000000000000000000\n      dup2\n      mstore\n      0x04\n      add\n      tag_157\n      swap1\n      tag_141\n      jump\t// in\n    tag_157:\n      mload(0x40)\n      dup1\n      swap2\n      sub\n      swap1\n      revert\n    tag_156:\n        /* \"contracts/Crowdfunding.sol\":2976:3005  checkAndUpdateCampaignState() */\n      tag_159\n        /* \"contracts/Crowdfunding.sol\":2976:3003  checkAndUpdateCampaignState */\n      tag_160\n        /* \"contracts/Crowdfunding.sol\":2976:3005  checkAndUpdateCampaignState() */\n      jump\t// in\n    tag_159:\n        /* \"contracts/Crowdfunding.sol\":3032:3056  CampaignState.Successful */\n      0x01\n        /* \"contracts/Crowdfunding.sol\":3023:3056  state == CampaignState.Successful */\n      0x02\n      dup2\n      gt\n      iszero\n      tag_161\n      jumpi\n      tag_162\n      tag_131\n      jump\t// in\n    tag_162:\n    tag_161:\n        /* \"contracts/Crowdfunding.sol\":3023:3028  state */\n      0x04\n      0x15\n      swap1\n      sload\n      swap1\n      0x0100\n      exp\n      swap1\n      div\n      0xff\n      and\n        /* \"contracts/Crowdfunding.sol\":3023:3056  state == CampaignState.Successful */\n      0x02\n      dup2\n      gt\n      iszero\n      tag_163\n      jumpi\n      tag_164\n      tag_131\n      jump\t// in\n    tag_164:\n    tag_163:\n      eq\n        /* \"contracts/Crowdfunding.sol\":3015:3084  require(state == CampaignState.Successful, \"Campaign not Successful\") */\n      tag_165\n      jumpi\n      mload(0x40)\n      0x08c379a000000000000000000000000000000000000000000000000000000000\n      dup2\n      mstore\n      0x04\n      add\n      tag_166\n      swap1\n      tag_167\n      jump\t// in\n    tag_166:\n      mload(0x40)\n      dup1\n      swap2\n      sub\n      swap1\n      revert\n    tag_165:\n        /* \"contracts/Crowdfunding.sol\":3095:3110  uint256 balance */\n      0x00\n        /* \"contracts/Crowdfunding.sol\":3113:3134  address(this).balance */\n      selfbalance\n        /* \"contracts/Crowdfunding.sol\":3095:3134  uint256 balance = address(this).balance */\n      swap1\n      pop\n        /* \"contracts/Crowdfunding.sol\":3162:3163  0 */\n      0x00\n        /* \"contracts/Crowdfunding.sol\":3152:3159  balance */\n      dup2\n        /* \"contracts/Crowdfunding.sol\":3152:3163  balance > 0 */\n      gt\n        /* \"contracts/Crowdfunding.sol\":3144:3190  require(balance > 0, \"No balance to withdraw\") */\n      tag_168\n      jumpi\n      mload(0x40)\n      0x08c379a000000000000000000000000000000000000000000000000000000000\n      dup2\n      mstore\n      0x04\n      add\n      tag_169\n      swap1\n      tag_170\n      jump\t// in\n    tag_169:\n      mload(0x40)\n      dup1\n      swap2\n      sub\n      swap1\n      revert\n    tag_168:\n        /* \"contracts/Crowdfunding.sol\":3209:3214  owner */\n      0x04\n      0x00\n      swap1\n      sload\n      swap1\n      0x0100\n      exp\n      swap1\n      div\n      0xffffffffffffffffffffffffffffffffffffffff\n      and\n        /* \"contracts/Crowdfunding.sol\":3201:3224  payable(owner).transfer */\n      0xffffffffffffffffffffffffffffffffffffffff\n      and\n        /* \"contracts/Crowdfunding.sol\":3201:3233  payable(owner).transfer(balance) */\n      0x08fc\n        /* \"contracts/Crowdfunding.sol\":3225:3232  balance */\n      dup3\n        /* \"contracts/Crowdfunding.sol\":3201:3233  payable(owner).transfer(balance) */\n      swap1\n      dup2\n      iszero\n      mul\n      swap1\n      mload(0x40)\n      0x00\n      mload(0x40)\n      dup1\n      dup4\n      sub\n      dup2\n      dup6\n      dup9\n      dup9\n      call\n      swap4\n      pop\n      pop\n      pop\n      pop\n      iszero\n      dup1\n      iszero\n      tag_172\n      jumpi\n      returndatasize\n      0x00\n      dup1\n      returndatacopy\n      revert(0x00, returndatasize)\n    tag_172:\n      pop\n        /* \"contracts/Crowdfunding.sol\":2966:3240  {... */\n      pop\n        /* \"contracts/Crowdfunding.sol\":2930:3240  function withdraw() public onlyOwner{... */\n      jump\t// out\n        /* \"contracts/Crowdfunding.sol\":140:159  uint256 public goal */\n    tag_56:\n      sload(0x02)\n      dup2\n      jump\t// out\n        /* \"contracts/Crowdfunding.sol\":3358:3722  function refund() public {... */\n    tag_60:\n        /* \"contracts/Crowdfunding.sol\":3393:3422  checkAndUpdateCampaignState() */\n      tag_174\n        /* \"contracts/Crowdfunding.sol\":3393:3420  checkAndUpdateCampaignState */\n      tag_160\n        /* \"contracts/Crowdfunding.sol\":3393:3422  checkAndUpdateCampaignState() */\n      jump\t// in\n    tag_174:\n        /* \"contracts/Crowdfunding.sol\":3449:3469  CampaignState.Failed */\n      0x02\n        /* \"contracts/Crowdfunding.sol\":3440:3469  state == CampaignState.Failed */\n      dup1\n      dup2\n      gt\n      iszero\n      tag_175\n      jumpi\n      tag_176\n      tag_131\n      jump\t// in\n    tag_176:\n    tag_175:\n        /* \"contracts/Crowdfunding.sol\":3440:3445  state */\n      0x04\n      0x15\n      swap1\n      sload\n      swap1\n      0x0100\n      exp\n      swap1\n      div\n      0xff\n      and\n        /* \"contracts/Crowdfunding.sol\":3440:3469  state == CampaignState.Failed */\n      0x02\n      dup2\n      gt\n      iszero\n      tag_177\n      jumpi\n      tag_178\n      tag_131\n      jump\t// in\n    tag_178:\n    tag_177:\n      eq\n        /* \"contracts/Crowdfunding.sol\":3432:3495  require(state == CampaignState.Failed, \"Refunds not available\") */\n      tag_179\n      jumpi\n      mload(0x40)\n      0x08c379a000000000000000000000000000000000000000000000000000000000\n      dup2\n      mstore\n      0x04\n      add\n      tag_180\n      swap1\n      tag_181\n      jump\t// in\n    tag_180:\n      mload(0x40)\n      dup1\n      swap2\n      sub\n      swap1\n      revert\n    tag_179:\n        /* \"contracts/Crowdfunding.sol\":3505:3519  uint256 amount */\n      0x00\n        /* \"contracts/Crowdfunding.sol\":3522:3529  backers */\n      0x06\n        /* \"contracts/Crowdfunding.sol\":3522:3541  backers[msg.sender] */\n      0x00\n        /* \"contracts/Crowdfunding.sol\":3530:3540  msg.sender */\n      caller\n        /* \"contracts/Crowdfunding.sol\":3522:3541  backers[msg.sender] */\n      0xffffffffffffffffffffffffffffffffffffffff\n      and\n      0xffffffffffffffffffffffffffffffffffffffff\n      and\n      dup2\n      mstore\n      0x20\n      add\n      swap1\n      dup2\n      mstore\n      0x20\n      add\n      0x00\n      keccak256\n        /* \"contracts/Crowdfunding.sol\":3522:3559  backers[msg.sender].totalContribution */\n      0x00\n      add\n      sload\n        /* \"contracts/Crowdfunding.sol\":3505:3559  uint256 amount = backers[msg.sender].totalContribution */\n      swap1\n      pop\n        /* \"contracts/Crowdfunding.sol\":3586:3587  0 */\n      0x00\n        /* \"contracts/Crowdfunding.sol\":3577:3583  amount */\n      dup2\n        /* \"contracts/Crowdfunding.sol\":3577:3587  amount > 0 */\n      gt\n        /* \"contracts/Crowdfunding.sol\":3569:3617  require(amount > 0, \"No contribution to refund\") */\n      tag_182\n      jumpi\n      mload(0x40)\n      0x08c379a000000000000000000000000000000000000000000000000000000000\n      dup2\n      mstore\n      0x04\n      add\n      tag_183\n      swap1\n      tag_184\n      jump\t// in\n    tag_183:\n      mload(0x40)\n      dup1\n      swap2\n      sub\n      swap1\n      revert\n    tag_182:\n        /* \"contracts/Crowdfunding.sol\":3668:3669  0 */\n      0x00\n        /* \"contracts/Crowdfunding.sol\":3628:3635  backers */\n      0x06\n        /* \"contracts/Crowdfunding.sol\":3628:3647  backers[msg.sender] */\n      0x00\n        /* \"contracts/Crowdfunding.sol\":3636:3646  msg.sender */\n      caller\n        /* \"contracts/Crowdfunding.sol\":3628:3647  backers[msg.sender] */\n      0xffffffffffffffffffffffffffffffffffffffff\n      and\n      0xffffffffffffffffffffffffffffffffffffffff\n      and\n      dup2\n      mstore\n      0x20\n      add\n      swap1\n      dup2\n      mstore\n      0x20\n      add\n      0x00\n      keccak256\n        /* \"contracts/Crowdfunding.sol\":3628:3665  backers[msg.sender].totalContribution */\n      0x00\n      add\n        /* \"contracts/Crowdfunding.sol\":3628:3669  backers[msg.sender].totalContribution = 0 */\n      dup2\n      swap1\n      sstore\n      pop\n        /* \"contracts/Crowdfunding.sol\":3687:3697  msg.sender */\n      caller\n        /* \"contracts/Crowdfunding.sol\":3679:3707  payable(msg.sender).transfer */\n      0xffffffffffffffffffffffffffffffffffffffff\n      and\n        /* \"contracts/Crowdfunding.sol\":3679:3715  payable(msg.sender).transfer(amount) */\n      0x08fc\n        /* \"contracts/Crowdfunding.sol\":3708:3714  amount */\n      dup3\n        /* \"contracts/Crowdfunding.sol\":3679:3715  payable(msg.sender).transfer(amount) */\n      swap1\n      dup2\n      iszero\n      mul\n      swap1\n      mload(0x40)\n      0x00\n      mload(0x40)\n      dup1\n      dup4\n      sub\n      dup2\n      dup6\n      dup9\n      dup9\n      call\n      swap4\n      pop\n      pop\n      pop\n      pop\n      iszero\n      dup1\n      iszero\n      tag_186\n      jumpi\n      returndatasize\n      0x00\n      dup1\n      returndatacopy\n      revert(0x00, returndatasize)\n    tag_186:\n      pop\n        /* \"contracts/Crowdfunding.sol\":3383:3722  {... */\n      pop\n        /* \"contracts/Crowdfunding.sol\":3358:3722  function refund() public {... */\n      jump\t// out\n        /* \"contracts/Crowdfunding.sol\":220:238  bool public paused */\n    tag_63:\n      0x04\n      0x14\n      swap1\n      sload\n      swap1\n      0x0100\n      exp\n      swap1\n      div\n      0xff\n      and\n      dup2\n      jump\t// out\n        /* \"contracts/Crowdfunding.sol\":3246:3352  function getContractBalance() public view returns(uint256)  {... */\n    tag_68:\n        /* \"contracts/Crowdfunding.sol\":3296:3303  uint256 */\n      0x00\n        /* \"contracts/Crowdfunding.sol\":3323:3344  address(this).balance */\n      selfbalance\n        /* \"contracts/Crowdfunding.sol\":3316:3344  return address(this).balance */\n      swap1\n      pop\n        /* \"contracts/Crowdfunding.sol\":3246:3352  function getContractBalance() public view returns(uint256)  {... */\n      swap1\n      jump\t// out\n        /* \"contracts/Crowdfunding.sol\":109:134  string public description */\n    tag_72:\n      0x01\n      dup1\n      sload\n      tag_188\n      swap1\n      tag_118\n      jump\t// in\n    tag_188:\n      dup1\n      0x1f\n      add\n      0x20\n      dup1\n      swap2\n      div\n      mul\n      0x20\n      add\n      mload(0x40)\n      swap1\n      dup2\n      add\n      0x40\n      mstore\n      dup1\n      swap3\n      swap2\n      swap1\n      dup2\n      dup2\n      mstore\n      0x20\n      add\n      dup3\n      dup1\n      sload\n      tag_189\n      swap1\n      tag_118\n      jump\t// in\n    tag_189:\n      dup1\n      iszero\n      tag_190\n      jumpi\n      dup1\n      0x1f\n      lt\n      tag_191\n      jumpi\n      0x0100\n      dup1\n      dup4\n      sload\n      div\n      mul\n      dup4\n      mstore\n      swap2\n      0x20\n      add\n      swap2\n      jump(tag_190)\n    tag_191:\n      dup3\n      add\n      swap2\n      swap1\n      0x00\n      mstore\n      keccak256(0x00, 0x20)\n      swap1\n    tag_192:\n      dup2\n      sload\n      dup2\n      mstore\n      swap1\n      0x01\n      add\n      swap1\n      0x20\n      add\n      dup1\n      dup4\n      gt\n      tag_192\n      jumpi\n      dup3\n      swap1\n      sub\n      0x1f\n      and\n      dup3\n      add\n      swap2\n    tag_190:\n      pop\n      pop\n      pop\n      pop\n      pop\n      dup2\n      jump\t// out\n        /* \"contracts/Crowdfunding.sol\":2732:2924  function removeTier(uint256 _index) public onlyOwner {... */\n    tag_77:\n        /* \"contracts/Crowdfunding.sol\":746:751  owner */\n      0x04\n      0x00\n      swap1\n      sload\n      swap1\n      0x0100\n      exp\n      swap1\n      div\n      0xffffffffffffffffffffffffffffffffffffffff\n      and\n        /* \"contracts/Crowdfunding.sol\":732:751  msg.sender == owner */\n      0xffffffffffffffffffffffffffffffffffffffff\n      and\n        /* \"contracts/Crowdfunding.sol\":732:742  msg.sender */\n      caller\n        /* \"contracts/Crowdfunding.sol\":732:751  msg.sender == owner */\n      0xffffffffffffffffffffffffffffffffffffffff\n      and\n      eq\n        /* \"contracts/Crowdfunding.sol\":724:769  require(msg.sender == owner, \"Not the owner\") */\n      tag_194\n      jumpi\n      mload(0x40)\n      0x08c379a000000000000000000000000000000000000000000000000000000000\n      dup2\n      mstore\n      0x04\n      add\n      tag_195\n      swap1\n      tag_141\n      jump\t// in\n    tag_195:\n      mload(0x40)\n      dup1\n      swap2\n      sub\n      swap1\n      revert\n    tag_194:\n        /* \"contracts/Crowdfunding.sol\":2812:2817  tiers */\n      0x05\n        /* \"contracts/Crowdfunding.sol\":2812:2824  tiers.length */\n      dup1\n      sload\n      swap1\n      pop\n        /* \"contracts/Crowdfunding.sol\":2803:2809  _index */\n      dup2\n        /* \"contracts/Crowdfunding.sol\":2803:2824  _index < tiers.length */\n      lt\n        /* \"contracts/Crowdfunding.sol\":2795:2848  require(_index < tiers.length, \"Tier does not exist\") */\n      tag_197\n      jumpi\n      mload(0x40)\n      0x08c379a000000000000000000000000000000000000000000000000000000000\n      dup2\n      mstore\n      0x04\n      add\n      tag_198\n      swap1\n      tag_199\n      jump\t// in\n    tag_198:\n      mload(0x40)\n      dup1\n      swap2\n      sub\n      swap1\n      revert\n    tag_197:\n        /* \"contracts/Crowdfunding.sol\":2874:2879  tiers */\n      0x05\n        /* \"contracts/Crowdfunding.sol\":2894:2895  1 */\n      0x01\n        /* \"contracts/Crowdfunding.sol\":2880:2885  tiers */\n      0x05\n        /* \"contracts/Crowdfunding.sol\":2880:2892  tiers.length */\n      dup1\n      sload\n      swap1\n      pop\n        /* \"contracts/Crowdfunding.sol\":2880:2895  tiers.length -1 */\n      tag_200\n      swap2\n      swap1\n      tag_201\n      jump\t// in\n    tag_200:\n        /* \"contracts/Crowdfunding.sol\":2874:2896  tiers[tiers.length -1] */\n      dup2\n      sload\n      dup2\n      lt\n      tag_202\n      jumpi\n      tag_203\n      tag_204\n      jump\t// in\n    tag_203:\n    tag_202:\n      swap1\n      0x00\n      mstore\n      keccak256(0x00, 0x20)\n      swap1\n      0x03\n      mul\n      add\n        /* \"contracts/Crowdfunding.sol\":2858:2863  tiers */\n      0x05\n        /* \"contracts/Crowdfunding.sol\":2864:2870  _index */\n      dup3\n        /* \"contracts/Crowdfunding.sol\":2858:2871  tiers[_index] */\n      dup2\n      sload\n      dup2\n      lt\n      tag_206\n      jumpi\n      tag_207\n      tag_204\n      jump\t// in\n    tag_207:\n    tag_206:\n      swap1\n      0x00\n      mstore\n      keccak256(0x00, 0x20)\n      swap1\n      0x03\n      mul\n      add\n        /* \"contracts/Crowdfunding.sol\":2858:2896  tiers[_index] = tiers[tiers.length -1] */\n      0x00\n      dup3\n      add\n      dup2\n      0x00\n      add\n      swap1\n      dup2\n      tag_209\n      swap2\n      swap1\n      tag_210\n      jump\t// in\n    tag_209:\n      pop\n      0x01\n      dup3\n      add\n      sload\n      dup2\n      0x01\n      add\n      sstore\n      0x02\n      dup3\n      add\n      sload\n      dup2\n      0x02\n      add\n      sstore\n      swap1\n      pop\n      pop\n        /* \"contracts/Crowdfunding.sol\":2906:2911  tiers */\n      0x05\n        /* \"contracts/Crowdfunding.sol\":2906:2917  tiers.pop() */\n      dup1\n      sload\n      dup1\n      tag_211\n      jumpi\n      tag_212\n      tag_213\n      jump\t// in\n    tag_212:\n    tag_211:\n      0x01\n      swap1\n      sub\n      dup2\n      dup2\n      swap1\n      0x00\n      mstore\n      keccak256(0x00, 0x20)\n      swap1\n      0x03\n      mul\n      add\n      0x00\n      dup1\n      dup3\n      add\n      0x00\n      tag_215\n      swap2\n      swap1\n      tag_216\n      jump\t// in\n    tag_215:\n      0x01\n      dup3\n      add\n      0x00\n      swap1\n      sstore\n      0x02\n      dup3\n      add\n      0x00\n      swap1\n      sstore\n      pop\n      pop\n      swap1\n      sstore\n        /* \"contracts/Crowdfunding.sol\":2732:2924  function removeTier(uint256 _index) public onlyOwner {... */\n      pop\n      jump\t// out\n        /* \"contracts/Crowdfunding.sol\":3728:3878  function hasFundedTier(address _backer, uint256 _tierIndex) public view returns (bool){... */\n    tag_82:\n        /* \"contracts/Crowdfunding.sol\":3809:3813  bool */\n      0x00\n        /* \"contracts/Crowdfunding.sol\":3831:3838  backers */\n      0x06\n        /* \"contracts/Crowdfunding.sol\":3831:3847  backers[_backer] */\n      0x00\n        /* \"contracts/Crowdfunding.sol\":3839:3846  _backer */\n      dup5\n        /* \"contracts/Crowdfunding.sol\":3831:3847  backers[_backer] */\n      0xffffffffffffffffffffffffffffffffffffffff\n      and\n      0xffffffffffffffffffffffffffffffffffffffff\n      and\n      dup2\n      mstore\n      0x20\n      add\n      swap1\n      dup2\n      mstore\n      0x20\n      add\n      0x00\n      keccak256\n        /* \"contracts/Crowdfunding.sol\":3831:3859  backers[_backer].fundedTiers */\n      0x01\n      add\n        /* \"contracts/Crowdfunding.sol\":3831:3871  backers[_backer].fundedTiers[_tierIndex] */\n      0x00\n        /* \"contracts/Crowdfunding.sol\":3860:3870  _tierIndex */\n      dup4\n        /* \"contracts/Crowdfunding.sol\":3831:3871  backers[_backer].fundedTiers[_tierIndex] */\n      dup2\n      mstore\n      0x20\n      add\n      swap1\n      dup2\n      mstore\n      0x20\n      add\n      0x00\n      keccak256\n      0x00\n      swap1\n      sload\n      swap1\n      0x0100\n      exp\n      swap1\n      div\n      0xff\n      and\n        /* \"contracts/Crowdfunding.sol\":3824:3871  return backers[_backer].fundedTiers[_tierIndex] */\n      swap1\n      pop\n        /* \"contracts/Crowdfunding.sol\":3728:3878  function hasFundedTier(address _backer, uint256 _tierIndex) public view returns (bool){... */\n      swap3\n      swap2\n      pop\n      pop\n      jump\t// out\n        /* \"contracts/Crowdfunding.sol\":194:214  address public owner */\n    tag_86:\n      0x04\n      0x00\n      swap1\n      sload\n      swap1\n      0x0100\n      exp\n      swap1\n      div\n      0xffffffffffffffffffffffffffffffffffffffff\n      and\n      dup2\n      jump\t// out\n        /* \"contracts/Crowdfunding.sol\":2517:2726  function addTier(... */\n    tag_93:\n        /* \"contracts/Crowdfunding.sol\":746:751  owner */\n      0x04\n      0x00\n      swap1\n      sload\n      swap1\n      0x0100\n      exp\n      swap1\n      div\n      0xffffffffffffffffffffffffffffffffffffffff\n      and\n        /* \"contracts/Crowdfunding.sol\":732:751  msg.sender == owner */\n      0xffffffffffffffffffffffffffffffffffffffff\n      and\n        /* \"contracts/Crowdfunding.sol\":732:742  msg.sender */\n      caller\n        /* \"contracts/Crowdfunding.sol\":732:751  msg.sender == owner */\n      0xffffffffffffffffffffffffffffffffffffffff\n      and\n      eq\n        /* \"contracts/Crowdfunding.sol\":724:769  require(msg.sender == owner, \"Not the owner\") */\n      tag_219\n      jumpi\n      mload(0x40)\n      0x08c379a000000000000000000000000000000000000000000000000000000000\n      dup2\n      mstore\n      0x04\n      add\n      tag_220\n      swap1\n      tag_141\n      jump\t// in\n    tag_220:\n      mload(0x40)\n      dup1\n      swap2\n      sub\n      swap1\n      revert\n    tag_219:\n        /* \"contracts/Crowdfunding.sol\":2638:2639  0 */\n      0x00\n        /* \"contracts/Crowdfunding.sol\":2628:2635  _amount */\n      dup2\n        /* \"contracts/Crowdfunding.sol\":2628:2639  _amount > 0 */\n      gt\n        /* \"contracts/Crowdfunding.sol\":2620:2674  require(_amount > 0, \"Amount must be greater than 0.\") */\n      tag_222\n      jumpi\n      mload(0x40)\n      0x08c379a000000000000000000000000000000000000000000000000000000000\n      dup2\n      mstore\n      0x04\n      add\n      tag_223\n      swap1\n      tag_224\n      jump\t// in\n    tag_223:\n      mload(0x40)\n      dup1\n      swap2\n      sub\n      swap1\n      revert\n    tag_222:\n        /* \"contracts/Crowdfunding.sol\":2684:2689  tiers */\n      0x05\n        /* \"contracts/Crowdfunding.sol\":2695:2718  Tier(_name, _amount, 0) */\n      mload(0x40)\n      dup1\n      0x60\n      add\n      0x40\n      mstore\n      dup1\n        /* \"contracts/Crowdfunding.sol\":2700:2705  _name */\n      dup5\n        /* \"contracts/Crowdfunding.sol\":2695:2718  Tier(_name, _amount, 0) */\n      dup2\n      mstore\n      0x20\n      add\n        /* \"contracts/Crowdfunding.sol\":2707:2714  _amount */\n      dup4\n        /* \"contracts/Crowdfunding.sol\":2695:2718  Tier(_name, _amount, 0) */\n      dup2\n      mstore\n      0x20\n      add\n        /* \"contracts/Crowdfunding.sol\":2716:2717  0 */\n      0x00\n        /* \"contracts/Crowdfunding.sol\":2695:2718  Tier(_name, _amount, 0) */\n      dup2\n      mstore\n      pop\n        /* \"contracts/Crowdfunding.sol\":2684:2719  tiers.push(Tier(_name, _amount, 0)) */\n      swap1\n      dup1\n      0x01\n      dup2\n      sload\n      add\n      dup1\n      dup3\n      sstore\n      dup1\n      swap2\n      pop\n      pop\n      0x01\n      swap1\n      sub\n      swap1\n      0x00\n      mstore\n      keccak256(0x00, 0x20)\n      swap1\n      0x03\n      mul\n      add\n      0x00\n      swap1\n      swap2\n      swap1\n      swap2\n      swap1\n      swap2\n      pop\n      0x00\n      dup3\n      add\n      mload\n      dup2\n      0x00\n      add\n      swap1\n      dup2\n      tag_226\n      swap2\n      swap1\n      tag_227\n      jump\t// in\n    tag_226:\n      pop\n      0x20\n      dup3\n      add\n      mload\n      dup2\n      0x01\n      add\n      sstore\n      0x40\n      dup3\n      add\n      mload\n      dup2\n      0x02\n      add\n      sstore\n      pop\n      pop\n        /* \"contracts/Crowdfunding.sol\":2517:2726  function addTier(... */\n      pop\n      pop\n      jump\t// out\n        /* \"contracts/Crowdfunding.sol\":646:687  mapping(address => Backer) public backers */\n    tag_98:\n      mstore(0x20, 0x06)\n      dup1\n      0x00\n      mstore\n      keccak256(0x00, 0x40)\n      0x00\n      swap2\n      pop\n      swap1\n      pop\n      dup1\n      0x00\n      add\n      sload\n      swap1\n      pop\n      dup2\n      jump\t// out\n        /* \"contracts/Crowdfunding.sol\":296:322  CampaignState public state */\n    tag_102:\n      0x04\n      0x15\n      swap1\n      sload\n      swap1\n      0x0100\n      exp\n      swap1\n      div\n      0xff\n      and\n      dup2\n      jump\t// out\n        /* \"contracts/Crowdfunding.sol\":3974:4046  function togglePause() public onlyOwner{... */\n    tag_106:\n        /* \"contracts/Crowdfunding.sol\":746:751  owner */\n      0x04\n      0x00\n      swap1\n      sload\n      swap1\n      0x0100\n      exp\n      swap1\n      div\n      0xffffffffffffffffffffffffffffffffffffffff\n      and\n        /* \"contracts/Crowdfunding.sol\":732:751  msg.sender == owner */\n      0xffffffffffffffffffffffffffffffffffffffff\n      and\n        /* \"contracts/Crowdfunding.sol\":732:742  msg.sender */\n      caller\n        /* \"contracts/Crowdfunding.sol\":732:751  msg.sender == owner */\n      0xffffffffffffffffffffffffffffffffffffffff\n      and\n      eq\n        /* \"contracts/Crowdfunding.sol\":724:769  require(msg.sender == owner, \"Not the owner\") */\n      tag_229\n      jumpi\n      mload(0x40)\n      0x08c379a000000000000000000000000000000000000000000000000000000000\n      dup2\n      mstore\n      0x04\n      add\n      tag_230\n      swap1\n      tag_141\n      jump\t// in\n    tag_230:\n      mload(0x40)\n      dup1\n      swap2\n      sub\n      swap1\n      revert\n    tag_229:\n        /* \"contracts/Crowdfunding.sol\":4033:4039  paused */\n      0x04\n      0x14\n      swap1\n      sload\n      swap1\n      0x0100\n      exp\n      swap1\n      div\n      0xff\n      and\n        /* \"contracts/Crowdfunding.sol\":4032:4039  !paused */\n      iszero\n        /* \"contracts/Crowdfunding.sol\":4023:4029  paused */\n      0x04\n      0x14\n        /* \"contracts/Crowdfunding.sol\":4023:4039  paused = !paused */\n      0x0100\n      exp\n      dup2\n      sload\n      dup2\n      0xff\n      mul\n      not\n      and\n      swap1\n      dup4\n      iszero\n      iszero\n      mul\n      or\n      swap1\n      sstore\n      pop\n        /* \"contracts/Crowdfunding.sol\":3974:4046  function togglePause() public onlyOwner{... */\n      jump\t// out\n        /* \"contracts/Crowdfunding.sol\":2054:2511  function fund(uint256 _tierIndex)public payable campaignOpen notPaused{... */\n    tag_109:\n        /* \"contracts/Crowdfunding.sol\":846:866  CampaignState.Active */\n      0x00\n        /* \"contracts/Crowdfunding.sol\":837:866  state == CampaignState.Active */\n      0x02\n      dup2\n      gt\n      iszero\n      tag_233\n      jumpi\n      tag_234\n      tag_131\n      jump\t// in\n    tag_234:\n    tag_233:\n        /* \"contracts/Crowdfunding.sol\":837:842  state */\n      0x04\n      0x15\n      swap1\n      sload\n      swap1\n      0x0100\n      exp\n      swap1\n      div\n      0xff\n      and\n        /* \"contracts/Crowdfunding.sol\":837:866  state == CampaignState.Active */\n      0x02\n      dup2\n      gt\n      iszero\n      tag_235\n      jumpi\n      tag_236\n      tag_131\n      jump\t// in\n    tag_236:\n    tag_235:\n      eq\n        /* \"contracts/Crowdfunding.sol\":829:893  require(state == CampaignState.Active, \"Campaign is not active\") */\n      tag_237\n      jumpi\n      mload(0x40)\n      0x08c379a000000000000000000000000000000000000000000000000000000000\n      dup2\n      mstore\n      0x04\n      add\n      tag_238\n      swap1\n      tag_149\n      jump\t// in\n    tag_238:\n      mload(0x40)\n      dup1\n      swap2\n      sub\n      swap1\n      revert\n    tag_237:\n        /* \"contracts/Crowdfunding.sol\":956:962  paused */\n      0x04\n      0x14\n      swap1\n      sload\n      swap1\n      0x0100\n      exp\n      swap1\n      div\n      0xff\n      and\n        /* \"contracts/Crowdfunding.sol\":955:962  !paused */\n      iszero\n        /* \"contracts/Crowdfunding.sol\":947:986  require(!paused, \"Contract is paused.\") */\n      tag_240\n      jumpi\n      mload(0x40)\n      0x08c379a000000000000000000000000000000000000000000000000000000000\n      dup2\n      mstore\n      0x04\n      add\n      tag_241\n      swap1\n      tag_242\n      jump\t// in\n    tag_241:\n      mload(0x40)\n      dup1\n      swap2\n      sub\n      swap1\n      revert\n    tag_240:\n        /* \"contracts/Crowdfunding.sol\":2155:2160  tiers */\n      0x05\n        /* \"contracts/Crowdfunding.sol\":2155:2167  tiers.length */\n      dup1\n      sload\n      swap1\n      pop\n        /* \"contracts/Crowdfunding.sol\":2142:2152  _tierIndex */\n      dup2\n        /* \"contracts/Crowdfunding.sol\":2142:2167  _tierIndex < tiers.length */\n      lt\n        /* \"contracts/Crowdfunding.sol\":2134:2184  require(_tierIndex < tiers.length, \"Invalid tier\") */\n      tag_244\n      jumpi\n      mload(0x40)\n      0x08c379a000000000000000000000000000000000000000000000000000000000\n      dup2\n      mstore\n      0x04\n      add\n      tag_245\n      swap1\n      tag_246\n      jump\t// in\n    tag_245:\n      mload(0x40)\n      dup1\n      swap2\n      sub\n      swap1\n      revert\n    tag_244:\n        /* \"contracts/Crowdfunding.sol\":2215:2220  tiers */\n      0x05\n        /* \"contracts/Crowdfunding.sol\":2221:2231  _tierIndex */\n      dup2\n        /* \"contracts/Crowdfunding.sol\":2215:2232  tiers[_tierIndex] */\n      dup2\n      sload\n      dup2\n      lt\n      tag_247\n      jumpi\n      tag_248\n      tag_204\n      jump\t// in\n    tag_248:\n    tag_247:\n      swap1\n      0x00\n      mstore\n      keccak256(0x00, 0x20)\n      swap1\n      0x03\n      mul\n      add\n        /* \"contracts/Crowdfunding.sol\":2215:2239  tiers[_tierIndex].amount */\n      0x01\n      add\n      sload\n        /* \"contracts/Crowdfunding.sol\":2202:2211  msg.value */\n      callvalue\n        /* \"contracts/Crowdfunding.sol\":2202:2239  msg.value == tiers[_tierIndex].amount */\n      eq\n        /* \"contracts/Crowdfunding.sol\":2194:2260  require(msg.value == tiers[_tierIndex].amount, \"Incorrect amount\") */\n      tag_250\n      jumpi\n      mload(0x40)\n      0x08c379a000000000000000000000000000000000000000000000000000000000\n      dup2\n      mstore\n      0x04\n      add\n      tag_251\n      swap1\n      tag_252\n      jump\t// in\n    tag_251:\n      mload(0x40)\n      dup1\n      swap2\n      sub\n      swap1\n      revert\n    tag_250:\n        /* \"contracts/Crowdfunding.sol\":2316:2321  tiers */\n      0x05\n        /* \"contracts/Crowdfunding.sol\":2322:2332  _tierIndex */\n      dup2\n        /* \"contracts/Crowdfunding.sol\":2316:2333  tiers[_tierIndex] */\n      dup2\n      sload\n      dup2\n      lt\n      tag_253\n      jumpi\n      tag_254\n      tag_204\n      jump\t// in\n    tag_254:\n    tag_253:\n      swap1\n      0x00\n      mstore\n      keccak256(0x00, 0x20)\n      swap1\n      0x03\n      mul\n      add\n        /* \"contracts/Crowdfunding.sol\":2316:2341  tiers[_tierIndex].backers */\n      0x02\n      add\n      0x00\n        /* \"contracts/Crowdfunding.sol\":2316:2343  tiers[_tierIndex].backers++ */\n      dup2\n      sload\n      dup1\n      swap3\n      swap2\n      swap1\n      tag_256\n      swap1\n      tag_257\n      jump\t// in\n    tag_256:\n      swap2\n      swap1\n      pop\n      sstore\n      pop\n        /* \"contracts/Crowdfunding.sol\":2394:2403  msg.value */\n      callvalue\n        /* \"contracts/Crowdfunding.sol\":2353:2360  backers */\n      0x06\n        /* \"contracts/Crowdfunding.sol\":2353:2372  backers[msg.sender] */\n      0x00\n        /* \"contracts/Crowdfunding.sol\":2361:2371  msg.sender */\n      caller\n        /* \"contracts/Crowdfunding.sol\":2353:2372  backers[msg.sender] */\n      0xffffffffffffffffffffffffffffffffffffffff\n      and\n      0xffffffffffffffffffffffffffffffffffffffff\n      and\n      dup2\n      mstore\n      0x20\n      add\n      swap1\n      dup2\n      mstore\n      0x20\n      add\n      0x00\n      keccak256\n        /* \"contracts/Crowdfunding.sol\":2353:2390  backers[msg.sender].totalContribution */\n      0x00\n      add\n      0x00\n        /* \"contracts/Crowdfunding.sol\":2353:2403  backers[msg.sender].totalContribution += msg.value */\n      dup3\n      dup3\n      sload\n      tag_258\n      swap2\n      swap1\n      tag_154\n      jump\t// in\n    tag_258:\n      swap3\n      pop\n      pop\n      dup2\n      swap1\n      sstore\n      pop\n        /* \"contracts/Crowdfunding.sol\":2459:2463  true */\n      0x01\n        /* \"contracts/Crowdfunding.sol\":2413:2420  backers */\n      0x06\n        /* \"contracts/Crowdfunding.sol\":2413:2432  backers[msg.sender] */\n      0x00\n        /* \"contracts/Crowdfunding.sol\":2421:2431  msg.sender */\n      caller\n        /* \"contracts/Crowdfunding.sol\":2413:2432  backers[msg.sender] */\n      0xffffffffffffffffffffffffffffffffffffffff\n      and\n      0xffffffffffffffffffffffffffffffffffffffff\n      and\n      dup2\n      mstore\n      0x20\n      add\n      swap1\n      dup2\n      mstore\n      0x20\n      add\n      0x00\n      keccak256\n        /* \"contracts/Crowdfunding.sol\":2413:2444  backers[msg.sender].fundedTiers */\n      0x01\n      add\n        /* \"contracts/Crowdfunding.sol\":2413:2456  backers[msg.sender].fundedTiers[_tierIndex] */\n      0x00\n        /* \"contracts/Crowdfunding.sol\":2445:2455  _tierIndex */\n      dup4\n        /* \"contracts/Crowdfunding.sol\":2413:2456  backers[msg.sender].fundedTiers[_tierIndex] */\n      dup2\n      mstore\n      0x20\n      add\n      swap1\n      dup2\n      mstore\n      0x20\n      add\n      0x00\n      keccak256\n      0x00\n        /* \"contracts/Crowdfunding.sol\":2413:2463  backers[msg.sender].fundedTiers[_tierIndex] = true */\n      0x0100\n      exp\n      dup2\n      sload\n      dup2\n      0xff\n      mul\n      not\n      and\n      swap1\n      dup4\n      iszero\n      iszero\n      mul\n      or\n      swap1\n      sstore\n      pop\n        /* \"contracts/Crowdfunding.sol\":2474:2503  checkAndUpdateCampaignState() */\n      tag_259\n        /* \"contracts/Crowdfunding.sol\":2474:2501  checkAndUpdateCampaignState */\n      tag_160\n        /* \"contracts/Crowdfunding.sol\":2474:2503  checkAndUpdateCampaignState() */\n      jump\t// in\n    tag_259:\n        /* \"contracts/Crowdfunding.sol\":2054:2511  function fund(uint256 _tierIndex)public payable campaignOpen notPaused{... */\n      pop\n      jump\t// out\n        /* \"contracts/Crowdfunding.sol\":3884:3968  function getTiers() public view returns (Tier[] memory){... */\n    tag_112:\n        /* \"contracts/Crowdfunding.sol\":3925:3938  Tier[] memory */\n      0x60\n        /* \"contracts/Crowdfunding.sol\":3956:3961  tiers */\n      0x05\n        /* \"contracts/Crowdfunding.sol\":3949:3961  return tiers */\n      dup1\n      sload\n      dup1\n      0x20\n      mul\n      0x20\n      add\n      mload(0x40)\n      swap1\n      dup2\n      add\n      0x40\n      mstore\n      dup1\n      swap3\n      swap2\n      swap1\n      dup2\n      dup2\n      mstore\n      0x20\n      add\n      0x00\n      swap1\n    tag_261:\n      dup3\n      dup3\n      lt\n      iszero\n      tag_262\n      jumpi\n      dup4\n      dup3\n      swap1\n      0x00\n      mstore\n      keccak256(0x00, 0x20)\n      swap1\n      0x03\n      mul\n      add\n      mload(0x40)\n      dup1\n      0x60\n      add\n      0x40\n      mstore\n      swap1\n      dup2\n      0x00\n      dup3\n      add\n      dup1\n      sload\n      tag_264\n      swap1\n      tag_118\n      jump\t// in\n    tag_264:\n      dup1\n      0x1f\n      add\n      0x20\n      dup1\n      swap2\n      div\n      mul\n      0x20\n      add\n      mload(0x40)\n      swap1\n      dup2\n      add\n      0x40\n      mstore\n      dup1\n      swap3\n      swap2\n      swap1\n      dup2\n      dup2\n      mstore\n      0x20\n      add\n      dup3\n      dup1\n      sload\n      tag_265\n      swap1\n      tag_118\n      jump\t// in\n    tag_265:\n      dup1\n      iszero\n      tag_266\n      jumpi\n      dup1\n      0x1f\n      lt\n      tag_267\n      jumpi\n      0x0100\n      dup1\n      dup4\n      sload\n      div\n      mul\n      dup4\n      mstore\n      swap2\n      0x20\n      add\n      swap2\n      jump(tag_266)\n    tag_267:\n      dup3\n      add\n      swap2\n      swap1\n      0x00\n      mstore\n      keccak256(0x00, 0x20)\n      swap1\n    tag_268:\n      dup2\n      sload\n      dup2\n      mstore\n      swap1\n      0x01\n      add\n      swap1\n      0x20\n      add\n      dup1\n      dup4\n      gt\n      tag_268\n      jumpi\n      dup3\n      swap1\n      sub\n      0x1f\n      and\n      dup3\n      add\n      swap2\n    tag_266:\n      pop\n      pop\n      pop\n      pop\n      pop\n      dup2\n      mstore\n      0x20\n      add\n      0x01\n      dup3\n      add\n      sload\n      dup2\n      mstore\n      0x20\n      add\n      0x02\n      dup3\n      add\n      sload\n      dup2\n      mstore\n      pop\n      pop\n      dup2\n      mstore\n      0x20\n      add\n      swap1\n      0x01\n      add\n      swap1\n      jump(tag_261)\n    tag_262:\n      pop\n      pop\n      pop\n      pop\n      swap1\n      pop\n        /* \"contracts/Crowdfunding.sol\":3884:3968  function getTiers() public view returns (Tier[] memory){... */\n      swap1\n      jump\t// out\n        /* \"contracts/Crowdfunding.sol\":1401:1799  function checkAndUpdateCampaignState() internal {... */\n    tag_160:\n        /* \"contracts/Crowdfunding.sol\":1471:1491  CampaignState.Active */\n      0x00\n        /* \"contracts/Crowdfunding.sol\":1462:1491  state == CampaignState.Active */\n      0x02\n      dup2\n      gt\n      iszero\n      tag_270\n      jumpi\n      tag_271\n      tag_131\n      jump\t// in\n    tag_271:\n    tag_270:\n        /* \"contracts/Crowdfunding.sol\":1462:1467  state */\n      0x04\n      0x15\n      swap1\n      sload\n      swap1\n      0x0100\n      exp\n      swap1\n      div\n      0xff\n      and\n        /* \"contracts/Crowdfunding.sol\":1462:1491  state == CampaignState.Active */\n      0x02\n      dup2\n      gt\n      iszero\n      tag_272\n      jumpi\n      tag_273\n      tag_131\n      jump\t// in\n    tag_273:\n    tag_272:\n      sub\n        /* \"contracts/Crowdfunding.sol\":1459:1793  if(state == CampaignState.Active){... */\n      tag_274\n      jumpi\n        /* \"contracts/Crowdfunding.sol\":1528:1536  deadline */\n      sload(0x03)\n        /* \"contracts/Crowdfunding.sol\":1509:1524  block.timestamp */\n      timestamp\n        /* \"contracts/Crowdfunding.sol\":1509:1536  block.timestamp >= deadline */\n      lt\n        /* \"contracts/Crowdfunding.sol\":1506:1783  if(block.timestamp >= deadline){... */\n      tag_275\n      jumpi\n        /* \"contracts/Crowdfunding.sol\":1588:1592  goal */\n      sload(0x02)\n        /* \"contracts/Crowdfunding.sol\":1563:1584  address(this).balance */\n      selfbalance\n        /* \"contracts/Crowdfunding.sol\":1563:1592  address(this).balance >= goal */\n      lt\n      iszero\n        /* \"contracts/Crowdfunding.sol\":1563:1642  address(this).balance >= goal ? CampaignState.Successful : CampaignState.Failed */\n      tag_276\n      jumpi\n        /* \"contracts/Crowdfunding.sol\":1622:1642  CampaignState.Failed */\n      0x02\n        /* \"contracts/Crowdfunding.sol\":1563:1642  address(this).balance >= goal ? CampaignState.Successful : CampaignState.Failed */\n      jump(tag_277)\n    tag_276:\n        /* \"contracts/Crowdfunding.sol\":1595:1619  CampaignState.Successful */\n      0x01\n        /* \"contracts/Crowdfunding.sol\":1563:1642  address(this).balance >= goal ? CampaignState.Successful : CampaignState.Failed */\n    tag_277:\n        /* \"contracts/Crowdfunding.sol\":1555:1560  state */\n      0x04\n      0x15\n        /* \"contracts/Crowdfunding.sol\":1555:1642  state = address(this).balance >= goal ? CampaignState.Successful : CampaignState.Failed */\n      0x0100\n      exp\n      dup2\n      sload\n      dup2\n      0xff\n      mul\n      not\n      and\n      swap1\n      dup4\n      0x02\n      dup2\n      gt\n      iszero\n      tag_278\n      jumpi\n      tag_279\n      tag_131\n      jump\t// in\n    tag_279:\n    tag_278:\n      mul\n      or\n      swap1\n      sstore\n      pop\n        /* \"contracts/Crowdfunding.sol\":1506:1783  if(block.timestamp >= deadline){... */\n      jump(tag_280)\n    tag_275:\n        /* \"contracts/Crowdfunding.sol\":1714:1718  goal */\n      sload(0x02)\n        /* \"contracts/Crowdfunding.sol\":1689:1710  address(this).balance */\n      selfbalance\n        /* \"contracts/Crowdfunding.sol\":1689:1718  address(this).balance >= goal */\n      lt\n      iszero\n        /* \"contracts/Crowdfunding.sol\":1689:1768  address(this).balance >= goal ? CampaignState.Successful : CampaignState.Active */\n      tag_281\n      jumpi\n        /* \"contracts/Crowdfunding.sol\":1748:1768  CampaignState.Active */\n      0x00\n        /* \"contracts/Crowdfunding.sol\":1689:1768  address(this).balance >= goal ? CampaignState.Successful : CampaignState.Active */\n      jump(tag_282)\n    tag_281:\n        /* \"contracts/Crowdfunding.sol\":1721:1745  CampaignState.Successful */\n      0x01\n        /* \"contracts/Crowdfunding.sol\":1689:1768  address(this).balance >= goal ? CampaignState.Successful : CampaignState.Active */\n    tag_282:\n        /* \"contracts/Crowdfunding.sol\":1681:1686  state */\n      0x04\n      0x15\n        /* \"contracts/Crowdfunding.sol\":1681:1768  state = address(this).balance >= goal ? CampaignState.Successful : CampaignState.Active */\n      0x0100\n      exp\n      dup2\n      sload\n      dup2\n      0xff\n      mul\n      not\n      and\n      swap1\n      dup4\n      0x02\n      dup2\n      gt\n      iszero\n      tag_283\n      jumpi\n      tag_284\n      tag_131\n      jump\t// in\n    tag_284:\n    tag_283:\n      mul\n      or\n      swap1\n      sstore\n      pop\n        /* \"contracts/Crowdfunding.sol\":1506:1783  if(block.timestamp >= deadline){... */\n    tag_280:\n        /* \"contracts/Crowdfunding.sol\":1459:1793  if(state == CampaignState.Active){... */\n    tag_274:\n        /* \"contracts/Crowdfunding.sol\":1401:1799  function checkAndUpdateCampaignState() internal {... */\n      jump\t// out\n    tag_216:\n      pop\n      dup1\n      sload\n      tag_285\n      swap1\n      tag_118\n      jump\t// in\n    tag_285:\n      0x00\n      dup3\n      sstore\n      dup1\n      0x1f\n      lt\n      tag_287\n      jumpi\n      pop\n      jump(tag_286)\n    tag_287:\n      0x1f\n      add\n      0x20\n      swap1\n      div\n      swap1\n      0x00\n      mstore\n      keccak256(0x00, 0x20)\n      swap1\n      dup2\n      add\n      swap1\n      tag_288\n      swap2\n      swap1\n      tag_289\n      jump\t// in\n    tag_288:\n    tag_286:\n      pop\n      jump\t// out\n    tag_289:\n    tag_290:\n      dup1\n      dup3\n      gt\n      iszero\n      tag_291\n      jumpi\n      0x00\n      dup2\n      0x00\n      swap1\n      sstore\n      pop\n      0x01\n      add\n      jump(tag_290)\n    tag_291:\n      pop\n      swap1\n      jump\t// out\n        /* \"#utility.yul\":7:82   */\n    tag_292:\n        /* \"#utility.yul\":40:46   */\n      0x00\n        /* \"#utility.yul\":73:75   */\n      0x40\n        /* \"#utility.yul\":67:76   */\n      mload\n        /* \"#utility.yul\":57:76   */\n      swap1\n      pop\n        /* \"#utility.yul\":7:82   */\n      swap1\n      jump\t// out\n        /* \"#utility.yul\":88:205   */\n    tag_293:\n        /* \"#utility.yul\":197:198   */\n      0x00\n        /* \"#utility.yul\":194:195   */\n      dup1\n        /* \"#utility.yul\":187:199   */\n      revert\n        /* \"#utility.yul\":211:328   */\n    tag_294:\n        /* \"#utility.yul\":320:321   */\n      0x00\n        /* \"#utility.yul\":317:318   */\n      dup1\n        /* \"#utility.yul\":310:322   */\n      revert\n        /* \"#utility.yul\":334:411   */\n    tag_295:\n        /* \"#utility.yul\":371:378   */\n      0x00\n        /* \"#utility.yul\":400:405   */\n      dup2\n        /* \"#utility.yul\":389:405   */\n      swap1\n      pop\n        /* \"#utility.yul\":334:411   */\n      swap2\n      swap1\n      pop\n      jump\t// out\n        /* \"#utility.yul\":417:539   */\n    tag_296:\n        /* \"#utility.yul\":490:514   */\n      tag_380\n        /* \"#utility.yul\":508:513   */\n      dup2\n        /* \"#utility.yul\":490:514   */\n      tag_295\n      jump\t// in\n    tag_380:\n        /* \"#utility.yul\":483:488   */\n      dup2\n        /* \"#utility.yul\":480:515   */\n      eq\n        /* \"#utility.yul\":470:533   */\n      tag_381\n      jumpi\n        /* \"#utility.yul\":529:530   */\n      0x00\n        /* \"#utility.yul\":526:527   */\n      dup1\n        /* \"#utility.yul\":519:531   */\n      revert\n        /* \"#utility.yul\":470:533   */\n    tag_381:\n        /* \"#utility.yul\":417:539   */\n      pop\n      jump\t// out\n        /* \"#utility.yul\":545:684   */\n    tag_297:\n        /* \"#utility.yul\":591:596   */\n      0x00\n        /* \"#utility.yul\":629:635   */\n      dup2\n        /* \"#utility.yul\":616:636   */\n      calldataload\n        /* \"#utility.yul\":607:636   */\n      swap1\n      pop\n        /* \"#utility.yul\":645:678   */\n      tag_383\n        /* \"#utility.yul\":672:677   */\n      dup2\n        /* \"#utility.yul\":645:678   */\n      tag_296\n      jump\t// in\n    tag_383:\n        /* \"#utility.yul\":545:684   */\n      swap3\n      swap2\n      pop\n      pop\n      jump\t// out\n        /* \"#utility.yul\":690:1019   */\n    tag_28:\n        /* \"#utility.yul\":749:755   */\n      0x00\n        /* \"#utility.yul\":798:800   */\n      0x20\n        /* \"#utility.yul\":786:795   */\n      dup3\n        /* \"#utility.yul\":777:784   */\n      dup5\n        /* \"#utility.yul\":773:796   */\n      sub\n        /* \"#utility.yul\":769:801   */\n      slt\n        /* \"#utility.yul\":766:885   */\n      iszero\n      tag_385\n      jumpi\n        /* \"#utility.yul\":804:883   */\n      tag_386\n      tag_293\n      jump\t// in\n    tag_386:\n        /* \"#utility.yul\":766:885   */\n    tag_385:\n        /* \"#utility.yul\":924:925   */\n      0x00\n        /* \"#utility.yul\":949:1002   */\n      tag_387\n        /* \"#utility.yul\":994:1001   */\n      dup5\n        /* \"#utility.yul\":985:991   */\n      dup3\n        /* \"#utility.yul\":974:983   */\n      dup6\n        /* \"#utility.yul\":970:992   */\n      add\n        /* \"#utility.yul\":949:1002   */\n      tag_297\n      jump\t// in\n    tag_387:\n        /* \"#utility.yul\":939:1002   */\n      swap2\n      pop\n        /* \"#utility.yul\":895:1012   */\n      pop\n        /* \"#utility.yul\":690:1019   */\n      swap3\n      swap2\n      pop\n      pop\n      jump\t// out\n        /* \"#utility.yul\":1025:1124   */\n    tag_298:\n        /* \"#utility.yul\":1077:1083   */\n      0x00\n        /* \"#utility.yul\":1111:1116   */\n      dup2\n        /* \"#utility.yul\":1105:1117   */\n      mload\n        /* \"#utility.yul\":1095:1117   */\n      swap1\n      pop\n        /* \"#utility.yul\":1025:1124   */\n      swap2\n      swap1\n      pop\n      jump\t// out\n        /* \"#utility.yul\":1130:1299   */\n    tag_299:\n        /* \"#utility.yul\":1214:1225   */\n      0x00\n        /* \"#utility.yul\":1248:1254   */\n      dup3\n        /* \"#utility.yul\":1243:1246   */\n      dup3\n        /* \"#utility.yul\":1236:1255   */\n      mstore\n        /* \"#utility.yul\":1288:1292   */\n      0x20\n        /* \"#utility.yul\":1283:1286   */\n      dup3\n        /* \"#utility.yul\":1279:1293   */\n      add\n        /* \"#utility.yul\":1264:1293   */\n      swap1\n      pop\n        /* \"#utility.yul\":1130:1299   */\n      swap3\n      swap2\n      pop\n      pop\n      jump\t// out\n        /* \"#utility.yul\":1305:1444   */\n    tag_300:\n        /* \"#utility.yul\":1394:1400   */\n      dup3\n        /* \"#utility.yul\":1389:1392   */\n      dup2\n        /* \"#utility.yul\":1384:1387   */\n      dup4\n        /* \"#utility.yul\":1378:1401   */\n      mcopy\n        /* \"#utility.yul\":1435:1436   */\n      0x00\n        /* \"#utility.yul\":1426:1432   */\n      dup4\n        /* \"#utility.yul\":1421:1424   */\n      dup4\n        /* \"#utility.yul\":1417:1433   */\n      add\n        /* \"#utility.yul\":1410:1437   */\n      mstore\n        /* \"#utility.yul\":1305:1444   */\n      pop\n      pop\n      pop\n      jump\t// out\n        /* \"#utility.yul\":1450:1552   */\n    tag_301:\n        /* \"#utility.yul\":1491:1497   */\n      0x00\n        /* \"#utility.yul\":1542:1544   */\n      0x1f\n        /* \"#utility.yul\":1538:1545   */\n      not\n        /* \"#utility.yul\":1533:1535   */\n      0x1f\n        /* \"#utility.yul\":1526:1531   */\n      dup4\n        /* \"#utility.yul\":1522:1536   */\n      add\n        /* \"#utility.yul\":1518:1546   */\n      and\n        /* \"#utility.yul\":1508:1546   */\n      swap1\n      pop\n        /* \"#utility.yul\":1450:1552   */\n      swap2\n      swap1\n      pop\n      jump\t// out\n        /* \"#utility.yul\":1558:1935   */\n    tag_302:\n        /* \"#utility.yul\":1646:1649   */\n      0x00\n        /* \"#utility.yul\":1674:1713   */\n      tag_393\n        /* \"#utility.yul\":1707:1712   */\n      dup3\n        /* \"#utility.yul\":1674:1713   */\n      tag_298\n      jump\t// in\n    tag_393:\n        /* \"#utility.yul\":1729:1800   */\n      tag_394\n        /* \"#utility.yul\":1793:1799   */\n      dup2\n        /* \"#utility.yul\":1788:1791   */\n      dup6\n        /* \"#utility.yul\":1729:1800   */\n      tag_299\n      jump\t// in\n    tag_394:\n        /* \"#utility.yul\":1722:1800   */\n      swap4\n      pop\n        /* \"#utility.yul\":1809:1874   */\n      tag_395\n        /* \"#utility.yul\":1867:1873   */\n      dup2\n        /* \"#utility.yul\":1862:1865   */\n      dup6\n        /* \"#utility.yul\":1855:1859   */\n      0x20\n        /* \"#utility.yul\":1848:1853   */\n      dup7\n        /* \"#utility.yul\":1844:1860   */\n      add\n        /* \"#utility.yul\":1809:1874   */\n      tag_300\n      jump\t// in\n    tag_395:\n        /* \"#utility.yul\":1899:1928   */\n      tag_396\n        /* \"#utility.yul\":1921:1927   */\n      dup2\n        /* \"#utility.yul\":1899:1928   */\n      tag_301\n      jump\t// in\n    tag_396:\n        /* \"#utility.yul\":1894:1897   */\n      dup5\n        /* \"#utility.yul\":1890:1929   */\n      add\n        /* \"#utility.yul\":1883:1929   */\n      swap2\n      pop\n        /* \"#utility.yul\":1650:1935   */\n      pop\n        /* \"#utility.yul\":1558:1935   */\n      swap3\n      swap2\n      pop\n      pop\n      jump\t// out\n        /* \"#utility.yul\":1941:2059   */\n    tag_303:\n        /* \"#utility.yul\":2028:2052   */\n      tag_398\n        /* \"#utility.yul\":2046:2051   */\n      dup2\n        /* \"#utility.yul\":2028:2052   */\n      tag_295\n      jump\t// in\n    tag_398:\n        /* \"#utility.yul\":2023:2026   */\n      dup3\n        /* \"#utility.yul\":2016:2053   */\n      mstore\n        /* \"#utility.yul\":1941:2059   */\n      pop\n      pop\n      jump\t// out\n        /* \"#utility.yul\":2065:2598   */\n    tag_31:\n        /* \"#utility.yul\":2234:2238   */\n      0x00\n        /* \"#utility.yul\":2272:2274   */\n      0x60\n        /* \"#utility.yul\":2261:2270   */\n      dup3\n        /* \"#utility.yul\":2257:2275   */\n      add\n        /* \"#utility.yul\":2249:2275   */\n      swap1\n      pop\n        /* \"#utility.yul\":2321:2330   */\n      dup2\n        /* \"#utility.yul\":2315:2319   */\n      dup2\n        /* \"#utility.yul\":2311:2331   */\n      sub\n        /* \"#utility.yul\":2307:2308   */\n      0x00\n        /* \"#utility.yul\":2296:2305   */\n      dup4\n        /* \"#utility.yul\":2292:2309   */\n      add\n        /* \"#utility.yul\":2285:2332   */\n      mstore\n        /* \"#utility.yul\":2349:2427   */\n      tag_400\n        /* \"#utility.yul\":2422:2426   */\n      dup2\n        /* \"#utility.yul\":2413:2419   */\n      dup7\n        /* \"#utility.yul\":2349:2427   */\n      tag_302\n      jump\t// in\n    tag_400:\n        /* \"#utility.yul\":2341:2427   */\n      swap1\n      pop\n        /* \"#utility.yul\":2437:2509   */\n      tag_401\n        /* \"#utility.yul\":2505:2507   */\n      0x20\n        /* \"#utility.yul\":2494:2503   */\n      dup4\n        /* \"#utility.yul\":2490:2508   */\n      add\n        /* \"#utility.yul\":2481:2487   */\n      dup6\n        /* \"#utility.yul\":2437:2509   */\n      tag_303\n      jump\t// in\n    tag_401:\n        /* \"#utility.yul\":2519:2591   */\n      tag_402\n        /* \"#utility.yul\":2587:2589   */\n      0x40\n        /* \"#utility.yul\":2576:2585   */\n      dup4\n        /* \"#utility.yul\":2572:2590   */\n      add\n        /* \"#utility.yul\":2563:2569   */\n      dup5\n        /* \"#utility.yul\":2519:2591   */\n      tag_303\n      jump\t// in\n    tag_402:\n        /* \"#utility.yul\":2065:2598   */\n      swap5\n      swap4\n      pop\n      pop\n      pop\n      pop\n      jump\t// out\n        /* \"#utility.yul\":2604:2917   */\n    tag_36:\n        /* \"#utility.yul\":2717:2721   */\n      0x00\n        /* \"#utility.yul\":2755:2757   */\n      0x20\n        /* \"#utility.yul\":2744:2753   */\n      dup3\n        /* \"#utility.yul\":2740:2758   */\n      add\n        /* \"#utility.yul\":2732:2758   */\n      swap1\n      pop\n        /* \"#utility.yul\":2804:2813   */\n      dup2\n        /* \"#utility.yul\":2798:2802   */\n      dup2\n        /* \"#utility.yul\":2794:2814   */\n      sub\n        /* \"#utility.yul\":2790:2791   */\n      0x00\n        /* \"#utility.yul\":2779:2788   */\n      dup4\n        /* \"#utility.yul\":2775:2792   */\n      add\n        /* \"#utility.yul\":2768:2815   */\n      mstore\n        /* \"#utility.yul\":2832:2910   */\n      tag_404\n        /* \"#utility.yul\":2905:2909   */\n      dup2\n        /* \"#utility.yul\":2896:2902   */\n      dup5\n        /* \"#utility.yul\":2832:2910   */\n      tag_302\n      jump\t// in\n    tag_404:\n        /* \"#utility.yul\":2824:2910   */\n      swap1\n      pop\n        /* \"#utility.yul\":2604:2917   */\n      swap3\n      swap2\n      pop\n      pop\n      jump\t// out\n        /* \"#utility.yul\":2923:3103   */\n    tag_131:\n        /* \"#utility.yul\":2971:3048   */\n      0x4e487b7100000000000000000000000000000000000000000000000000000000\n        /* \"#utility.yul\":2968:2969   */\n      0x00\n        /* \"#utility.yul\":2961:3049   */\n      mstore\n        /* \"#utility.yul\":3068:3072   */\n      0x21\n        /* \"#utility.yul\":3065:3066   */\n      0x04\n        /* \"#utility.yul\":3058:3073   */\n      mstore\n        /* \"#utility.yul\":3092:3096   */\n      0x24\n        /* \"#utility.yul\":3089:3090   */\n      0x00\n        /* \"#utility.yul\":3082:3097   */\n      revert\n        /* \"#utility.yul\":3109:3230   */\n    tag_304:\n        /* \"#utility.yul\":3198:3199   */\n      0x03\n        /* \"#utility.yul\":3191:3196   */\n      dup2\n        /* \"#utility.yul\":3188:3200   */\n      lt\n        /* \"#utility.yul\":3178:3224   */\n      tag_407\n      jumpi\n        /* \"#utility.yul\":3204:3222   */\n      tag_408\n      tag_131\n      jump\t// in\n    tag_408:\n        /* \"#utility.yul\":3178:3224   */\n    tag_407:\n        /* \"#utility.yul\":3109:3230   */\n      pop\n      jump\t// out\n        /* \"#utility.yul\":3236:3379   */\n    tag_305:\n        /* \"#utility.yul\":3289:3296   */\n      0x00\n        /* \"#utility.yul\":3318:3323   */\n      dup2\n        /* \"#utility.yul\":3307:3323   */\n      swap1\n      pop\n        /* \"#utility.yul\":3324:3373   */\n      tag_410\n        /* \"#utility.yul\":3367:3372   */\n      dup3\n        /* \"#utility.yul\":3324:3373   */\n      tag_304\n      jump\t// in\n    tag_410:\n        /* \"#utility.yul\":3236:3379   */\n      swap2\n      swap1\n      pop\n      jump\t// out\n        /* \"#utility.yul\":3385:3528   */\n    tag_306:\n        /* \"#utility.yul\":3449:3458   */\n      0x00\n        /* \"#utility.yul\":3482:3522   */\n      tag_412\n        /* \"#utility.yul\":3516:3521   */\n      dup3\n        /* \"#utility.yul\":3482:3522   */\n      tag_305\n      jump\t// in\n    tag_412:\n        /* \"#utility.yul\":3469:3522   */\n      swap1\n      pop\n        /* \"#utility.yul\":3385:3528   */\n      swap2\n      swap1\n      pop\n      jump\t// out\n        /* \"#utility.yul\":3534:3693   */\n    tag_307:\n        /* \"#utility.yul\":3635:3686   */\n      tag_414\n        /* \"#utility.yul\":3680:3685   */\n      dup2\n        /* \"#utility.yul\":3635:3686   */\n      tag_306\n      jump\t// in\n    tag_414:\n        /* \"#utility.yul\":3630:3633   */\n      dup3\n        /* \"#utility.yul\":3623:3687   */\n      mstore\n        /* \"#utility.yul\":3534:3693   */\n      pop\n      pop\n      jump\t// out\n        /* \"#utility.yul\":3699:3949   */\n    tag_41:\n        /* \"#utility.yul\":3806:3810   */\n      0x00\n        /* \"#utility.yul\":3844:3846   */\n      0x20\n        /* \"#utility.yul\":3833:3842   */\n      dup3\n        /* \"#utility.yul\":3829:3847   */\n      add\n        /* \"#utility.yul\":3821:3847   */\n      swap1\n      pop\n        /* \"#utility.yul\":3857:3942   */\n      tag_416\n        /* \"#utility.yul\":3939:3940   */\n      0x00\n        /* \"#utility.yul\":3928:3937   */\n      dup4\n        /* \"#utility.yul\":3924:3941   */\n      add\n        /* \"#utility.yul\":3915:3921   */\n      dup5\n        /* \"#utility.yul\":3857:3942   */\n      tag_307\n      jump\t// in\n    tag_416:\n        /* \"#utility.yul\":3699:3949   */\n      swap3\n      swap2\n      pop\n      pop\n      jump\t// out\n        /* \"#utility.yul\":3955:4177   */\n    tag_46:\n        /* \"#utility.yul\":4048:4052   */\n      0x00\n        /* \"#utility.yul\":4086:4088   */\n      0x20\n        /* \"#utility.yul\":4075:4084   */\n      dup3\n        /* \"#utility.yul\":4071:4089   */\n      add\n        /* \"#utility.yul\":4063:4089   */\n      swap1\n      pop\n        /* \"#utility.yul\":4099:4170   */\n      tag_418\n        /* \"#utility.yul\":4167:4168   */\n      0x00\n        /* \"#utility.yul\":4156:4165   */\n      dup4\n        /* \"#utility.yul\":4152:4169   */\n      add\n        /* \"#utility.yul\":4143:4149   */\n      dup5\n        /* \"#utility.yul\":4099:4170   */\n      tag_303\n      jump\t// in\n    tag_418:\n        /* \"#utility.yul\":3955:4177   */\n      swap3\n      swap2\n      pop\n      pop\n      jump\t// out\n        /* \"#utility.yul\":4183:4273   */\n    tag_308:\n        /* \"#utility.yul\":4217:4224   */\n      0x00\n        /* \"#utility.yul\":4260:4265   */\n      dup2\n        /* \"#utility.yul\":4253:4266   */\n      iszero\n        /* \"#utility.yul\":4246:4267   */\n      iszero\n        /* \"#utility.yul\":4235:4267   */\n      swap1\n      pop\n        /* \"#utility.yul\":4183:4273   */\n      swap2\n      swap1\n      pop\n      jump\t// out\n        /* \"#utility.yul\":4279:4388   */\n    tag_309:\n        /* \"#utility.yul\":4360:4381   */\n      tag_421\n        /* \"#utility.yul\":4375:4380   */\n      dup2\n        /* \"#utility.yul\":4360:4381   */\n      tag_308\n      jump\t// in\n    tag_421:\n        /* \"#utility.yul\":4355:4358   */\n      dup3\n        /* \"#utility.yul\":4348:4382   */\n      mstore\n        /* \"#utility.yul\":4279:4388   */\n      pop\n      pop\n      jump\t// out\n        /* \"#utility.yul\":4394:4604   */\n    tag_65:\n        /* \"#utility.yul\":4481:4485   */\n      0x00\n        /* \"#utility.yul\":4519:4521   */\n      0x20\n        /* \"#utility.yul\":4508:4517   */\n      dup3\n        /* \"#utility.yul\":4504:4522   */\n      add\n        /* \"#utility.yul\":4496:4522   */\n      swap1\n      pop\n        /* \"#utility.yul\":4532:4597   */\n      tag_423\n        /* \"#utility.yul\":4594:4595   */\n      0x00\n        /* \"#utility.yul\":4583:4592   */\n      dup4\n        /* \"#utility.yul\":4579:4596   */\n      add\n        /* \"#utility.yul\":4570:4576   */\n      dup5\n        /* \"#utility.yul\":4532:4597   */\n      tag_309\n      jump\t// in\n    tag_423:\n        /* \"#utility.yul\":4394:4604   */\n      swap3\n      swap2\n      pop\n      pop\n      jump\t// out\n        /* \"#utility.yul\":4610:4736   */\n    tag_310:\n        /* \"#utility.yul\":4647:4654   */\n      0x00\n        /* \"#utility.yul\":4687:4729   */\n      0xffffffffffffffffffffffffffffffffffffffff\n        /* \"#utility.yul\":4680:4685   */\n      dup3\n        /* \"#utility.yul\":4676:4730   */\n      and\n        /* \"#utility.yul\":4665:4730   */\n      swap1\n      pop\n        /* \"#utility.yul\":4610:4736   */\n      swap2\n      swap1\n      pop\n      jump\t// out\n        /* \"#utility.yul\":4742:4838   */\n    tag_311:\n        /* \"#utility.yul\":4779:4786   */\n      0x00\n        /* \"#utility.yul\":4808:4832   */\n      tag_426\n        /* \"#utility.yul\":4826:4831   */\n      dup3\n        /* \"#utility.yul\":4808:4832   */\n      tag_310\n      jump\t// in\n    tag_426:\n        /* \"#utility.yul\":4797:4832   */\n      swap1\n      pop\n        /* \"#utility.yul\":4742:4838   */\n      swap2\n      swap1\n      pop\n      jump\t// out\n        /* \"#utility.yul\":4844:4966   */\n    tag_312:\n        /* \"#utility.yul\":4917:4941   */\n      tag_428\n        /* \"#utility.yul\":4935:4940   */\n      dup2\n        /* \"#utility.yul\":4917:4941   */\n      tag_311\n      jump\t// in\n    tag_428:\n        /* \"#utility.yul\":4910:4915   */\n      dup2\n        /* \"#utility.yul\":4907:4942   */\n      eq\n        /* \"#utility.yul\":4897:4960   */\n      tag_429\n      jumpi\n        /* \"#utility.yul\":4956:4957   */\n      0x00\n        /* \"#utility.yul\":4953:4954   */\n      dup1\n        /* \"#utility.yul\":4946:4958   */\n      revert\n        /* \"#utility.yul\":4897:4960   */\n    tag_429:\n        /* \"#utility.yul\":4844:4966   */\n      pop\n      jump\t// out\n        /* \"#utility.yul\":4972:5111   */\n    tag_313:\n        /* \"#utility.yul\":5018:5023   */\n      0x00\n        /* \"#utility.yul\":5056:5062   */\n      dup2\n        /* \"#utility.yul\":5043:5063   */\n      calldataload\n        /* \"#utility.yul\":5034:5063   */\n      swap1\n      pop\n        /* \"#utility.yul\":5072:5105   */\n      tag_431\n        /* \"#utility.yul\":5099:5104   */\n      dup2\n        /* \"#utility.yul\":5072:5105   */\n      tag_312\n      jump\t// in\n    tag_431:\n        /* \"#utility.yul\":4972:5111   */\n      swap3\n      swap2\n      pop\n      pop\n      jump\t// out\n        /* \"#utility.yul\":5117:5591   */\n    tag_81:\n        /* \"#utility.yul\":5185:5191   */\n      0x00\n        /* \"#utility.yul\":5193:5199   */\n      dup1\n        /* \"#utility.yul\":5242:5244   */\n      0x40\n        /* \"#utility.yul\":5230:5239   */\n      dup4\n        /* \"#utility.yul\":5221:5228   */\n      dup6\n        /* \"#utility.yul\":5217:5240   */\n      sub\n        /* \"#utility.yul\":5213:5245   */\n      slt\n        /* \"#utility.yul\":5210:5329   */\n      iszero\n      tag_433\n      jumpi\n        /* \"#utility.yul\":5248:5327   */\n      tag_434\n      tag_293\n      jump\t// in\n    tag_434:\n        /* \"#utility.yul\":5210:5329   */\n    tag_433:\n        /* \"#utility.yul\":5368:5369   */\n      0x00\n        /* \"#utility.yul\":5393:5446   */\n      tag_435\n        /* \"#utility.yul\":5438:5445   */\n      dup6\n        /* \"#utility.yul\":5429:5435   */\n      dup3\n        /* \"#utility.yul\":5418:5427   */\n      dup7\n        /* \"#utility.yul\":5414:5436   */\n      add\n        /* \"#utility.yul\":5393:5446   */\n      tag_313\n      jump\t// in\n    tag_435:\n        /* \"#utility.yul\":5383:5446   */\n      swap3\n      pop\n        /* \"#utility.yul\":5339:5456   */\n      pop\n        /* \"#utility.yul\":5495:5497   */\n      0x20\n        /* \"#utility.yul\":5521:5574   */\n      tag_436\n        /* \"#utility.yul\":5566:5573   */\n      dup6\n        /* \"#utility.yul\":5557:5563   */\n      dup3\n        /* \"#utility.yul\":5546:5555   */\n      dup7\n        /* \"#utility.yul\":5542:5564   */\n      add\n        /* \"#utility.yul\":5521:5574   */\n      tag_297\n      jump\t// in\n    tag_436:\n        /* \"#utility.yul\":5511:5574   */\n      swap2\n      pop\n        /* \"#utility.yul\":5466:5584   */\n      pop\n        /* \"#utility.yul\":5117:5591   */\n      swap3\n      pop\n      swap3\n      swap1\n      pop\n      jump\t// out\n        /* \"#utility.yul\":5597:5715   */\n    tag_314:\n        /* \"#utility.yul\":5684:5708   */\n      tag_438\n        /* \"#utility.yul\":5702:5707   */\n      dup2\n        /* \"#utility.yul\":5684:5708   */\n      tag_311\n      jump\t// in\n    tag_438:\n        /* \"#utility.yul\":5679:5682   */\n      dup3\n        /* \"#utility.yul\":5672:5709   */\n      mstore\n        /* \"#utility.yul\":5597:5715   */\n      pop\n      pop\n      jump\t// out\n        /* \"#utility.yul\":5721:5943   */\n    tag_88:\n        /* \"#utility.yul\":5814:5818   */\n      0x00\n        /* \"#utility.yul\":5852:5854   */\n      0x20\n        /* \"#utility.yul\":5841:5850   */\n      dup3\n        /* \"#utility.yul\":5837:5855   */\n      add\n        /* \"#utility.yul\":5829:5855   */\n      swap1\n      pop\n        /* \"#utility.yul\":5865:5936   */\n      tag_440\n        /* \"#utility.yul\":5933:5934   */\n      0x00\n        /* \"#utility.yul\":5922:5931   */\n      dup4\n        /* \"#utility.yul\":5918:5935   */\n      add\n        /* \"#utility.yul\":5909:5915   */\n      dup5\n        /* \"#utility.yul\":5865:5936   */\n      tag_314\n      jump\t// in\n    tag_440:\n        /* \"#utility.yul\":5721:5943   */\n      swap3\n      swap2\n      pop\n      pop\n      jump\t// out\n        /* \"#utility.yul\":5949:6066   */\n    tag_315:\n        /* \"#utility.yul\":6058:6059   */\n      0x00\n        /* \"#utility.yul\":6055:6056   */\n      dup1\n        /* \"#utility.yul\":6048:6060   */\n      revert\n        /* \"#utility.yul\":6072:6189   */\n    tag_316:\n        /* \"#utility.yul\":6181:6182   */\n      0x00\n        /* \"#utility.yul\":6178:6179   */\n      dup1\n        /* \"#utility.yul\":6171:6183   */\n      revert\n        /* \"#utility.yul\":6195:6375   */\n    tag_317:\n        /* \"#utility.yul\":6243:6320   */\n      0x4e487b7100000000000000000000000000000000000000000000000000000000\n        /* \"#utility.yul\":6240:6241   */\n      0x00\n        /* \"#utility.yul\":6233:6321   */\n      mstore\n        /* \"#utility.yul\":6340:6344   */\n      0x41\n        /* \"#utility.yul\":6337:6338   */\n      0x04\n        /* \"#utility.yul\":6330:6345   */\n      mstore\n        /* \"#utility.yul\":6364:6368   */\n      0x24\n        /* \"#utility.yul\":6361:6362   */\n      0x00\n        /* \"#utility.yul\":6354:6369   */\n      revert\n        /* \"#utility.yul\":6381:6662   */\n    tag_318:\n        /* \"#utility.yul\":6464:6491   */\n      tag_445\n        /* \"#utility.yul\":6486:6490   */\n      dup3\n        /* \"#utility.yul\":6464:6491   */\n      tag_301\n      jump\t// in\n    tag_445:\n        /* \"#utility.yul\":6456:6462   */\n      dup2\n        /* \"#utility.yul\":6452:6492   */\n      add\n        /* \"#utility.yul\":6594:6600   */\n      dup2\n        /* \"#utility.yul\":6582:6592   */\n      dup2\n        /* \"#utility.yul\":6579:6601   */\n      lt\n        /* \"#utility.yul\":6558:6576   */\n      0xffffffffffffffff\n        /* \"#utility.yul\":6546:6556   */\n      dup3\n        /* \"#utility.yul\":6543:6577   */\n      gt\n        /* \"#utility.yul\":6540:6602   */\n      or\n        /* \"#utility.yul\":6537:6625   */\n      iszero\n      tag_446\n      jumpi\n        /* \"#utility.yul\":6605:6623   */\n      tag_447\n      tag_317\n      jump\t// in\n    tag_447:\n        /* \"#utility.yul\":6537:6625   */\n    tag_446:\n        /* \"#utility.yul\":6645:6655   */\n      dup1\n        /* \"#utility.yul\":6641:6643   */\n      0x40\n        /* \"#utility.yul\":6634:6656   */\n      mstore\n        /* \"#utility.yul\":6424:6662   */\n      pop\n        /* \"#utility.yul\":6381:6662   */\n      pop\n      pop\n      jump\t// out\n        /* \"#utility.yul\":6668:6797   */\n    tag_319:\n        /* \"#utility.yul\":6702:6708   */\n      0x00\n        /* \"#utility.yul\":6729:6749   */\n      tag_449\n      tag_292\n      jump\t// in\n    tag_449:\n        /* \"#utility.yul\":6719:6749   */\n      swap1\n      pop\n        /* \"#utility.yul\":6758:6791   */\n      tag_450\n        /* \"#utility.yul\":6786:6790   */\n      dup3\n        /* \"#utility.yul\":6778:6784   */\n      dup3\n        /* \"#utility.yul\":6758:6791   */\n      tag_318\n      jump\t// in\n    tag_450:\n        /* \"#utility.yul\":6668:6797   */\n      swap2\n      swap1\n      pop\n      jump\t// out\n        /* \"#utility.yul\":6803:7111   */\n    tag_320:\n        /* \"#utility.yul\":6865:6869   */\n      0x00\n        /* \"#utility.yul\":6955:6973   */\n      0xffffffffffffffff\n        /* \"#utility.yul\":6947:6953   */\n      dup3\n        /* \"#utility.yul\":6944:6974   */\n      gt\n        /* \"#utility.yul\":6941:6997   */\n      iszero\n      tag_452\n      jumpi\n        /* \"#utility.yul\":6977:6995   */\n      tag_453\n      tag_317\n      jump\t// in\n    tag_453:\n        /* \"#utility.yul\":6941:6997   */\n    tag_452:\n        /* \"#utility.yul\":7015:7044   */\n      tag_454\n        /* \"#utility.yul\":7037:7043   */\n      dup3\n        /* \"#utility.yul\":7015:7044   */\n      tag_301\n      jump\t// in\n    tag_454:\n        /* \"#utility.yul\":7007:7044   */\n      swap1\n      pop\n        /* \"#utility.yul\":7099:7103   */\n      0x20\n        /* \"#utility.yul\":7093:7097   */\n      dup2\n        /* \"#utility.yul\":7089:7104   */\n      add\n        /* \"#utility.yul\":7081:7104   */\n      swap1\n      pop\n        /* \"#utility.yul\":6803:7111   */\n      swap2\n      swap1\n      pop\n      jump\t// out\n        /* \"#utility.yul\":7117:7265   */\n    tag_321:\n        /* \"#utility.yul\":7215:7221   */\n      dup3\n        /* \"#utility.yul\":7210:7213   */\n      dup2\n        /* \"#utility.yul\":7205:7208   */\n      dup4\n        /* \"#utility.yul\":7192:7222   */\n      calldatacopy\n        /* \"#utility.yul\":7256:7257   */\n      0x00\n        /* \"#utility.yul\":7247:7253   */\n      dup4\n        /* \"#utility.yul\":7242:7245   */\n      dup4\n        /* \"#utility.yul\":7238:7254   */\n      add\n        /* \"#utility.yul\":7231:7258   */\n      mstore\n        /* \"#utility.yul\":7117:7265   */\n      pop\n      pop\n      pop\n      jump\t// out\n        /* \"#utility.yul\":7271:7696   */\n    tag_322:\n        /* \"#utility.yul\":7349:7354   */\n      0x00\n        /* \"#utility.yul\":7374:7440   */\n      tag_457\n        /* \"#utility.yul\":7390:7439   */\n      tag_458\n        /* \"#utility.yul\":7432:7438   */\n      dup5\n        /* \"#utility.yul\":7390:7439   */\n      tag_320\n      jump\t// in\n    tag_458:\n        /* \"#utility.yul\":7374:7440   */\n      tag_319\n      jump\t// in\n    tag_457:\n        /* \"#utility.yul\":7365:7440   */\n      swap1\n      pop\n        /* \"#utility.yul\":7463:7469   */\n      dup3\n        /* \"#utility.yul\":7456:7461   */\n      dup2\n        /* \"#utility.yul\":7449:7470   */\n      mstore\n        /* \"#utility.yul\":7501:7505   */\n      0x20\n        /* \"#utility.yul\":7494:7499   */\n      dup2\n        /* \"#utility.yul\":7490:7506   */\n      add\n        /* \"#utility.yul\":7539:7542   */\n      dup5\n        /* \"#utility.yul\":7530:7536   */\n      dup5\n        /* \"#utility.yul\":7525:7528   */\n      dup5\n        /* \"#utility.yul\":7521:7537   */\n      add\n        /* \"#utility.yul\":7518:7543   */\n      gt\n        /* \"#utility.yul\":7515:7627   */\n      iszero\n      tag_459\n      jumpi\n        /* \"#utility.yul\":7546:7625   */\n      tag_460\n      tag_316\n      jump\t// in\n    tag_460:\n        /* \"#utility.yul\":7515:7627   */\n    tag_459:\n        /* \"#utility.yul\":7636:7690   */\n      tag_461\n        /* \"#utility.yul\":7683:7689   */\n      dup5\n        /* \"#utility.yul\":7678:7681   */\n      dup3\n        /* \"#utility.yul\":7673:7676   */\n      dup6\n        /* \"#utility.yul\":7636:7690   */\n      tag_321\n      jump\t// in\n    tag_461:\n        /* \"#utility.yul\":7355:7696   */\n      pop\n        /* \"#utility.yul\":7271:7696   */\n      swap4\n      swap3\n      pop\n      pop\n      pop\n      jump\t// out\n        /* \"#utility.yul\":7716:8056   */\n    tag_323:\n        /* \"#utility.yul\":7772:7777   */\n      0x00\n        /* \"#utility.yul\":7821:7824   */\n      dup3\n        /* \"#utility.yul\":7814:7818   */\n      0x1f\n        /* \"#utility.yul\":7806:7812   */\n      dup4\n        /* \"#utility.yul\":7802:7819   */\n      add\n        /* \"#utility.yul\":7798:7825   */\n      slt\n        /* \"#utility.yul\":7788:7910   */\n      tag_463\n      jumpi\n        /* \"#utility.yul\":7829:7908   */\n      tag_464\n      tag_315\n      jump\t// in\n    tag_464:\n        /* \"#utility.yul\":7788:7910   */\n    tag_463:\n        /* \"#utility.yul\":7946:7952   */\n      dup2\n        /* \"#utility.yul\":7933:7953   */\n      calldataload\n        /* \"#utility.yul\":7971:8050   */\n      tag_465\n        /* \"#utility.yul\":8046:8049   */\n      dup5\n        /* \"#utility.yul\":8038:8044   */\n      dup3\n        /* \"#utility.yul\":8031:8035   */\n      0x20\n        /* \"#utility.yul\":8023:8029   */\n      dup7\n        /* \"#utility.yul\":8019:8036   */\n      add\n        /* \"#utility.yul\":7971:8050   */\n      tag_322\n      jump\t// in\n    tag_465:\n        /* \"#utility.yul\":7962:8050   */\n      swap2\n      pop\n        /* \"#utility.yul\":7778:8056   */\n      pop\n        /* \"#utility.yul\":7716:8056   */\n      swap3\n      swap2\n      pop\n      pop\n      jump\t// out\n        /* \"#utility.yul\":8062:8716   */\n    tag_92:\n        /* \"#utility.yul\":8140:8146   */\n      0x00\n        /* \"#utility.yul\":8148:8154   */\n      dup1\n        /* \"#utility.yul\":8197:8199   */\n      0x40\n        /* \"#utility.yul\":8185:8194   */\n      dup4\n        /* \"#utility.yul\":8176:8183   */\n      dup6\n        /* \"#utility.yul\":8172:8195   */\n      sub\n        /* \"#utility.yul\":8168:8200   */\n      slt\n        /* \"#utility.yul\":8165:8284   */\n      iszero\n      tag_467\n      jumpi\n        /* \"#utility.yul\":8203:8282   */\n      tag_468\n      tag_293\n      jump\t// in\n    tag_468:\n        /* \"#utility.yul\":8165:8284   */\n    tag_467:\n        /* \"#utility.yul\":8351:8352   */\n      0x00\n        /* \"#utility.yul\":8340:8349   */\n      dup4\n        /* \"#utility.yul\":8336:8353   */\n      add\n        /* \"#utility.yul\":8323:8354   */\n      calldataload\n        /* \"#utility.yul\":8381:8399   */\n      0xffffffffffffffff\n        /* \"#utility.yul\":8373:8379   */\n      dup2\n        /* \"#utility.yul\":8370:8400   */\n      gt\n        /* \"#utility.yul\":8367:8484   */\n      iszero\n      tag_469\n      jumpi\n        /* \"#utility.yul\":8403:8482   */\n      tag_470\n      tag_294\n      jump\t// in\n    tag_470:\n        /* \"#utility.yul\":8367:8484   */\n    tag_469:\n        /* \"#utility.yul\":8508:8571   */\n      tag_471\n        /* \"#utility.yul\":8563:8570   */\n      dup6\n        /* \"#utility.yul\":8554:8560   */\n      dup3\n        /* \"#utility.yul\":8543:8552   */\n      dup7\n        /* \"#utility.yul\":8539:8561   */\n      add\n        /* \"#utility.yul\":8508:8571   */\n      tag_323\n      jump\t// in\n    tag_471:\n        /* \"#utility.yul\":8498:8571   */\n      swap3\n      pop\n        /* \"#utility.yul\":8294:8581   */\n      pop\n        /* \"#utility.yul\":8620:8622   */\n      0x20\n        /* \"#utility.yul\":8646:8699   */\n      tag_472\n        /* \"#utility.yul\":8691:8698   */\n      dup6\n        /* \"#utility.yul\":8682:8688   */\n      dup3\n        /* \"#utility.yul\":8671:8680   */\n      dup7\n        /* \"#utility.yul\":8667:8689   */\n      add\n        /* \"#utility.yul\":8646:8699   */\n      tag_297\n      jump\t// in\n    tag_472:\n        /* \"#utility.yul\":8636:8699   */\n      swap2\n      pop\n        /* \"#utility.yul\":8591:8709   */\n      pop\n        /* \"#utility.yul\":8062:8716   */\n      swap3\n      pop\n      swap3\n      swap1\n      pop\n      jump\t// out\n        /* \"#utility.yul\":8722:9051   */\n    tag_97:\n        /* \"#utility.yul\":8781:8787   */\n      0x00\n        /* \"#utility.yul\":8830:8832   */\n      0x20\n        /* \"#utility.yul\":8818:8827   */\n      dup3\n        /* \"#utility.yul\":8809:8816   */\n      dup5\n        /* \"#utility.yul\":8805:8828   */\n      sub\n        /* \"#utility.yul\":8801:8833   */\n      slt\n        /* \"#utility.yul\":8798:8917   */\n      iszero\n      tag_474\n      jumpi\n        /* \"#utility.yul\":8836:8915   */\n      tag_475\n      tag_293\n      jump\t// in\n    tag_475:\n        /* \"#utility.yul\":8798:8917   */\n    tag_474:\n        /* \"#utility.yul\":8956:8957   */\n      0x00\n        /* \"#utility.yul\":8981:9034   */\n      tag_476\n        /* \"#utility.yul\":9026:9033   */\n      dup5\n        /* \"#utility.yul\":9017:9023   */\n      dup3\n        /* \"#utility.yul\":9006:9015   */\n      dup6\n        /* \"#utility.yul\":9002:9024   */\n      add\n        /* \"#utility.yul\":8981:9034   */\n      tag_313\n      jump\t// in\n    tag_476:\n        /* \"#utility.yul\":8971:9034   */\n      swap2\n      pop\n        /* \"#utility.yul\":8927:9044   */\n      pop\n        /* \"#utility.yul\":8722:9051   */\n      swap3\n      swap2\n      pop\n      pop\n      jump\t// out\n        /* \"#utility.yul\":9057:9191   */\n    tag_324:\n        /* \"#utility.yul\":9144:9150   */\n      0x00\n        /* \"#utility.yul\":9178:9183   */\n      dup2\n        /* \"#utility.yul\":9172:9184   */\n      mload\n        /* \"#utility.yul\":9162:9184   */\n      swap1\n      pop\n        /* \"#utility.yul\":9057:9191   */\n      swap2\n      swap1\n      pop\n      jump\t// out\n        /* \"#utility.yul\":9197:9401   */\n    tag_325:\n        /* \"#utility.yul\":9316:9327   */\n      0x00\n        /* \"#utility.yul\":9350:9356   */\n      dup3\n        /* \"#utility.yul\":9345:9348   */\n      dup3\n        /* \"#utility.yul\":9338:9357   */\n      mstore\n        /* \"#utility.yul\":9390:9394   */\n      0x20\n        /* \"#utility.yul\":9385:9388   */\n      dup3\n        /* \"#utility.yul\":9381:9395   */\n      add\n        /* \"#utility.yul\":9366:9395   */\n      swap1\n      pop\n        /* \"#utility.yul\":9197:9401   */\n      swap3\n      swap2\n      pop\n      pop\n      jump\t// out\n        /* \"#utility.yul\":9407:9559   */\n    tag_326:\n        /* \"#utility.yul\":9494:9498   */\n      0x00\n        /* \"#utility.yul\":9517:9520   */\n      dup2\n        /* \"#utility.yul\":9509:9520   */\n      swap1\n      pop\n        /* \"#utility.yul\":9547:9551   */\n      0x20\n        /* \"#utility.yul\":9542:9545   */\n      dup3\n        /* \"#utility.yul\":9538:9552   */\n      add\n        /* \"#utility.yul\":9530:9552   */\n      swap1\n      pop\n        /* \"#utility.yul\":9407:9559   */\n      swap2\n      swap1\n      pop\n      jump\t// out\n        /* \"#utility.yul\":9565:9724   */\n    tag_327:\n        /* \"#utility.yul\":9639:9650   */\n      0x00\n        /* \"#utility.yul\":9673:9679   */\n      dup3\n        /* \"#utility.yul\":9668:9671   */\n      dup3\n        /* \"#utility.yul\":9661:9680   */\n      mstore\n        /* \"#utility.yul\":9713:9717   */\n      0x20\n        /* \"#utility.yul\":9708:9711   */\n      dup3\n        /* \"#utility.yul\":9704:9718   */\n      add\n        /* \"#utility.yul\":9689:9718   */\n      swap1\n      pop\n        /* \"#utility.yul\":9565:9724   */\n      swap3\n      swap2\n      pop\n      pop\n      jump\t// out\n        /* \"#utility.yul\":9730:10087   */\n    tag_328:\n        /* \"#utility.yul\":9808:9811   */\n      0x00\n        /* \"#utility.yul\":9836:9875   */\n      tag_482\n        /* \"#utility.yul\":9869:9874   */\n      dup3\n        /* \"#utility.yul\":9836:9875   */\n      tag_298\n      jump\t// in\n    tag_482:\n        /* \"#utility.yul\":9891:9952   */\n      tag_483\n        /* \"#utility.yul\":9945:9951   */\n      dup2\n        /* \"#utility.yul\":9940:9943   */\n      dup6\n        /* \"#utility.yul\":9891:9952   */\n      tag_327\n      jump\t// in\n    tag_483:\n        /* \"#utility.yul\":9884:9952   */\n      swap4\n      pop\n        /* \"#utility.yul\":9961:10026   */\n      tag_484\n        /* \"#utility.yul\":10019:10025   */\n      dup2\n        /* \"#utility.yul\":10014:10017   */\n      dup6\n        /* \"#utility.yul\":10007:10011   */\n      0x20\n        /* \"#utility.yul\":10000:10005   */\n      dup7\n        /* \"#utility.yul\":9996:10012   */\n      add\n        /* \"#utility.yul\":9961:10026   */\n      tag_300\n      jump\t// in\n    tag_484:\n        /* \"#utility.yul\":10051:10080   */\n      tag_485\n        /* \"#utility.yul\":10073:10079   */\n      dup2\n        /* \"#utility.yul\":10051:10080   */\n      tag_301\n      jump\t// in\n    tag_485:\n        /* \"#utility.yul\":10046:10049   */\n      dup5\n        /* \"#utility.yul\":10042:10081   */\n      add\n        /* \"#utility.yul\":10035:10081   */\n      swap2\n      pop\n        /* \"#utility.yul\":9812:10087   */\n      pop\n        /* \"#utility.yul\":9730:10087   */\n      swap3\n      swap2\n      pop\n      pop\n      jump\t// out\n        /* \"#utility.yul\":10093:10201   */\n    tag_329:\n        /* \"#utility.yul\":10170:10194   */\n      tag_487\n        /* \"#utility.yul\":10188:10193   */\n      dup2\n        /* \"#utility.yul\":10170:10194   */\n      tag_295\n      jump\t// in\n    tag_487:\n        /* \"#utility.yul\":10165:10168   */\n      dup3\n        /* \"#utility.yul\":10158:10195   */\n      mstore\n        /* \"#utility.yul\":10093:10201   */\n      pop\n      pop\n      jump\t// out\n        /* \"#utility.yul\":10267:11032   */\n    tag_330:\n        /* \"#utility.yul\":10366:10369   */\n      0x00\n        /* \"#utility.yul\":10402:10406   */\n      0x60\n        /* \"#utility.yul\":10397:10400   */\n      dup4\n        /* \"#utility.yul\":10393:10407   */\n      add\n        /* \"#utility.yul\":10489:10493   */\n      0x00\n        /* \"#utility.yul\":10482:10487   */\n      dup4\n        /* \"#utility.yul\":10478:10494   */\n      add\n        /* \"#utility.yul\":10472:10495   */\n      mload\n        /* \"#utility.yul\":10542:10545   */\n      dup5\n        /* \"#utility.yul\":10536:10540   */\n      dup3\n        /* \"#utility.yul\":10532:10546   */\n      sub\n        /* \"#utility.yul\":10525:10529   */\n      0x00\n        /* \"#utility.yul\":10520:10523   */\n      dup7\n        /* \"#utility.yul\":10516:10530   */\n      add\n        /* \"#utility.yul\":10509:10547   */\n      mstore\n        /* \"#utility.yul\":10568:10641   */\n      tag_489\n        /* \"#utility.yul\":10636:10640   */\n      dup3\n        /* \"#utility.yul\":10622:10634   */\n      dup3\n        /* \"#utility.yul\":10568:10641   */\n      tag_328\n      jump\t// in\n    tag_489:\n        /* \"#utility.yul\":10560:10641   */\n      swap2\n      pop\n        /* \"#utility.yul\":10417:10652   */\n      pop\n        /* \"#utility.yul\":10736:10740   */\n      0x20\n        /* \"#utility.yul\":10729:10734   */\n      dup4\n        /* \"#utility.yul\":10725:10741   */\n      add\n        /* \"#utility.yul\":10719:10742   */\n      mload\n        /* \"#utility.yul\":10755:10818   */\n      tag_490\n        /* \"#utility.yul\":10812:10816   */\n      0x20\n        /* \"#utility.yul\":10807:10810   */\n      dup7\n        /* \"#utility.yul\":10803:10817   */\n      add\n        /* \"#utility.yul\":10789:10801   */\n      dup3\n        /* \"#utility.yul\":10755:10818   */\n      tag_329\n      jump\t// in\n    tag_490:\n        /* \"#utility.yul\":10662:10828   */\n      pop\n        /* \"#utility.yul\":10913:10917   */\n      0x40\n        /* \"#utility.yul\":10906:10911   */\n      dup4\n        /* \"#utility.yul\":10902:10918   */\n      add\n        /* \"#utility.yul\":10896:10919   */\n      mload\n        /* \"#utility.yul\":10932:10995   */\n      tag_491\n        /* \"#utility.yul\":10989:10993   */\n      0x40\n        /* \"#utility.yul\":10984:10987   */\n      dup7\n        /* \"#utility.yul\":10980:10994   */\n      add\n        /* \"#utility.yul\":10966:10978   */\n      dup3\n        /* \"#utility.yul\":10932:10995   */\n      tag_329\n      jump\t// in\n    tag_491:\n        /* \"#utility.yul\":10838:11005   */\n      pop\n        /* \"#utility.yul\":11022:11026   */\n      dup1\n        /* \"#utility.yul\":11015:11026   */\n      swap2\n      pop\n        /* \"#utility.yul\":10371:11032   */\n      pop\n        /* \"#utility.yul\":10267:11032   */\n      swap3\n      swap2\n      pop\n      pop\n      jump\t// out\n        /* \"#utility.yul\":11038:11274   */\n    tag_331:\n        /* \"#utility.yul\":11147:11157   */\n      0x00\n        /* \"#utility.yul\":11182:11268   */\n      tag_493\n        /* \"#utility.yul\":11264:11267   */\n      dup4\n        /* \"#utility.yul\":11256:11262   */\n      dup4\n        /* \"#utility.yul\":11182:11268   */\n      tag_330\n      jump\t// in\n    tag_493:\n        /* \"#utility.yul\":11168:11268   */\n      swap1\n      pop\n        /* \"#utility.yul\":11038:11274   */\n      swap3\n      swap2\n      pop\n      pop\n      jump\t// out\n        /* \"#utility.yul\":11280:11413   */\n    tag_332:\n        /* \"#utility.yul\":11370:11374   */\n      0x00\n        /* \"#utility.yul\":11402:11406   */\n      0x20\n        /* \"#utility.yul\":11397:11400   */\n      dup3\n        /* \"#utility.yul\":11393:11407   */\n      add\n        /* \"#utility.yul\":11385:11407   */\n      swap1\n      pop\n        /* \"#utility.yul\":11280:11413   */\n      swap2\n      swap1\n      pop\n      jump\t// out\n        /* \"#utility.yul\":11483:12554   */\n    tag_333:\n        /* \"#utility.yul\":11642:11645   */\n      0x00\n        /* \"#utility.yul\":11671:11745   */\n      tag_496\n        /* \"#utility.yul\":11739:11744   */\n      dup3\n        /* \"#utility.yul\":11671:11745   */\n      tag_324\n      jump\t// in\n    tag_496:\n        /* \"#utility.yul\":11761:11867   */\n      tag_497\n        /* \"#utility.yul\":11860:11866   */\n      dup2\n        /* \"#utility.yul\":11855:11858   */\n      dup6\n        /* \"#utility.yul\":11761:11867   */\n      tag_325\n      jump\t// in\n    tag_497:\n        /* \"#utility.yul\":11754:11867   */\n      swap4\n      pop\n        /* \"#utility.yul\":11893:11896   */\n      dup4\n        /* \"#utility.yul\":11938:11942   */\n      0x20\n        /* \"#utility.yul\":11930:11936   */\n      dup3\n        /* \"#utility.yul\":11926:11943   */\n      mul\n        /* \"#utility.yul\":11921:11924   */\n      dup6\n        /* \"#utility.yul\":11917:11944   */\n      add\n        /* \"#utility.yul\":11968:12044   */\n      tag_498\n        /* \"#utility.yul\":12038:12043   */\n      dup6\n        /* \"#utility.yul\":11968:12044   */\n      tag_326\n      jump\t// in\n    tag_498:\n        /* \"#utility.yul\":12067:12074   */\n      dup1\n        /* \"#utility.yul\":12098:12099   */\n      0x00\n        /* \"#utility.yul\":12083:12509   */\n    tag_499:\n        /* \"#utility.yul\":12108:12114   */\n      dup6\n        /* \"#utility.yul\":12105:12106   */\n      dup2\n        /* \"#utility.yul\":12102:12115   */\n      lt\n        /* \"#utility.yul\":12083:12509   */\n      iszero\n      tag_501\n      jumpi\n        /* \"#utility.yul\":12179:12188   */\n      dup5\n        /* \"#utility.yul\":12173:12177   */\n      dup5\n        /* \"#utility.yul\":12169:12189   */\n      sub\n        /* \"#utility.yul\":12164:12167   */\n      dup10\n        /* \"#utility.yul\":12157:12190   */\n      mstore\n        /* \"#utility.yul\":12230:12236   */\n      dup2\n        /* \"#utility.yul\":12224:12237   */\n      mload\n        /* \"#utility.yul\":12258:12362   */\n      tag_502\n        /* \"#utility.yul\":12357:12361   */\n      dup6\n        /* \"#utility.yul\":12342:12355   */\n      dup3\n        /* \"#utility.yul\":12258:12362   */\n      tag_331\n      jump\t// in\n    tag_502:\n        /* \"#utility.yul\":12250:12362   */\n      swap5\n      pop\n        /* \"#utility.yul\":12385:12465   */\n      tag_503\n        /* \"#utility.yul\":12458:12464   */\n      dup4\n        /* \"#utility.yul\":12385:12465   */\n      tag_332\n      jump\t// in\n    tag_503:\n        /* \"#utility.yul\":12375:12465   */\n      swap3\n      pop\n        /* \"#utility.yul\":12494:12498   */\n      0x20\n        /* \"#utility.yul\":12489:12492   */\n      dup11\n        /* \"#utility.yul\":12485:12499   */\n      add\n        /* \"#utility.yul\":12478:12499   */\n      swap10\n      pop\n        /* \"#utility.yul\":12143:12509   */\n      pop\n        /* \"#utility.yul\":12130:12131   */\n      0x01\n        /* \"#utility.yul\":12127:12128   */\n      dup2\n        /* \"#utility.yul\":12123:12132   */\n      add\n        /* \"#utility.yul\":12118:12132   */\n      swap1\n      pop\n        /* \"#utility.yul\":12083:12509   */\n      jump(tag_499)\n    tag_501:\n        /* \"#utility.yul\":12087:12101   */\n      pop\n        /* \"#utility.yul\":12525:12529   */\n      dup3\n        /* \"#utility.yul\":12518:12529   */\n      swap8\n      pop\n        /* \"#utility.yul\":12545:12548   */\n      dup8\n        /* \"#utility.yul\":12538:12548   */\n      swap6\n      pop\n        /* \"#utility.yul\":11647:12554   */\n      pop\n      pop\n      pop\n      pop\n      pop\n        /* \"#utility.yul\":11483:12554   */\n      swap3\n      swap2\n      pop\n      pop\n      jump\t// out\n        /* \"#utility.yul\":12560:13013   */\n    tag_114:\n        /* \"#utility.yul\":12743:12747   */\n      0x00\n        /* \"#utility.yul\":12781:12783   */\n      0x20\n        /* \"#utility.yul\":12770:12779   */\n      dup3\n        /* \"#utility.yul\":12766:12784   */\n      add\n        /* \"#utility.yul\":12758:12784   */\n      swap1\n      pop\n        /* \"#utility.yul\":12830:12839   */\n      dup2\n        /* \"#utility.yul\":12824:12828   */\n      dup2\n        /* \"#utility.yul\":12820:12840   */\n      sub\n        /* \"#utility.yul\":12816:12817   */\n      0x00\n        /* \"#utility.yul\":12805:12814   */\n      dup4\n        /* \"#utility.yul\":12801:12818   */\n      add\n        /* \"#utility.yul\":12794:12841   */\n      mstore\n        /* \"#utility.yul\":12858:13006   */\n      tag_505\n        /* \"#utility.yul\":13001:13005   */\n      dup2\n        /* \"#utility.yul\":12992:12998   */\n      dup5\n        /* \"#utility.yul\":12858:13006   */\n      tag_333\n      jump\t// in\n    tag_505:\n        /* \"#utility.yul\":12850:13006   */\n      swap1\n      pop\n        /* \"#utility.yul\":12560:13013   */\n      swap3\n      swap2\n      pop\n      pop\n      jump\t// out\n        /* \"#utility.yul\":13019:13199   */\n    tag_334:\n        /* \"#utility.yul\":13067:13144   */\n      0x4e487b7100000000000000000000000000000000000000000000000000000000\n        /* \"#utility.yul\":13064:13065   */\n      0x00\n        /* \"#utility.yul\":13057:13145   */\n      mstore\n        /* \"#utility.yul\":13164:13168   */\n      0x22\n        /* \"#utility.yul\":13161:13162   */\n      0x04\n        /* \"#utility.yul\":13154:13169   */\n      mstore\n        /* \"#utility.yul\":13188:13192   */\n      0x24\n        /* \"#utility.yul\":13185:13186   */\n      0x00\n        /* \"#utility.yul\":13178:13193   */\n      revert\n        /* \"#utility.yul\":13205:13525   */\n    tag_118:\n        /* \"#utility.yul\":13249:13255   */\n      0x00\n        /* \"#utility.yul\":13286:13287   */\n      0x02\n        /* \"#utility.yul\":13280:13284   */\n      dup3\n        /* \"#utility.yul\":13276:13288   */\n      div\n        /* \"#utility.yul\":13266:13288   */\n      swap1\n      pop\n        /* \"#utility.yul\":13333:13334   */\n      0x01\n        /* \"#utility.yul\":13327:13331   */\n      dup3\n        /* \"#utility.yul\":13323:13335   */\n      and\n        /* \"#utility.yul\":13354:13372   */\n      dup1\n        /* \"#utility.yul\":13344:13425   */\n      tag_508\n      jumpi\n        /* \"#utility.yul\":13410:13414   */\n      0x7f\n        /* \"#utility.yul\":13402:13408   */\n      dup3\n        /* \"#utility.yul\":13398:13415   */\n      and\n        /* \"#utility.yul\":13388:13415   */\n      swap2\n      pop\n        /* \"#utility.yul\":13344:13425   */\n    tag_508:\n        /* \"#utility.yul\":13472:13474   */\n      0x20\n        /* \"#utility.yul\":13464:13470   */\n      dup3\n        /* \"#utility.yul\":13461:13475   */\n      lt\n        /* \"#utility.yul\":13441:13459   */\n      dup2\n        /* \"#utility.yul\":13438:13476   */\n      sub\n        /* \"#utility.yul\":13435:13519   */\n      tag_509\n      jumpi\n        /* \"#utility.yul\":13491:13509   */\n      tag_510\n      tag_334\n      jump\t// in\n    tag_510:\n        /* \"#utility.yul\":13435:13519   */\n    tag_509:\n        /* \"#utility.yul\":13256:13525   */\n      pop\n        /* \"#utility.yul\":13205:13525   */\n      swap2\n      swap1\n      pop\n      jump\t// out\n        /* \"#utility.yul\":13531:13694   */\n    tag_335:\n        /* \"#utility.yul\":13671:13686   */\n      0x4e6f7420746865206f776e657200000000000000000000000000000000000000\n        /* \"#utility.yul\":13667:13668   */\n      0x00\n        /* \"#utility.yul\":13659:13665   */\n      dup3\n        /* \"#utility.yul\":13655:13669   */\n      add\n        /* \"#utility.yul\":13648:13687   */\n      mstore\n        /* \"#utility.yul\":13531:13694   */\n      pop\n      jump\t// out\n        /* \"#utility.yul\":13700:14066   */\n    tag_336:\n        /* \"#utility.yul\":13842:13845   */\n      0x00\n        /* \"#utility.yul\":13863:13930   */\n      tag_513\n        /* \"#utility.yul\":13927:13929   */\n      0x0d\n        /* \"#utility.yul\":13922:13925   */\n      dup4\n        /* \"#utility.yul\":13863:13930   */\n      tag_299\n      jump\t// in\n    tag_513:\n        /* \"#utility.yul\":13856:13930   */\n      swap2\n      pop\n        /* \"#utility.yul\":13939:14032   */\n      tag_514\n        /* \"#utility.yul\":14028:14031   */\n      dup3\n        /* \"#utility.yul\":13939:14032   */\n      tag_335\n      jump\t// in\n    tag_514:\n        /* \"#utility.yul\":14057:14059   */\n      0x20\n        /* \"#utility.yul\":14052:14055   */\n      dup3\n        /* \"#utility.yul\":14048:14060   */\n      add\n        /* \"#utility.yul\":14041:14060   */\n      swap1\n      pop\n        /* \"#utility.yul\":13700:14066   */\n      swap2\n      swap1\n      pop\n      jump\t// out\n        /* \"#utility.yul\":14072:14491   */\n    tag_141:\n        /* \"#utility.yul\":14238:14242   */\n      0x00\n        /* \"#utility.yul\":14276:14278   */\n      0x20\n        /* \"#utility.yul\":14265:14274   */\n      dup3\n        /* \"#utility.yul\":14261:14279   */\n      add\n        /* \"#utility.yul\":14253:14279   */\n      swap1\n      pop\n        /* \"#utility.yul\":14325:14334   */\n      dup2\n        /* \"#utility.yul\":14319:14323   */\n      dup2\n        /* \"#utility.yul\":14315:14335   */\n      sub\n        /* \"#utility.yul\":14311:14312   */\n      0x00\n        /* \"#utility.yul\":14300:14309   */\n      dup4\n        /* \"#utility.yul\":14296:14313   */\n      add\n        /* \"#utility.yul\":14289:14336   */\n      mstore\n        /* \"#utility.yul\":14353:14484   */\n      tag_516\n        /* \"#utility.yul\":14479:14483   */\n      dup2\n        /* \"#utility.yul\":14353:14484   */\n      tag_336\n      jump\t// in\n    tag_516:\n        /* \"#utility.yul\":14345:14484   */\n      swap1\n      pop\n        /* \"#utility.yul\":14072:14491   */\n      swap2\n      swap1\n      pop\n      jump\t// out\n        /* \"#utility.yul\":14497:14669   */\n    tag_337:\n        /* \"#utility.yul\":14637:14661   */\n      0x43616d706169676e206973206e6f742061637469766500000000000000000000\n        /* \"#utility.yul\":14633:14634   */\n      0x00\n        /* \"#utility.yul\":14625:14631   */\n      dup3\n        /* \"#utility.yul\":14621:14635   */\n      add\n        /* \"#utility.yul\":14614:14662   */\n      mstore\n        /* \"#utility.yul\":14497:14669   */\n      pop\n      jump\t// out\n        /* \"#utility.yul\":14675:15041   */\n    tag_338:\n        /* \"#utility.yul\":14817:14820   */\n      0x00\n        /* \"#utility.yul\":14838:14905   */\n      tag_519\n        /* \"#utility.yul\":14902:14904   */\n      0x16\n        /* \"#utility.yul\":14897:14900   */\n      dup4\n        /* \"#utility.yul\":14838:14905   */\n      tag_299\n      jump\t// in\n    tag_519:\n        /* \"#utility.yul\":14831:14905   */\n      swap2\n      pop\n        /* \"#utility.yul\":14914:15007   */\n      tag_520\n        /* \"#utility.yul\":15003:15006   */\n      dup3\n        /* \"#utility.yul\":14914:15007   */\n      tag_337\n      jump\t// in\n    tag_520:\n        /* \"#utility.yul\":15032:15034   */\n      0x20\n        /* \"#utility.yul\":15027:15030   */\n      dup3\n        /* \"#utility.yul\":15023:15035   */\n      add\n        /* \"#utility.yul\":15016:15035   */\n      swap1\n      pop\n        /* \"#utility.yul\":14675:15041   */\n      swap2\n      swap1\n      pop\n      jump\t// out\n        /* \"#utility.yul\":15047:15466   */\n    tag_149:\n        /* \"#utility.yul\":15213:15217   */\n      0x00\n        /* \"#utility.yul\":15251:15253   */\n      0x20\n        /* \"#utility.yul\":15240:15249   */\n      dup3\n        /* \"#utility.yul\":15236:15254   */\n      add\n        /* \"#utility.yul\":15228:15254   */\n      swap1\n      pop\n        /* \"#utility.yul\":15300:15309   */\n      dup2\n        /* \"#utility.yul\":15294:15298   */\n      dup2\n        /* \"#utility.yul\":15290:15310   */\n      sub\n        /* \"#utility.yul\":15286:15287   */\n      0x00\n        /* \"#utility.yul\":15275:15284   */\n      dup4\n        /* \"#utility.yul\":15271:15288   */\n      add\n        /* \"#utility.yul\":15264:15311   */\n      mstore\n        /* \"#utility.yul\":15328:15459   */\n      tag_522\n        /* \"#utility.yul\":15454:15458   */\n      dup2\n        /* \"#utility.yul\":15328:15459   */\n      tag_338\n      jump\t// in\n    tag_522:\n        /* \"#utility.yul\":15320:15459   */\n      swap1\n      pop\n        /* \"#utility.yul\":15047:15466   */\n      swap2\n      swap1\n      pop\n      jump\t// out\n        /* \"#utility.yul\":15472:15652   */\n    tag_339:\n        /* \"#utility.yul\":15520:15597   */\n      0x4e487b7100000000000000000000000000000000000000000000000000000000\n        /* \"#utility.yul\":15517:15518   */\n      0x00\n        /* \"#utility.yul\":15510:15598   */\n      mstore\n        /* \"#utility.yul\":15617:15621   */\n      0x11\n        /* \"#utility.yul\":15614:15615   */\n      0x04\n        /* \"#utility.yul\":15607:15622   */\n      mstore\n        /* \"#utility.yul\":15641:15645   */\n      0x24\n        /* \"#utility.yul\":15638:15639   */\n      0x00\n        /* \"#utility.yul\":15631:15646   */\n      revert\n        /* \"#utility.yul\":15658:16068   */\n    tag_152:\n        /* \"#utility.yul\":15698:15705   */\n      0x00\n        /* \"#utility.yul\":15721:15741   */\n      tag_525\n        /* \"#utility.yul\":15739:15740   */\n      dup3\n        /* \"#utility.yul\":15721:15741   */\n      tag_295\n      jump\t// in\n    tag_525:\n        /* \"#utility.yul\":15716:15741   */\n      swap2\n      pop\n        /* \"#utility.yul\":15755:15775   */\n      tag_526\n        /* \"#utility.yul\":15773:15774   */\n      dup4\n        /* \"#utility.yul\":15755:15775   */\n      tag_295\n      jump\t// in\n    tag_526:\n        /* \"#utility.yul\":15750:15775   */\n      swap3\n      pop\n        /* \"#utility.yul\":15810:15811   */\n      dup3\n        /* \"#utility.yul\":15807:15808   */\n      dup3\n        /* \"#utility.yul\":15803:15812   */\n      mul\n        /* \"#utility.yul\":15832:15862   */\n      tag_527\n        /* \"#utility.yul\":15850:15861   */\n      dup2\n        /* \"#utility.yul\":15832:15862   */\n      tag_295\n      jump\t// in\n    tag_527:\n        /* \"#utility.yul\":15821:15862   */\n      swap2\n      pop\n        /* \"#utility.yul\":16011:16012   */\n      dup3\n        /* \"#utility.yul\":16002:16009   */\n      dup3\n        /* \"#utility.yul\":15998:16013   */\n      div\n        /* \"#utility.yul\":15995:15996   */\n      dup5\n        /* \"#utility.yul\":15992:16014   */\n      eq\n        /* \"#utility.yul\":15972:15973   */\n      dup4\n        /* \"#utility.yul\":15965:15974   */\n      iszero\n        /* \"#utility.yul\":15945:16028   */\n      or\n        /* \"#utility.yul\":15922:16061   */\n      tag_528\n      jumpi\n        /* \"#utility.yul\":16041:16059   */\n      tag_529\n      tag_339\n      jump\t// in\n    tag_529:\n        /* \"#utility.yul\":15922:16061   */\n    tag_528:\n        /* \"#utility.yul\":15706:16068   */\n      pop\n        /* \"#utility.yul\":15658:16068   */\n      swap3\n      swap2\n      pop\n      pop\n      jump\t// out\n        /* \"#utility.yul\":16074:16265   */\n    tag_154:\n        /* \"#utility.yul\":16114:16117   */\n      0x00\n        /* \"#utility.yul\":16133:16153   */\n      tag_531\n        /* \"#utility.yul\":16151:16152   */\n      dup3\n        /* \"#utility.yul\":16133:16153   */\n      tag_295\n      jump\t// in\n    tag_531:\n        /* \"#utility.yul\":16128:16153   */\n      swap2\n      pop\n        /* \"#utility.yul\":16167:16187   */\n      tag_532\n        /* \"#utility.yul\":16185:16186   */\n      dup4\n        /* \"#utility.yul\":16167:16187   */\n      tag_295\n      jump\t// in\n    tag_532:\n        /* \"#utility.yul\":16162:16187   */\n      swap3\n      pop\n        /* \"#utility.yul\":16210:16211   */\n      dup3\n        /* \"#utility.yul\":16207:16208   */\n      dup3\n        /* \"#utility.yul\":16203:16212   */\n      add\n        /* \"#utility.yul\":16196:16212   */\n      swap1\n      pop\n        /* \"#utility.yul\":16231:16234   */\n      dup1\n        /* \"#utility.yul\":16228:16229   */\n      dup3\n        /* \"#utility.yul\":16225:16235   */\n      gt\n        /* \"#utility.yul\":16222:16258   */\n      iszero\n      tag_533\n      jumpi\n        /* \"#utility.yul\":16238:16256   */\n      tag_534\n      tag_339\n      jump\t// in\n    tag_534:\n        /* \"#utility.yul\":16222:16258   */\n    tag_533:\n        /* \"#utility.yul\":16074:16265   */\n      swap3\n      swap2\n      pop\n      pop\n      jump\t// out\n        /* \"#utility.yul\":16271:16444   */\n    tag_340:\n        /* \"#utility.yul\":16411:16436   */\n      0x43616d706169676e206e6f74205375636365737366756c000000000000000000\n        /* \"#utility.yul\":16407:16408   */\n      0x00\n        /* \"#utility.yul\":16399:16405   */\n      dup3\n        /* \"#utility.yul\":16395:16409   */\n      add\n        /* \"#utility.yul\":16388:16437   */\n      mstore\n        /* \"#utility.yul\":16271:16444   */\n      pop\n      jump\t// out\n        /* \"#utility.yul\":16450:16816   */\n    tag_341:\n        /* \"#utility.yul\":16592:16595   */\n      0x00\n        /* \"#utility.yul\":16613:16680   */\n      tag_537\n        /* \"#utility.yul\":16677:16679   */\n      0x17\n        /* \"#utility.yul\":16672:16675   */\n      dup4\n        /* \"#utility.yul\":16613:16680   */\n      tag_299\n      jump\t// in\n    tag_537:\n        /* \"#utility.yul\":16606:16680   */\n      swap2\n      pop\n        /* \"#utility.yul\":16689:16782   */\n      tag_538\n        /* \"#utility.yul\":16778:16781   */\n      dup3\n        /* \"#utility.yul\":16689:16782   */\n      tag_340\n      jump\t// in\n    tag_538:\n        /* \"#utility.yul\":16807:16809   */\n      0x20\n        /* \"#utility.yul\":16802:16805   */\n      dup3\n        /* \"#utility.yul\":16798:16810   */\n      add\n        /* \"#utility.yul\":16791:16810   */\n      swap1\n      pop\n        /* \"#utility.yul\":16450:16816   */\n      swap2\n      swap1\n      pop\n      jump\t// out\n        /* \"#utility.yul\":16822:17241   */\n    tag_167:\n        /* \"#utility.yul\":16988:16992   */\n      0x00\n        /* \"#utility.yul\":17026:17028   */\n      0x20\n        /* \"#utility.yul\":17015:17024   */\n      dup3\n        /* \"#utility.yul\":17011:17029   */\n      add\n        /* \"#utility.yul\":17003:17029   */\n      swap1\n      pop\n        /* \"#utility.yul\":17075:17084   */\n      dup2\n        /* \"#utility.yul\":17069:17073   */\n      dup2\n        /* \"#utility.yul\":17065:17085   */\n      sub\n        /* \"#utility.yul\":17061:17062   */\n      0x00\n        /* \"#utility.yul\":17050:17059   */\n      dup4\n        /* \"#utility.yul\":17046:17063   */\n      add\n        /* \"#utility.yul\":17039:17086   */\n      mstore\n        /* \"#utility.yul\":17103:17234   */\n      tag_540\n        /* \"#utility.yul\":17229:17233   */\n      dup2\n        /* \"#utility.yul\":17103:17234   */\n      tag_341\n      jump\t// in\n    tag_540:\n        /* \"#utility.yul\":17095:17234   */\n      swap1\n      pop\n        /* \"#utility.yul\":16822:17241   */\n      swap2\n      swap1\n      pop\n      jump\t// out\n        /* \"#utility.yul\":17247:17419   */\n    tag_342:\n        /* \"#utility.yul\":17387:17411   */\n      0x4e6f2062616c616e636520746f20776974686472617700000000000000000000\n        /* \"#utility.yul\":17383:17384   */\n      0x00\n        /* \"#utility.yul\":17375:17381   */\n      dup3\n        /* \"#utility.yul\":17371:17385   */\n      add\n        /* \"#utility.yul\":17364:17412   */\n      mstore\n        /* \"#utility.yul\":17247:17419   */\n      pop\n      jump\t// out\n        /* \"#utility.yul\":17425:17791   */\n    tag_343:\n        /* \"#utility.yul\":17567:17570   */\n      0x00\n        /* \"#utility.yul\":17588:17655   */\n      tag_543\n        /* \"#utility.yul\":17652:17654   */\n      0x16\n        /* \"#utility.yul\":17647:17650   */\n      dup4\n        /* \"#utility.yul\":17588:17655   */\n      tag_299\n      jump\t// in\n    tag_543:\n        /* \"#utility.yul\":17581:17655   */\n      swap2\n      pop\n        /* \"#utility.yul\":17664:17757   */\n      tag_544\n        /* \"#utility.yul\":17753:17756   */\n      dup3\n        /* \"#utility.yul\":17664:17757   */\n      tag_342\n      jump\t// in\n    tag_544:\n        /* \"#utility.yul\":17782:17784   */\n      0x20\n        /* \"#utility.yul\":17777:17780   */\n      dup3\n        /* \"#utility.yul\":17773:17785   */\n      add\n        /* \"#utility.yul\":17766:17785   */\n      swap1\n      pop\n        /* \"#utility.yul\":17425:17791   */\n      swap2\n      swap1\n      pop\n      jump\t// out\n        /* \"#utility.yul\":17797:18216   */\n    tag_170:\n        /* \"#utility.yul\":17963:17967   */\n      0x00\n        /* \"#utility.yul\":18001:18003   */\n      0x20\n        /* \"#utility.yul\":17990:17999   */\n      dup3\n        /* \"#utility.yul\":17986:18004   */\n      add\n        /* \"#utility.yul\":17978:18004   */\n      swap1\n      pop\n        /* \"#utility.yul\":18050:18059   */\n      dup2\n        /* \"#utility.yul\":18044:18048   */\n      dup2\n        /* \"#utility.yul\":18040:18060   */\n      sub\n        /* \"#utility.yul\":18036:18037   */\n      0x00\n        /* \"#utility.yul\":18025:18034   */\n      dup4\n        /* \"#utility.yul\":18021:18038   */\n      add\n        /* \"#utility.yul\":18014:18061   */\n      mstore\n        /* \"#utility.yul\":18078:18209   */\n      tag_546\n        /* \"#utility.yul\":18204:18208   */\n      dup2\n        /* \"#utility.yul\":18078:18209   */\n      tag_343\n      jump\t// in\n    tag_546:\n        /* \"#utility.yul\":18070:18209   */\n      swap1\n      pop\n        /* \"#utility.yul\":17797:18216   */\n      swap2\n      swap1\n      pop\n      jump\t// out\n        /* \"#utility.yul\":18222:18393   */\n    tag_344:\n        /* \"#utility.yul\":18362:18385   */\n      0x526566756e6473206e6f7420617661696c61626c650000000000000000000000\n        /* \"#utility.yul\":18358:18359   */\n      0x00\n        /* \"#utility.yul\":18350:18356   */\n      dup3\n        /* \"#utility.yul\":18346:18360   */\n      add\n        /* \"#utility.yul\":18339:18386   */\n      mstore\n        /* \"#utility.yul\":18222:18393   */\n      pop\n      jump\t// out\n        /* \"#utility.yul\":18399:18765   */\n    tag_345:\n        /* \"#utility.yul\":18541:18544   */\n      0x00\n        /* \"#utility.yul\":18562:18629   */\n      tag_549\n        /* \"#utility.yul\":18626:18628   */\n      0x15\n        /* \"#utility.yul\":18621:18624   */\n      dup4\n        /* \"#utility.yul\":18562:18629   */\n      tag_299\n      jump\t// in\n    tag_549:\n        /* \"#utility.yul\":18555:18629   */\n      swap2\n      pop\n        /* \"#utility.yul\":18638:18731   */\n      tag_550\n        /* \"#utility.yul\":18727:18730   */\n      dup3\n        /* \"#utility.yul\":18638:18731   */\n      tag_344\n      jump\t// in\n    tag_550:\n        /* \"#utility.yul\":18756:18758   */\n      0x20\n        /* \"#utility.yul\":18751:18754   */\n      dup3\n        /* \"#utility.yul\":18747:18759   */\n      add\n        /* \"#utility.yul\":18740:18759   */\n      swap1\n      pop\n        /* \"#utility.yul\":18399:18765   */\n      swap2\n      swap1\n      pop\n      jump\t// out\n        /* \"#utility.yul\":18771:19190   */\n    tag_181:\n        /* \"#utility.yul\":18937:18941   */\n      0x00\n        /* \"#utility.yul\":18975:18977   */\n      0x20\n        /* \"#utility.yul\":18964:18973   */\n      dup3\n        /* \"#utility.yul\":18960:18978   */\n      add\n        /* \"#utility.yul\":18952:18978   */\n      swap1\n      pop\n        /* \"#utility.yul\":19024:19033   */\n      dup2\n        /* \"#utility.yul\":19018:19022   */\n      dup2\n        /* \"#utility.yul\":19014:19034   */\n      sub\n        /* \"#utility.yul\":19010:19011   */\n      0x00\n        /* \"#utility.yul\":18999:19008   */\n      dup4\n        /* \"#utility.yul\":18995:19012   */\n      add\n        /* \"#utility.yul\":18988:19035   */\n      mstore\n        /* \"#utility.yul\":19052:19183   */\n      tag_552\n        /* \"#utility.yul\":19178:19182   */\n      dup2\n        /* \"#utility.yul\":19052:19183   */\n      tag_345\n      jump\t// in\n    tag_552:\n        /* \"#utility.yul\":19044:19183   */\n      swap1\n      pop\n        /* \"#utility.yul\":18771:19190   */\n      swap2\n      swap1\n      pop\n      jump\t// out\n        /* \"#utility.yul\":19196:19371   */\n    tag_346:\n        /* \"#utility.yul\":19336:19363   */\n      0x4e6f20636f6e747269627574696f6e20746f20726566756e6400000000000000\n        /* \"#utility.yul\":19332:19333   */\n      0x00\n        /* \"#utility.yul\":19324:19330   */\n      dup3\n        /* \"#utility.yul\":19320:19334   */\n      add\n        /* \"#utility.yul\":19313:19364   */\n      mstore\n        /* \"#utility.yul\":19196:19371   */\n      pop\n      jump\t// out\n        /* \"#utility.yul\":19377:19743   */\n    tag_347:\n        /* \"#utility.yul\":19519:19522   */\n      0x00\n        /* \"#utility.yul\":19540:19607   */\n      tag_555\n        /* \"#utility.yul\":19604:19606   */\n      0x19\n        /* \"#utility.yul\":19599:19602   */\n      dup4\n        /* \"#utility.yul\":19540:19607   */\n      tag_299\n      jump\t// in\n    tag_555:\n        /* \"#utility.yul\":19533:19607   */\n      swap2\n      pop\n        /* \"#utility.yul\":19616:19709   */\n      tag_556\n        /* \"#utility.yul\":19705:19708   */\n      dup3\n        /* \"#utility.yul\":19616:19709   */\n      tag_346\n      jump\t// in\n    tag_556:\n        /* \"#utility.yul\":19734:19736   */\n      0x20\n        /* \"#utility.yul\":19729:19732   */\n      dup3\n        /* \"#utility.yul\":19725:19737   */\n      add\n        /* \"#utility.yul\":19718:19737   */\n      swap1\n      pop\n        /* \"#utility.yul\":19377:19743   */\n      swap2\n      swap1\n      pop\n      jump\t// out\n        /* \"#utility.yul\":19749:20168   */\n    tag_184:\n        /* \"#utility.yul\":19915:19919   */\n      0x00\n        /* \"#utility.yul\":19953:19955   */\n      0x20\n        /* \"#utility.yul\":19942:19951   */\n      dup3\n        /* \"#utility.yul\":19938:19956   */\n      add\n        /* \"#utility.yul\":19930:19956   */\n      swap1\n      pop\n        /* \"#utility.yul\":20002:20011   */\n      dup2\n        /* \"#utility.yul\":19996:20000   */\n      dup2\n        /* \"#utility.yul\":19992:20012   */\n      sub\n        /* \"#utility.yul\":19988:19989   */\n      0x00\n        /* \"#utility.yul\":19977:19986   */\n      dup4\n        /* \"#utility.yul\":19973:19990   */\n      add\n        /* \"#utility.yul\":19966:20013   */\n      mstore\n        /* \"#utility.yul\":20030:20161   */\n      tag_558\n        /* \"#utility.yul\":20156:20160   */\n      dup2\n        /* \"#utility.yul\":20030:20161   */\n      tag_347\n      jump\t// in\n    tag_558:\n        /* \"#utility.yul\":20022:20161   */\n      swap1\n      pop\n        /* \"#utility.yul\":19749:20168   */\n      swap2\n      swap1\n      pop\n      jump\t// out\n        /* \"#utility.yul\":20174:20343   */\n    tag_348:\n        /* \"#utility.yul\":20314:20335   */\n      0x5469657220646f6573206e6f7420657869737400000000000000000000000000\n        /* \"#utility.yul\":20310:20311   */\n      0x00\n        /* \"#utility.yul\":20302:20308   */\n      dup3\n        /* \"#utility.yul\":20298:20312   */\n      add\n        /* \"#utility.yul\":20291:20336   */\n      mstore\n        /* \"#utility.yul\":20174:20343   */\n      pop\n      jump\t// out\n        /* \"#utility.yul\":20349:20715   */\n    tag_349:\n        /* \"#utility.yul\":20491:20494   */\n      0x00\n        /* \"#utility.yul\":20512:20579   */\n      tag_561\n        /* \"#utility.yul\":20576:20578   */\n      0x13\n        /* \"#utility.yul\":20571:20574   */\n      dup4\n        /* \"#utility.yul\":20512:20579   */\n      tag_299\n      jump\t// in\n    tag_561:\n        /* \"#utility.yul\":20505:20579   */\n      swap2\n      pop\n        /* \"#utility.yul\":20588:20681   */\n      tag_562\n        /* \"#utility.yul\":20677:20680   */\n      dup3\n        /* \"#utility.yul\":20588:20681   */\n      tag_348\n      jump\t// in\n    tag_562:\n        /* \"#utility.yul\":20706:20708   */\n      0x20\n        /* \"#utility.yul\":20701:20704   */\n      dup3\n        /* \"#utility.yul\":20697:20709   */\n      add\n        /* \"#utility.yul\":20690:20709   */\n      swap1\n      pop\n        /* \"#utility.yul\":20349:20715   */\n      swap2\n      swap1\n      pop\n      jump\t// out\n        /* \"#utility.yul\":20721:21140   */\n    tag_199:\n        /* \"#utility.yul\":20887:20891   */\n      0x00\n        /* \"#utility.yul\":20925:20927   */\n      0x20\n        /* \"#utility.yul\":20914:20923   */\n      dup3\n        /* \"#utility.yul\":20910:20928   */\n      add\n        /* \"#utility.yul\":20902:20928   */\n      swap1\n      pop\n        /* \"#utility.yul\":20974:20983   */\n      dup2\n        /* \"#utility.yul\":20968:20972   */\n      dup2\n        /* \"#utility.yul\":20964:20984   */\n      sub\n        /* \"#utility.yul\":20960:20961   */\n      0x00\n        /* \"#utility.yul\":20949:20958   */\n      dup4\n        /* \"#utility.yul\":20945:20962   */\n      add\n        /* \"#utility.yul\":20938:20985   */\n      mstore\n        /* \"#utility.yul\":21002:21133   */\n      tag_564\n        /* \"#utility.yul\":21128:21132   */\n      dup2\n        /* \"#utility.yul\":21002:21133   */\n      tag_349\n      jump\t// in\n    tag_564:\n        /* \"#utility.yul\":20994:21133   */\n      swap1\n      pop\n        /* \"#utility.yul\":20721:21140   */\n      swap2\n      swap1\n      pop\n      jump\t// out\n        /* \"#utility.yul\":21146:21340   */\n    tag_201:\n        /* \"#utility.yul\":21186:21190   */\n      0x00\n        /* \"#utility.yul\":21206:21226   */\n      tag_566\n        /* \"#utility.yul\":21224:21225   */\n      dup3\n        /* \"#utility.yul\":21206:21226   */\n      tag_295\n      jump\t// in\n    tag_566:\n        /* \"#utility.yul\":21201:21226   */\n      swap2\n      pop\n        /* \"#utility.yul\":21240:21260   */\n      tag_567\n        /* \"#utility.yul\":21258:21259   */\n      dup4\n        /* \"#utility.yul\":21240:21260   */\n      tag_295\n      jump\t// in\n    tag_567:\n        /* \"#utility.yul\":21235:21260   */\n      swap3\n      pop\n        /* \"#utility.yul\":21284:21285   */\n      dup3\n        /* \"#utility.yul\":21281:21282   */\n      dup3\n        /* \"#utility.yul\":21277:21286   */\n      sub\n        /* \"#utility.yul\":21269:21286   */\n      swap1\n      pop\n        /* \"#utility.yul\":21308:21309   */\n      dup2\n        /* \"#utility.yul\":21302:21306   */\n      dup2\n        /* \"#utility.yul\":21299:21310   */\n      gt\n        /* \"#utility.yul\":21296:21333   */\n      iszero\n      tag_568\n      jumpi\n        /* \"#utility.yul\":21313:21331   */\n      tag_569\n      tag_339\n      jump\t// in\n    tag_569:\n        /* \"#utility.yul\":21296:21333   */\n    tag_568:\n        /* \"#utility.yul\":21146:21340   */\n      swap3\n      swap2\n      pop\n      pop\n      jump\t// out\n        /* \"#utility.yul\":21346:21526   */\n    tag_204:\n        /* \"#utility.yul\":21394:21471   */\n      0x4e487b7100000000000000000000000000000000000000000000000000000000\n        /* \"#utility.yul\":21391:21392   */\n      0x00\n        /* \"#utility.yul\":21384:21472   */\n      mstore\n        /* \"#utility.yul\":21491:21495   */\n      0x32\n        /* \"#utility.yul\":21488:21489   */\n      0x04\n        /* \"#utility.yul\":21481:21496   */\n      mstore\n        /* \"#utility.yul\":21515:21519   */\n      0x24\n        /* \"#utility.yul\":21512:21513   */\n      0x00\n        /* \"#utility.yul\":21505:21520   */\n      revert\n        /* \"#utility.yul\":21532:21681   */\n    tag_350:\n        /* \"#utility.yul\":21581:21587   */\n      0x00\n        /* \"#utility.yul\":21615:21620   */\n      dup2\n        /* \"#utility.yul\":21609:21621   */\n      sload\n        /* \"#utility.yul\":21599:21621   */\n      swap1\n      pop\n        /* \"#utility.yul\":21641:21674   */\n      tag_572\n        /* \"#utility.yul\":21667:21673   */\n      dup2\n        /* \"#utility.yul\":21641:21674   */\n      tag_118\n      jump\t// in\n    tag_572:\n        /* \"#utility.yul\":21631:21674   */\n      swap1\n      pop\n        /* \"#utility.yul\":21532:21681   */\n      swap2\n      swap1\n      pop\n      jump\t// out\n        /* \"#utility.yul\":21687:21828   */\n    tag_351:\n        /* \"#utility.yul\":21736:21740   */\n      0x00\n        /* \"#utility.yul\":21759:21762   */\n      dup2\n        /* \"#utility.yul\":21751:21762   */\n      swap1\n      pop\n        /* \"#utility.yul\":21782:21785   */\n      dup2\n        /* \"#utility.yul\":21779:21780   */\n      0x00\n        /* \"#utility.yul\":21772:21786   */\n      mstore\n        /* \"#utility.yul\":21816:21820   */\n      0x20\n        /* \"#utility.yul\":21813:21814   */\n      0x00\n        /* \"#utility.yul\":21803:21821   */\n      keccak256\n        /* \"#utility.yul\":21795:21821   */\n      swap1\n      pop\n        /* \"#utility.yul\":21687:21828   */\n      swap2\n      swap1\n      pop\n      jump\t// out\n        /* \"#utility.yul\":21834:21927   */\n    tag_352:\n        /* \"#utility.yul\":21871:21877   */\n      0x00\n        /* \"#utility.yul\":21918:21920   */\n      0x20\n        /* \"#utility.yul\":21913:21915   */\n      0x1f\n        /* \"#utility.yul\":21906:21911   */\n      dup4\n        /* \"#utility.yul\":21902:21916   */\n      add\n        /* \"#utility.yul\":21898:21921   */\n      div\n        /* \"#utility.yul\":21888:21921   */\n      swap1\n      pop\n        /* \"#utility.yul\":21834:21927   */\n      swap2\n      swap1\n      pop\n      jump\t// out\n        /* \"#utility.yul\":21933:22040   */\n    tag_353:\n        /* \"#utility.yul\":21977:21985   */\n      0x00\n        /* \"#utility.yul\":22027:22032   */\n      dup3\n        /* \"#utility.yul\":22021:22025   */\n      dup3\n        /* \"#utility.yul\":22017:22033   */\n      shl\n        /* \"#utility.yul\":21996:22033   */\n      swap1\n      pop\n        /* \"#utility.yul\":21933:22040   */\n      swap3\n      swap2\n      pop\n      pop\n      jump\t// out\n        /* \"#utility.yul\":22046:22439   */\n    tag_354:\n        /* \"#utility.yul\":22115:22121   */\n      0x00\n        /* \"#utility.yul\":22165:22166   */\n      0x08\n        /* \"#utility.yul\":22153:22163   */\n      dup4\n        /* \"#utility.yul\":22149:22167   */\n      mul\n        /* \"#utility.yul\":22188:22285   */\n      tag_577\n        /* \"#utility.yul\":22218:22284   */\n      0xffffffffffffffffffffffffffffffffffffffffffffffffffffffffffffffff\n        /* \"#utility.yul\":22207:22216   */\n      dup3\n        /* \"#utility.yul\":22188:22285   */\n      tag_353\n      jump\t// in\n    tag_577:\n        /* \"#utility.yul\":22306:22345   */\n      tag_578\n        /* \"#utility.yul\":22336:22344   */\n      dup7\n        /* \"#utility.yul\":22325:22334   */\n      dup4\n        /* \"#utility.yul\":22306:22345   */\n      tag_353\n      jump\t// in\n    tag_578:\n        /* \"#utility.yul\":22294:22345   */\n      swap6\n      pop\n        /* \"#utility.yul\":22378:22382   */\n      dup1\n        /* \"#utility.yul\":22374:22383   */\n      not\n        /* \"#utility.yul\":22367:22372   */\n      dup5\n        /* \"#utility.yul\":22363:22384   */\n      and\n        /* \"#utility.yul\":22354:22384   */\n      swap4\n      pop\n        /* \"#utility.yul\":22427:22431   */\n      dup1\n        /* \"#utility.yul\":22417:22425   */\n      dup7\n        /* \"#utility.yul\":22413:22432   */\n      and\n        /* \"#utility.yul\":22406:22411   */\n      dup5\n        /* \"#utility.yul\":22403:22433   */\n      or\n        /* \"#utility.yul\":22393:22433   */\n      swap3\n      pop\n        /* \"#utility.yul\":22122:22439   */\n      pop\n      pop\n        /* \"#utility.yul\":22046:22439   */\n      swap4\n      swap3\n      pop\n      pop\n      pop\n      jump\t// out\n        /* \"#utility.yul\":22445:22505   */\n    tag_355:\n        /* \"#utility.yul\":22473:22476   */\n      0x00\n        /* \"#utility.yul\":22494:22499   */\n      dup2\n        /* \"#utility.yul\":22487:22499   */\n      swap1\n      pop\n        /* \"#utility.yul\":22445:22505   */\n      swap2\n      swap1\n      pop\n      jump\t// out\n        /* \"#utility.yul\":22511:22653   */\n    tag_356:\n        /* \"#utility.yul\":22561:22570   */\n      0x00\n        /* \"#utility.yul\":22594:22647   */\n      tag_581\n        /* \"#utility.yul\":22612:22646   */\n      tag_582\n        /* \"#utility.yul\":22621:22645   */\n      tag_583\n        /* \"#utility.yul\":22639:22644   */\n      dup5\n        /* \"#utility.yul\":22621:22645   */\n      tag_295\n      jump\t// in\n    tag_583:\n        /* \"#utility.yul\":22612:22646   */\n      tag_355\n      jump\t// in\n    tag_582:\n        /* \"#utility.yul\":22594:22647   */\n      tag_295\n      jump\t// in\n    tag_581:\n        /* \"#utility.yul\":22581:22647   */\n      swap1\n      pop\n        /* \"#utility.yul\":22511:22653   */\n      swap2\n      swap1\n      pop\n      jump\t// out\n        /* \"#utility.yul\":22659:22734   */\n    tag_357:\n        /* \"#utility.yul\":22702:22705   */\n      0x00\n        /* \"#utility.yul\":22723:22728   */\n      dup2\n        /* \"#utility.yul\":22716:22728   */\n      swap1\n      pop\n        /* \"#utility.yul\":22659:22734   */\n      swap2\n      swap1\n      pop\n      jump\t// out\n        /* \"#utility.yul\":22740:23009   */\n    tag_358:\n        /* \"#utility.yul\":22850:22889   */\n      tag_586\n        /* \"#utility.yul\":22881:22888   */\n      dup4\n        /* \"#utility.yul\":22850:22889   */\n      tag_356\n      jump\t// in\n    tag_586:\n        /* \"#utility.yul\":22911:23002   */\n      tag_587\n        /* \"#utility.yul\":22960:23001   */\n      tag_588\n        /* \"#utility.yul\":22984:23000   */\n      dup3\n        /* \"#utility.yul\":22960:23001   */\n      tag_357\n      jump\t// in\n    tag_588:\n        /* \"#utility.yul\":22952:22958   */\n      dup5\n        /* \"#utility.yul\":22945:22949   */\n      dup5\n        /* \"#utility.yul\":22939:22950   */\n      sload\n        /* \"#utility.yul\":22911:23002   */\n      tag_354\n      jump\t// in\n    tag_587:\n        /* \"#utility.yul\":22905:22909   */\n      dup3\n        /* \"#utility.yul\":22898:23003   */\n      sstore\n        /* \"#utility.yul\":22816:23009   */\n      pop\n        /* \"#utility.yul\":22740:23009   */\n      pop\n      pop\n      pop\n      jump\t// out\n        /* \"#utility.yul\":23015:23088   */\n    tag_359:\n        /* \"#utility.yul\":23060:23063   */\n      0x00\n        /* \"#utility.yul\":23015:23088   */\n      swap1\n      jump\t// out\n        /* \"#utility.yul\":23094:23283   */\n    tag_360:\n        /* \"#utility.yul\":23171:23203   */\n      tag_591\n      tag_359\n      jump\t// in\n    tag_591:\n        /* \"#utility.yul\":23212:23277   */\n      tag_592\n        /* \"#utility.yul\":23270:23276   */\n      dup2\n        /* \"#utility.yul\":23262:23268   */\n      dup5\n        /* \"#utility.yul\":23256:23260   */\n      dup5\n        /* \"#utility.yul\":23212:23277   */\n      tag_358\n      jump\t// in\n    tag_592:\n        /* \"#utility.yul\":23147:23283   */\n      pop\n        /* \"#utility.yul\":23094:23283   */\n      pop\n      pop\n      jump\t// out\n        /* \"#utility.yul\":23289:23475   */\n    tag_361:\n        /* \"#utility.yul\":23349:23469   */\n    tag_594:\n        /* \"#utility.yul\":23366:23369   */\n      dup2\n        /* \"#utility.yul\":23359:23364   */\n      dup2\n        /* \"#utility.yul\":23356:23370   */\n      lt\n        /* \"#utility.yul\":23349:23469   */\n      iszero\n      tag_596\n      jumpi\n        /* \"#utility.yul\":23420:23459   */\n      tag_597\n        /* \"#utility.yul\":23457:23458   */\n      0x00\n        /* \"#utility.yul\":23450:23455   */\n      dup3\n        /* \"#utility.yul\":23420:23459   */\n      tag_360\n      jump\t// in\n    tag_597:\n        /* \"#utility.yul\":23393:23394   */\n      0x01\n        /* \"#utility.yul\":23386:23391   */\n      dup2\n        /* \"#utility.yul\":23382:23395   */\n      add\n        /* \"#utility.yul\":23373:23395   */\n      swap1\n      pop\n        /* \"#utility.yul\":23349:23469   */\n      jump(tag_594)\n    tag_596:\n        /* \"#utility.yul\":23289:23475   */\n      pop\n      pop\n      jump\t// out\n        /* \"#utility.yul\":23481:24024   */\n    tag_362:\n        /* \"#utility.yul\":23582:23584   */\n      0x1f\n        /* \"#utility.yul\":23577:23580   */\n      dup3\n        /* \"#utility.yul\":23574:23585   */\n      gt\n        /* \"#utility.yul\":23571:24017   */\n      iszero\n      tag_599\n      jumpi\n        /* \"#utility.yul\":23616:23654   */\n      tag_600\n        /* \"#utility.yul\":23648:23653   */\n      dup2\n        /* \"#utility.yul\":23616:23654   */\n      tag_351\n      jump\t// in\n    tag_600:\n        /* \"#utility.yul\":23700:23729   */\n      tag_601\n        /* \"#utility.yul\":23718:23728   */\n      dup5\n        /* \"#utility.yul\":23700:23729   */\n      tag_352\n      jump\t// in\n    tag_601:\n        /* \"#utility.yul\":23690:23698   */\n      dup2\n        /* \"#utility.yul\":23686:23730   */\n      add\n        /* \"#utility.yul\":23883:23885   */\n      0x20\n        /* \"#utility.yul\":23871:23881   */\n      dup6\n        /* \"#utility.yul\":23868:23886   */\n      lt\n        /* \"#utility.yul\":23865:23914   */\n      iszero\n      tag_602\n      jumpi\n        /* \"#utility.yul\":23904:23912   */\n      dup2\n        /* \"#utility.yul\":23889:23912   */\n      swap1\n      pop\n        /* \"#utility.yul\":23865:23914   */\n    tag_602:\n        /* \"#utility.yul\":23927:24007   */\n      tag_603\n        /* \"#utility.yul\":23983:24005   */\n      tag_604\n        /* \"#utility.yul\":24001:24004   */\n      dup6\n        /* \"#utility.yul\":23983:24005   */\n      tag_352\n      jump\t// in\n    tag_604:\n        /* \"#utility.yul\":23973:23981   */\n      dup4\n        /* \"#utility.yul\":23969:24006   */\n      add\n        /* \"#utility.yul\":23956:23967   */\n      dup3\n        /* \"#utility.yul\":23927:24007   */\n      tag_361\n      jump\t// in\n    tag_603:\n        /* \"#utility.yul\":23586:24017   */\n      pop\n      pop\n        /* \"#utility.yul\":23571:24017   */\n    tag_599:\n        /* \"#utility.yul\":23481:24024   */\n      pop\n      pop\n      pop\n      jump\t// out\n        /* \"#utility.yul\":24030:24147   */\n    tag_363:\n        /* \"#utility.yul\":24084:24092   */\n      0x00\n        /* \"#utility.yul\":24134:24139   */\n      dup3\n        /* \"#utility.yul\":24128:24132   */\n      dup3\n        /* \"#utility.yul\":24124:24140   */\n      shr\n        /* \"#utility.yul\":24103:24140   */\n      swap1\n      pop\n        /* \"#utility.yul\":24030:24147   */\n      swap3\n      swap2\n      pop\n      pop\n      jump\t// out\n        /* \"#utility.yul\":24153:24322   */\n    tag_364:\n        /* \"#utility.yul\":24197:24203   */\n      0x00\n        /* \"#utility.yul\":24230:24281   */\n      tag_607\n        /* \"#utility.yul\":24278:24279   */\n      0x00\n        /* \"#utility.yul\":24274:24280   */\n      not\n        /* \"#utility.yul\":24266:24271   */\n      dup5\n        /* \"#utility.yul\":24263:24264   */\n      0x08\n        /* \"#utility.yul\":24259:24272   */\n      mul\n        /* \"#utility.yul\":24230:24281   */\n      tag_363\n      jump\t// in\n    tag_607:\n        /* \"#utility.yul\":24226:24282   */\n      not\n        /* \"#utility.yul\":24311:24315   */\n      dup1\n        /* \"#utility.yul\":24305:24309   */\n      dup4\n        /* \"#utility.yul\":24301:24316   */\n      and\n        /* \"#utility.yul\":24291:24316   */\n      swap2\n      pop\n        /* \"#utility.yul\":24204:24322   */\n      pop\n        /* \"#utility.yul\":24153:24322   */\n      swap3\n      swap2\n      pop\n      pop\n      jump\t// out\n        /* \"#utility.yul\":24327:24622   */\n    tag_365:\n        /* \"#utility.yul\":24403:24407   */\n      0x00\n        /* \"#utility.yul\":24549:24578   */\n      tag_609\n        /* \"#utility.yul\":24574:24577   */\n      dup4\n        /* \"#utility.yul\":24568:24572   */\n      dup4\n        /* \"#utility.yul\":24549:24578   */\n      tag_364\n      jump\t// in\n    tag_609:\n        /* \"#utility.yul\":24541:24578   */\n      swap2\n      pop\n        /* \"#utility.yul\":24611:24614   */\n      dup3\n        /* \"#utility.yul\":24608:24609   */\n      0x02\n        /* \"#utility.yul\":24604:24615   */\n      mul\n        /* \"#utility.yul\":24598:24602   */\n      dup3\n        /* \"#utility.yul\":24595:24616   */\n      or\n        /* \"#utility.yul\":24587:24616   */\n      swap1\n      pop\n        /* \"#utility.yul\":24327:24622   */\n      swap3\n      swap2\n      pop\n      pop\n      jump\t// out\n        /* \"#utility.yul\":24627:26078   */\n    tag_210:\n        /* \"#utility.yul\":24738:24741   */\n      dup2\n        /* \"#utility.yul\":24732:24736   */\n      dup2\n        /* \"#utility.yul\":24729:24742   */\n      sub\n        /* \"#utility.yul\":24726:24752   */\n      tag_611\n      jumpi\n        /* \"#utility.yul\":24745:24750   */\n      pop\n      pop\n      jump(tag_610)\n        /* \"#utility.yul\":24726:24752   */\n    tag_611:\n        /* \"#utility.yul\":24776:24810   */\n      tag_612\n        /* \"#utility.yul\":24806:24809   */\n      dup3\n        /* \"#utility.yul\":24776:24810   */\n      tag_350\n      jump\t// in\n    tag_612:\n        /* \"#utility.yul\":24875:24893   */\n      0xffffffffffffffff\n        /* \"#utility.yul\":24867:24873   */\n      dup2\n        /* \"#utility.yul\":24864:24894   */\n      gt\n        /* \"#utility.yul\":24861:24917   */\n      iszero\n      tag_613\n      jumpi\n        /* \"#utility.yul\":24897:24915   */\n      tag_614\n      tag_317\n      jump\t// in\n    tag_614:\n        /* \"#utility.yul\":24861:24917   */\n    tag_613:\n        /* \"#utility.yul\":24941:24979   */\n      tag_615\n        /* \"#utility.yul\":24973:24977   */\n      dup3\n        /* \"#utility.yul\":24967:24978   */\n      sload\n        /* \"#utility.yul\":24941:24979   */\n      tag_118\n      jump\t// in\n    tag_615:\n        /* \"#utility.yul\":25026:25093   */\n      tag_616\n        /* \"#utility.yul\":25086:25092   */\n      dup3\n        /* \"#utility.yul\":25078:25084   */\n      dup3\n        /* \"#utility.yul\":25072:25076   */\n      dup6\n        /* \"#utility.yul\":25026:25093   */\n      tag_362\n      jump\t// in\n    tag_616:\n        /* \"#utility.yul\":25120:25121   */\n      0x00\n        /* \"#utility.yul\":25149:25151   */\n      0x1f\n        /* \"#utility.yul\":25141:25147   */\n      dup4\n        /* \"#utility.yul\":25138:25152   */\n      gt\n        /* \"#utility.yul\":25166:25167   */\n      0x01\n        /* \"#utility.yul\":25161:25833   */\n      dup2\n      eq\n      tag_618\n      jumpi\n        /* \"#utility.yul\":25877:25878   */\n      0x00\n        /* \"#utility.yul\":25894:25900   */\n      dup5\n        /* \"#utility.yul\":25891:25968   */\n      iszero\n      tag_619\n      jumpi\n        /* \"#utility.yul\":25943:25952   */\n      dup3\n        /* \"#utility.yul\":25938:25941   */\n      dup8\n        /* \"#utility.yul\":25934:25953   */\n      add\n        /* \"#utility.yul\":25928:25954   */\n      sload\n        /* \"#utility.yul\":25919:25954   */\n      swap1\n      pop\n        /* \"#utility.yul\":25891:25968   */\n    tag_619:\n        /* \"#utility.yul\":25994:26061   */\n      tag_620\n        /* \"#utility.yul\":26054:26060   */\n      dup6\n        /* \"#utility.yul\":26047:26052   */\n      dup3\n        /* \"#utility.yul\":25994:26061   */\n      tag_365\n      jump\t// in\n    tag_620:\n        /* \"#utility.yul\":25988:25992   */\n      dup7\n        /* \"#utility.yul\":25981:26062   */\n      sstore\n        /* \"#utility.yul\":25850:26072   */\n      pop\n        /* \"#utility.yul\":25131:26072   */\n      jump(tag_617)\n        /* \"#utility.yul\":25161:25833   */\n    tag_618:\n        /* \"#utility.yul\":25213:25217   */\n      0x1f\n        /* \"#utility.yul\":25209:25218   */\n      not\n        /* \"#utility.yul\":25201:25207   */\n      dup5\n        /* \"#utility.yul\":25197:25219   */\n      and\n        /* \"#utility.yul\":25239:25275   */\n      tag_621\n        /* \"#utility.yul\":25271:25274   */\n      dup8\n        /* \"#utility.yul\":25239:25275   */\n      tag_351\n      jump\t// in\n    tag_621:\n        /* \"#utility.yul\":25232:25275   */\n      swap7\n      pop\n        /* \"#utility.yul\":25302:25339   */\n      tag_622\n        /* \"#utility.yul\":25334:25338   */\n      dup7\n        /* \"#utility.yul\":25302:25339   */\n      tag_351\n      jump\t// in\n    tag_622:\n        /* \"#utility.yul\":25361:25362   */\n      0x00\n        /* \"#utility.yul\":25375:25582   */\n    tag_623:\n        /* \"#utility.yul\":25389:25396   */\n      dup3\n        /* \"#utility.yul\":25386:25387   */\n      dup2\n        /* \"#utility.yul\":25383:25397   */\n      lt\n        /* \"#utility.yul\":25375:25582   */\n      iszero\n      tag_625\n      jumpi\n        /* \"#utility.yul\":25468:25477   */\n      dup5\n        /* \"#utility.yul\":25463:25466   */\n      dup10\n        /* \"#utility.yul\":25459:25478   */\n      add\n        /* \"#utility.yul\":25453:25479   */\n      sload\n        /* \"#utility.yul\":25445:25451   */\n      dup3\n        /* \"#utility.yul\":25438:25480   */\n      sstore\n        /* \"#utility.yul\":25519:25520   */\n      0x01\n        /* \"#utility.yul\":25511:25517   */\n      dup3\n        /* \"#utility.yul\":25507:25521   */\n      add\n        /* \"#utility.yul\":25497:25521   */\n      swap2\n      pop\n        /* \"#utility.yul\":25566:25567   */\n      0x01\n        /* \"#utility.yul\":25555:25564   */\n      dup6\n        /* \"#utility.yul\":25551:25568   */\n      add\n        /* \"#utility.yul\":25538:25568   */\n      swap5\n      pop\n        /* \"#utility.yul\":25412:25416   */\n      0x20\n        /* \"#utility.yul\":25409:25410   */\n      dup2\n        /* \"#utility.yul\":25405:25417   */\n      add\n        /* \"#utility.yul\":25400:25417   */\n      swap1\n      pop\n        /* \"#utility.yul\":25375:25582   */\n      jump(tag_623)\n    tag_625:\n        /* \"#utility.yul\":25610:25616   */\n      dup7\n        /* \"#utility.yul\":25601:25608   */\n      dup4\n        /* \"#utility.yul\":25598:25617   */\n      lt\n        /* \"#utility.yul\":25595:25774   */\n      iszero\n      tag_626\n      jumpi\n        /* \"#utility.yul\":25668:25677   */\n      dup5\n        /* \"#utility.yul\":25663:25666   */\n      dup10\n        /* \"#utility.yul\":25659:25678   */\n      add\n        /* \"#utility.yul\":25653:25679   */\n      sload\n        /* \"#utility.yul\":25711:25759   */\n      tag_627\n        /* \"#utility.yul\":25753:25757   */\n      0x1f\n        /* \"#utility.yul\":25745:25751   */\n      dup10\n        /* \"#utility.yul\":25741:25758   */\n      and\n        /* \"#utility.yul\":25730:25739   */\n      dup3\n        /* \"#utility.yul\":25711:25759   */\n      tag_364\n      jump\t// in\n    tag_627:\n        /* \"#utility.yul\":25703:25709   */\n      dup4\n        /* \"#utility.yul\":25696:25760   */\n      sstore\n        /* \"#utility.yul\":25618:25774   */\n      pop\n        /* \"#utility.yul\":25595:25774   */\n    tag_626:\n        /* \"#utility.yul\":25820:25821   */\n      0x01\n        /* \"#utility.yul\":25816:25817   */\n      0x02\n        /* \"#utility.yul\":25808:25814   */\n      dup9\n        /* \"#utility.yul\":25804:25818   */\n      mul\n        /* \"#utility.yul\":25800:25822   */\n      add\n        /* \"#utility.yul\":25794:25798   */\n      dup9\n        /* \"#utility.yul\":25787:25823   */\n      sstore\n        /* \"#utility.yul\":25168:25833   */\n      pop\n      pop\n      pop\n        /* \"#utility.yul\":25131:26072   */\n    tag_617:\n      pop\n        /* \"#utility.yul\":24716:26078   */\n      pop\n      pop\n      pop\n        /* \"#utility.yul\":24627:26078   */\n      pop\n      pop\n    tag_610:\n      jump\t// out\n        /* \"#utility.yul\":26084:26264   */\n    tag_213:\n        /* \"#utility.yul\":26132:26209   */\n      0x4e487b7100000000000000000000000000000000000000000000000000000000\n        /* \"#utility.yul\":26129:26130   */\n      0x00\n        /* \"#utility.yul\":26122:26210   */\n      mstore\n        /* \"#utility.yul\":26229:26233   */\n      0x31\n        /* \"#utility.yul\":26226:26227   */\n      0x04\n        /* \"#utility.yul\":26219:26234   */\n      mstore\n        /* \"#utility.yul\":26253:26257   */\n      0x24\n        /* \"#utility.yul\":26250:26251   */\n      0x00\n        /* \"#utility.yul\":26243:26258   */\n      revert\n        /* \"#utility.yul\":26270:26450   */\n    tag_366:\n        /* \"#utility.yul\":26410:26442   */\n      0x416d6f756e74206d7573742062652067726561746572207468616e20302e0000\n        /* \"#utility.yul\":26406:26407   */\n      0x00\n        /* \"#utility.yul\":26398:26404   */\n      dup3\n        /* \"#utility.yul\":26394:26408   */\n      add\n        /* \"#utility.yul\":26387:26443   */\n      mstore\n        /* \"#utility.yul\":26270:26450   */\n      pop\n      jump\t// out\n        /* \"#utility.yul\":26456:26822   */\n    tag_367:\n        /* \"#utility.yul\":26598:26601   */\n      0x00\n        /* \"#utility.yul\":26619:26686   */\n      tag_631\n        /* \"#utility.yul\":26683:26685   */\n      0x1e\n        /* \"#utility.yul\":26678:26681   */\n      dup4\n        /* \"#utility.yul\":26619:26686   */\n      tag_299\n      jump\t// in\n    tag_631:\n        /* \"#utility.yul\":26612:26686   */\n      swap2\n      pop\n        /* \"#utility.yul\":26695:26788   */\n      tag_632\n        /* \"#utility.yul\":26784:26787   */\n      dup3\n        /* \"#utility.yul\":26695:26788   */\n      tag_366\n      jump\t// in\n    tag_632:\n        /* \"#utility.yul\":26813:26815   */\n      0x20\n        /* \"#utility.yul\":26808:26811   */\n      dup3\n        /* \"#utility.yul\":26804:26816   */\n      add\n        /* \"#utility.yul\":26797:26816   */\n      swap1\n      pop\n        /* \"#utility.yul\":26456:26822   */\n      swap2\n      swap1\n      pop\n      jump\t// out\n        /* \"#utility.yul\":26828:27247   */\n    tag_224:\n        /* \"#utility.yul\":26994:26998   */\n      0x00\n        /* \"#utility.yul\":27032:27034   */\n      0x20\n        /* \"#utility.yul\":27021:27030   */\n      dup3\n        /* \"#utility.yul\":27017:27035   */\n      add\n        /* \"#utility.yul\":27009:27035   */\n      swap1\n      pop\n        /* \"#utility.yul\":27081:27090   */\n      dup2\n        /* \"#utility.yul\":27075:27079   */\n      dup2\n        /* \"#utility.yul\":27071:27091   */\n      sub\n        /* \"#utility.yul\":27067:27068   */\n      0x00\n        /* \"#utility.yul\":27056:27065   */\n      dup4\n        /* \"#utility.yul\":27052:27069   */\n      add\n        /* \"#utility.yul\":27045:27092   */\n      mstore\n        /* \"#utility.yul\":27109:27240   */\n      tag_634\n        /* \"#utility.yul\":27235:27239   */\n      dup2\n        /* \"#utility.yul\":27109:27240   */\n      tag_367\n      jump\t// in\n    tag_634:\n        /* \"#utility.yul\":27101:27240   */\n      swap1\n      pop\n        /* \"#utility.yul\":26828:27247   */\n      swap2\n      swap1\n      pop\n      jump\t// out\n        /* \"#utility.yul\":27253:28648   */\n    tag_227:\n        /* \"#utility.yul\":27370:27407   */\n      tag_636\n        /* \"#utility.yul\":27403:27406   */\n      dup3\n        /* \"#utility.yul\":27370:27407   */\n      tag_298\n      jump\t// in\n    tag_636:\n        /* \"#utility.yul\":27472:27490   */\n      0xffffffffffffffff\n        /* \"#utility.yul\":27464:27470   */\n      dup2\n        /* \"#utility.yul\":27461:27491   */\n      gt\n        /* \"#utility.yul\":27458:27514   */\n      iszero\n      tag_637\n      jumpi\n        /* \"#utility.yul\":27494:27512   */\n      tag_638\n      tag_317\n      jump\t// in\n    tag_638:\n        /* \"#utility.yul\":27458:27514   */\n    tag_637:\n        /* \"#utility.yul\":27538:27576   */\n      tag_639\n        /* \"#utility.yul\":27570:27574   */\n      dup3\n        /* \"#utility.yul\":27564:27575   */\n      sload\n        /* \"#utility.yul\":27538:27576   */\n      tag_118\n      jump\t// in\n    tag_639:\n        /* \"#utility.yul\":27623:27690   */\n      tag_640\n        /* \"#utility.yul\":27683:27689   */\n      dup3\n        /* \"#utility.yul\":27675:27681   */\n      dup3\n        /* \"#utility.yul\":27669:27673   */\n      dup6\n        /* \"#utility.yul\":27623:27690   */\n      tag_362\n      jump\t// in\n    tag_640:\n        /* \"#utility.yul\":27717:27718   */\n      0x00\n        /* \"#utility.yul\":27741:27745   */\n      0x20\n        /* \"#utility.yul\":27728:27745   */\n      swap1\n      pop\n        /* \"#utility.yul\":27773:27775   */\n      0x1f\n        /* \"#utility.yul\":27765:27771   */\n      dup4\n        /* \"#utility.yul\":27762:27776   */\n      gt\n        /* \"#utility.yul\":27790:27791   */\n      0x01\n        /* \"#utility.yul\":27785:28403   */\n      dup2\n      eq\n      tag_642\n      jumpi\n        /* \"#utility.yul\":28447:28448   */\n      0x00\n        /* \"#utility.yul\":28464:28470   */\n      dup5\n        /* \"#utility.yul\":28461:28538   */\n      iszero\n      tag_643\n      jumpi\n        /* \"#utility.yul\":28513:28522   */\n      dup3\n        /* \"#utility.yul\":28508:28511   */\n      dup8\n        /* \"#utility.yul\":28504:28523   */\n      add\n        /* \"#utility.yul\":28498:28524   */\n      mload\n        /* \"#utility.yul\":28489:28524   */\n      swap1\n      pop\n        /* \"#utility.yul\":28461:28538   */\n    tag_643:\n        /* \"#utility.yul\":28564:28631   */\n      tag_644\n        /* \"#utility.yul\":28624:28630   */\n      dup6\n        /* \"#utility.yul\":28617:28622   */\n      dup3\n        /* \"#utility.yul\":28564:28631   */\n      tag_365\n      jump\t// in\n    tag_644:\n        /* \"#utility.yul\":28558:28562   */\n      dup7\n        /* \"#utility.yul\":28551:28632   */\n      sstore\n        /* \"#utility.yul\":28420:28642   */\n      pop\n        /* \"#utility.yul\":27755:28642   */\n      jump(tag_641)\n        /* \"#utility.yul\":27785:28403   */\n    tag_642:\n        /* \"#utility.yul\":27837:27841   */\n      0x1f\n        /* \"#utility.yul\":27833:27842   */\n      not\n        /* \"#utility.yul\":27825:27831   */\n      dup5\n        /* \"#utility.yul\":27821:27843   */\n      and\n        /* \"#utility.yul\":27871:27908   */\n      tag_645\n        /* \"#utility.yul\":27903:27907   */\n      dup7\n        /* \"#utility.yul\":27871:27908   */\n      tag_351\n      jump\t// in\n    tag_645:\n        /* \"#utility.yul\":27930:27931   */\n      0x00\n        /* \"#utility.yul\":27944:28152   */\n    tag_646:\n        /* \"#utility.yul\":27958:27965   */\n      dup3\n        /* \"#utility.yul\":27955:27956   */\n      dup2\n        /* \"#utility.yul\":27952:27966   */\n      lt\n        /* \"#utility.yul\":27944:28152   */\n      iszero\n      tag_648\n      jumpi\n        /* \"#utility.yul\":28037:28046   */\n      dup5\n        /* \"#utility.yul\":28032:28035   */\n      dup10\n        /* \"#utility.yul\":28028:28047   */\n      add\n        /* \"#utility.yul\":28022:28048   */\n      mload\n        /* \"#utility.yul\":28014:28020   */\n      dup3\n        /* \"#utility.yul\":28007:28049   */\n      sstore\n        /* \"#utility.yul\":28088:28089   */\n      0x01\n        /* \"#utility.yul\":28080:28086   */\n      dup3\n        /* \"#utility.yul\":28076:28090   */\n      add\n        /* \"#utility.yul\":28066:28090   */\n      swap2\n      pop\n        /* \"#utility.yul\":28135:28137   */\n      0x20\n        /* \"#utility.yul\":28124:28133   */\n      dup6\n        /* \"#utility.yul\":28120:28138   */\n      add\n        /* \"#utility.yul\":28107:28138   */\n      swap5\n      pop\n        /* \"#utility.yul\":27981:27985   */\n      0x20\n        /* \"#utility.yul\":27978:27979   */\n      dup2\n        /* \"#utility.yul\":27974:27986   */\n      add\n        /* \"#utility.yul\":27969:27986   */\n      swap1\n      pop\n        /* \"#utility.yul\":27944:28152   */\n      jump(tag_646)\n    tag_648:\n        /* \"#utility.yul\":28180:28186   */\n      dup7\n        /* \"#utility.yul\":28171:28178   */\n      dup4\n        /* \"#utility.yul\":28168:28187   */\n      lt\n        /* \"#utility.yul\":28165:28344   */\n      iszero\n      tag_649\n      jumpi\n        /* \"#utility.yul\":28238:28247   */\n      dup5\n        /* \"#utility.yul\":28233:28236   */\n      dup10\n        /* \"#utility.yul\":28229:28248   */\n      add\n        /* \"#utility.yul\":28223:28249   */\n      mload\n        /* \"#utility.yul\":28281:28329   */\n      tag_650\n        /* \"#utility.yul\":28323:28327   */\n      0x1f\n        /* \"#utility.yul\":28315:28321   */\n      dup10\n        /* \"#utility.yul\":28311:28328   */\n      and\n        /* \"#utility.yul\":28300:28309   */\n      dup3\n        /* \"#utility.yul\":28281:28329   */\n      tag_364\n      jump\t// in\n    tag_650:\n        /* \"#utility.yul\":28273:28279   */\n      dup4\n        /* \"#utility.yul\":28266:28330   */\n      sstore\n        /* \"#utility.yul\":28188:28344   */\n      pop\n        /* \"#utility.yul\":28165:28344   */\n    tag_649:\n        /* \"#utility.yul\":28390:28391   */\n      0x01\n        /* \"#utility.yul\":28386:28387   */\n      0x02\n        /* \"#utility.yul\":28378:28384   */\n      dup9\n        /* \"#utility.yul\":28374:28388   */\n      mul\n        /* \"#utility.yul\":28370:28392   */\n      add\n        /* \"#utility.yul\":28364:28368   */\n      dup9\n        /* \"#utility.yul\":28357:28393   */\n      sstore\n        /* \"#utility.yul\":27792:28403   */\n      pop\n      pop\n      pop\n        /* \"#utility.yul\":27755:28642   */\n    tag_641:\n      pop\n        /* \"#utility.yul\":27345:28648   */\n      pop\n      pop\n      pop\n        /* \"#utility.yul\":27253:28648   */\n      pop\n      pop\n      jump\t// out\n        /* \"#utility.yul\":28654:28823   */\n    tag_368:\n        /* \"#utility.yul\":28794:28815   */\n      0x436f6e7472616374206973207061757365642e00000000000000000000000000\n        /* \"#utility.yul\":28790:28791   */\n      0x00\n        /* \"#utility.yul\":28782:28788   */\n      dup3\n        /* \"#utility.yul\":28778:28792   */\n      add\n        /* \"#utility.yul\":28771:28816   */\n      mstore\n        /* \"#utility.yul\":28654:28823   */\n      pop\n      jump\t// out\n        /* \"#utility.yul\":28829:29195   */\n    tag_369:\n        /* \"#utility.yul\":28971:28974   */\n      0x00\n        /* \"#utility.yul\":28992:29059   */\n      tag_653\n        /* \"#utility.yul\":29056:29058   */\n      0x13\n        /* \"#utility.yul\":29051:29054   */\n      dup4\n        /* \"#utility.yul\":28992:29059   */\n      tag_299\n      jump\t// in\n    tag_653:\n        /* \"#utility.yul\":28985:29059   */\n      swap2\n      pop\n        /* \"#utility.yul\":29068:29161   */\n      tag_654\n        /* \"#utility.yul\":29157:29160   */\n      dup3\n        /* \"#utility.yul\":29068:29161   */\n      tag_368\n      jump\t// in\n    tag_654:\n        /* \"#utility.yul\":29186:29188   */\n      0x20\n        /* \"#utility.yul\":29181:29184   */\n      dup3\n        /* \"#utility.yul\":29177:29189   */\n      add\n        /* \"#utility.yul\":29170:29189   */\n      swap1\n      pop\n        /* \"#utility.yul\":28829:29195   */\n      swap2\n      swap1\n      pop\n      jump\t// out\n        /* \"#utility.yul\":29201:29620   */\n    tag_242:\n        /* \"#utility.yul\":29367:29371   */\n      0x00\n        /* \"#utility.yul\":29405:29407   */\n      0x20\n        /* \"#utility.yul\":29394:29403   */\n      dup3\n        /* \"#utility.yul\":29390:29408   */\n      add\n        /* \"#utility.yul\":29382:29408   */\n      swap1\n      pop\n        /* \"#utility.yul\":29454:29463   */\n      dup2\n        /* \"#utility.yul\":29448:29452   */\n      dup2\n        /* \"#utility.yul\":29444:29464   */\n      sub\n        /* \"#utility.yul\":29440:29441   */\n      0x00\n        /* \"#utility.yul\":29429:29438   */\n      dup4\n        /* \"#utility.yul\":29425:29442   */\n      add\n        /* \"#utility.yul\":29418:29465   */\n      mstore\n        /* \"#utility.yul\":29482:29613   */\n      tag_656\n        /* \"#utility.yul\":29608:29612   */\n      dup2\n        /* \"#utility.yul\":29482:29613   */\n      tag_369\n      jump\t// in\n    tag_656:\n        /* \"#utility.yul\":29474:29613   */\n      swap1\n      pop\n        /* \"#utility.yul\":29201:29620   */\n      swap2\n      swap1\n      pop\n      jump\t// out\n        /* \"#utility.yul\":29626:29788   */\n    tag_370:\n        /* \"#utility.yul\":29766:29780   */\n      0x496e76616c696420746965720000000000000000000000000000000000000000\n        /* \"#utility.yul\":29762:29763   */\n      0x00\n        /* \"#utility.yul\":29754:29760   */\n      dup3\n        /* \"#utility.yul\":29750:29764   */\n      add\n        /* \"#utility.yul\":29743:29781   */\n      mstore\n        /* \"#utility.yul\":29626:29788   */\n      pop\n      jump\t// out\n        /* \"#utility.yul\":29794:30160   */\n    tag_371:\n        /* \"#utility.yul\":29936:29939   */\n      0x00\n        /* \"#utility.yul\":29957:30024   */\n      tag_659\n        /* \"#utility.yul\":30021:30023   */\n      0x0c\n        /* \"#utility.yul\":30016:30019   */\n      dup4\n        /* \"#utility.yul\":29957:30024   */\n      tag_299\n      jump\t// in\n    tag_659:\n        /* \"#utility.yul\":29950:30024   */\n      swap2\n      pop\n        /* \"#utility.yul\":30033:30126   */\n      tag_660\n        /* \"#utility.yul\":30122:30125   */\n      dup3\n        /* \"#utility.yul\":30033:30126   */\n      tag_370\n      jump\t// in\n    tag_660:\n        /* \"#utility.yul\":30151:30153   */\n      0x20\n        /* \"#utility.yul\":30146:30149   */\n      dup3\n        /* \"#utility.yul\":30142:30154   */\n      add\n        /* \"#utility.yul\":30135:30154   */\n      swap1\n      pop\n        /* \"#utility.yul\":29794:30160   */\n      swap2\n      swap1\n      pop\n      jump\t// out\n        /* \"#utility.yul\":30166:30585   */\n    tag_246:\n        /* \"#utility.yul\":30332:30336   */\n      0x00\n        /* \"#utility.yul\":30370:30372   */\n      0x20\n        /* \"#utility.yul\":30359:30368   */\n      dup3\n        /* \"#utility.yul\":30355:30373   */\n      add\n        /* \"#utility.yul\":30347:30373   */\n      swap1\n      pop\n        /* \"#utility.yul\":30419:30428   */\n      dup2\n        /* \"#utility.yul\":30413:30417   */\n      dup2\n        /* \"#utility.yul\":30409:30429   */\n      sub\n        /* \"#utility.yul\":30405:30406   */\n      0x00\n        /* \"#utility.yul\":30394:30403   */\n      dup4\n        /* \"#utility.yul\":30390:30407   */\n      add\n        /* \"#utility.yul\":30383:30430   */\n      mstore\n        /* \"#utility.yul\":30447:30578   */\n      tag_662\n        /* \"#utility.yul\":30573:30577   */\n      dup2\n        /* \"#utility.yul\":30447:30578   */\n      tag_371\n      jump\t// in\n    tag_662:\n        /* \"#utility.yul\":30439:30578   */\n      swap1\n      pop\n        /* \"#utility.yul\":30166:30585   */\n      swap2\n      swap1\n      pop\n      jump\t// out\n        /* \"#utility.yul\":30591:30757   */\n    tag_372:\n        /* \"#utility.yul\":30731:30749   */\n      0x496e636f727265637420616d6f756e7400000000000000000000000000000000\n        /* \"#utility.yul\":30727:30728   */\n      0x00\n        /* \"#utility.yul\":30719:30725   */\n      dup3\n        /* \"#utility.yul\":30715:30729   */\n      add\n        /* \"#utility.yul\":30708:30750   */\n      mstore\n        /* \"#utility.yul\":30591:30757   */\n      pop\n      jump\t// out\n        /* \"#utility.yul\":30763:31129   */\n    tag_373:\n        /* \"#utility.yul\":30905:30908   */\n      0x00\n        /* \"#utility.yul\":30926:30993   */\n      tag_665\n        /* \"#utility.yul\":30990:30992   */\n      0x10\n        /* \"#utility.yul\":30985:30988   */\n      dup4\n        /* \"#utility.yul\":30926:30993   */\n      tag_299\n      jump\t// in\n    tag_665:\n        /* \"#utility.yul\":30919:30993   */\n      swap2\n      pop\n        /* \"#utility.yul\":31002:31095   */\n      tag_666\n        /* \"#utility.yul\":31091:31094   */\n      dup3\n        /* \"#utility.yul\":31002:31095   */\n      tag_372\n      jump\t// in\n    tag_666:\n        /* \"#utility.yul\":31120:31122   */\n      0x20\n        /* \"#utility.yul\":31115:31118   */\n      dup3\n        /* \"#utility.yul\":31111:31123   */\n      add\n        /* \"#utility.yul\":31104:31123   */\n      swap1\n      pop\n        /* \"#utility.yul\":30763:31129   */\n      swap2\n      swap1\n      pop\n      jump\t// out\n        /* \"#utility.yul\":31135:31554   */\n    tag_252:\n        /* \"#utility.yul\":31301:31305   */\n      0x00\n        /* \"#utility.yul\":31339:31341   */\n      0x20\n        /* \"#utility.yul\":31328:31337   */\n      dup3\n        /* \"#utility.yul\":31324:31342   */\n      add\n        /* \"#utility.yul\":31316:31342   */\n      swap1\n      pop\n        /* \"#utility.yul\":31388:31397   */\n      dup2\n        /* \"#utility.yul\":31382:31386   */\n      dup2\n        /* \"#utility.yul\":31378:31398   */\n      sub\n        /* \"#utility.yul\":31374:31375   */\n      0x00\n        /* \"#utility.yul\":31363:31372   */\n      dup4\n        /* \"#utility.yul\":31359:31376   */\n      add\n        /* \"#utility.yul\":31352:31399   */\n      mstore\n        /* \"#utility.yul\":31416:31547   */\n      tag_668\n        /* \"#utility.yul\":31542:31546   */\n      dup2\n        /* \"#utility.yul\":31416:31547   */\n      tag_373\n      jump\t// in\n    tag_668:\n        /* \"#utility.yul\":31408:31547   */\n      swap1\n      pop\n        /* \"#utility.yul\":31135:31554   */\n      swap2\n      swap1\n      pop\n      jump\t// out\n        /* \"#utility.yul\":31560:31793   */\n    tag_257:\n        /* \"#utility.yul\":31599:31602   */\n      0x00\n        /* \"#utility.yul\":31622:31646   */\n      tag_670\n        /* \"#utility.yul\":31640:31645   */\n      dup3\n        /* \"#utility.yul\":31622:31646   */\n      tag_295\n      jump\t// in\n    tag_670:\n        /* \"#utility.yul\":31613:31646   */\n      swap2\n      pop\n        /* \"#utility.yul\":31668:31734   */\n      0xffffffffffffffffffffffffffffffffffffffffffffffffffffffffffffffff\n        /* \"#utility.yul\":31661:31666   */\n      dup3\n        /* \"#utility.yul\":31658:31735   */\n      sub\n        /* \"#utility.yul\":31655:31758   */\n      tag_671\n      jumpi\n        /* \"#utility.yul\":31738:31756   */\n      tag_672\n      tag_339\n      jump\t// in\n    tag_672:\n        /* \"#utility.yul\":31655:31758   */\n    tag_671:\n        /* \"#utility.yul\":31785:31786   */\n      0x01\n        /* \"#utility.yul\":31778:31783   */\n      dup3\n        /* \"#utility.yul\":31774:31787   */\n      add\n        /* \"#utility.yul\":31767:31787   */\n      swap1\n      pop\n        /* \"#utility.yul\":31560:31793   */\n      swap2\n      swap1\n      pop\n      jump\t// out\n\n    auxdata: 0xa26469706673582212207b29608c2b12f289182028c1be024932ca0d30aded59a2b275cb19d7d65fed4c64736f6c634300081a0033\n}\n",
				"bytecode": {
					"linkReferences": {},
					"object": "608060405234801561000f575f80fd5b50604051612abe380380612abe8339818101604052810190610031919061026a565b835f908161003f919061050a565b50826001908161004f919061050a565b508160028190555062015180816100669190610606565b426100719190610647565b6003819055503360045f6101000a81548173ffffffffffffffffffffffffffffffffffffffff021916908373ffffffffffffffffffffffffffffffffffffffff1602179055505f600460156101000a81548160ff021916908360028111156100dc576100db61067a565b5b0217905550505050506106a7565b5f604051905090565b5f80fd5b5f80fd5b5f80fd5b5f80fd5b5f601f19601f8301169050919050565b7f4e487b71000000000000000000000000000000000000000000000000000000005f52604160045260245ffd5b61014982610103565b810181811067ffffffffffffffff8211171561016857610167610113565b5b80604052505050565b5f61017a6100ea565b90506101868282610140565b919050565b5f67ffffffffffffffff8211156101a5576101a4610113565b5b6101ae82610103565b9050602081019050919050565b8281835e5f83830152505050565b5f6101db6101d68461018b565b610171565b9050828152602081018484840111156101f7576101f66100ff565b5b6102028482856101bb565b509392505050565b5f82601f83011261021e5761021d6100fb565b5b815161022e8482602086016101c9565b91505092915050565b5f819050919050565b61024981610237565b8114610253575f80fd5b50565b5f8151905061026481610240565b92915050565b5f805f8060808587031215610282576102816100f3565b5b5f85015167ffffffffffffffff81111561029f5761029e6100f7565b5b6102ab8782880161020a565b945050602085015167ffffffffffffffff8111156102cc576102cb6100f7565b5b6102d88782880161020a565b93505060406102e987828801610256565b92505060606102fa87828801610256565b91505092959194509250565b5f81519050919050565b7f4e487b71000000000000000000000000000000000000000000000000000000005f52602260045260245ffd5b5f600282049050600182168061035457607f821691505b60208210810361036757610366610310565b5b50919050565b5f819050815f5260205f209050919050565b5f6020601f8301049050919050565b5f82821b905092915050565b5f600883026103c97fffffffffffffffffffffffffffffffffffffffffffffffffffffffffffffffff8261038e565b6103d3868361038e565b95508019841693508086168417925050509392505050565b5f819050919050565b5f61040e61040961040484610237565b6103eb565b610237565b9050919050565b5f819050919050565b610427836103f4565b61043b61043382610415565b84845461039a565b825550505050565b5f90565b61044f610443565b61045a81848461041e565b505050565b5b8181101561047d576104725f82610447565b600181019050610460565b5050565b601f8211156104c2576104938161036d565b61049c8461037f565b810160208510156104ab578190505b6104bf6104b78561037f565b83018261045f565b50505b505050565b5f82821c905092915050565b5f6104e25f19846008026104c7565b1980831691505092915050565b5f6104fa83836104d3565b9150826002028217905092915050565b61051382610306565b67ffffffffffffffff81111561052c5761052b610113565b5b610536825461033d565b610541828285610481565b5f60209050601f831160018114610572575f8415610560578287015190505b61056a85826104ef565b8655506105d1565b601f1984166105808661036d565b5f5b828110156105a757848901518255600182019150602085019450602081019050610582565b868310156105c457848901516105c0601f8916826104d3565b8355505b6001600288020188555050505b505050505050565b7f4e487b71000000000000000000000000000000000000000000000000000000005f52601160045260245ffd5b5f61061082610237565b915061061b83610237565b925082820261062981610237565b915082820484148315176106405761063f6105d9565b5b5092915050565b5f61065182610237565b915061065c83610237565b9250828201905080821115610674576106736105d9565b5b92915050565b7f4e487b71000000000000000000000000000000000000000000000000000000005f52602160045260245ffd5b61240a806106b45f395ff3fe60806040526004361061011e575f3560e01c80637284e4161161009f578063b85dfb8011610063578063b85dfb8014610390578063c19d93fb146103cc578063c4ae3168146103f6578063ca1d209d1461040c578063de170570146104285761011e565b80637284e416146102b05780637497211b146102da5780637adba527146103025780638da5cb5b1461033e5780638ece7b91146103685761011e565b80633ccfd60b116100e65780633ccfd60b14610206578063401938831461021c578063590e1ae3146102465780635c975abb1461025c5780636f9fb98a146102865761011e565b8063039af9eb1461012257806306fdde0314610160578063105505151461018a57806329dcb0cf146101b4578063389b7533146101de575b5f80fd5b34801561012d575f80fd5b5061014860048036038101906101439190611456565b610452565b60405161015793929190611500565b60405180910390f35b34801561016b575f80fd5b5061017461050d565b604051610181919061153c565b60405180910390f35b348015610195575f80fd5b5061019e610598565b6040516101ab91906115cf565b60405180910390f35b3480156101bf575f80fd5b506101c8610612565b6040516101d591906115e8565b60405180910390f35b3480156101e9575f80fd5b5061020460048036038101906101ff9190611456565b610618565b005b348015610211575f80fd5b5061021a610745565b005b348015610227575f80fd5b50610230610900565b60405161023d91906115e8565b60405180910390f35b348015610251575f80fd5b5061025a610906565b005b348015610267575f80fd5b50610270610a93565b60405161027d919061161b565b60405180910390f35b348015610291575f80fd5b5061029a610aa6565b6040516102a791906115e8565b60405180910390f35b3480156102bb575f80fd5b506102c4610aad565b6040516102d1919061153c565b60405180910390f35b3480156102e5575f80fd5b5061030060048036038101906102fb9190611456565b610b39565b005b34801561030d575f80fd5b506103286004803603810190610323919061168e565b610cd2565b604051610335919061161b565b60405180910390f35b348015610349575f80fd5b50610352610d37565b60405161035f91906116db565b60405180910390f35b348015610373575f80fd5b5061038e60048036038101906103899190611820565b610d5c565b005b34801561039b575f80fd5b506103b660048036038101906103b1919061187a565b610e9e565b6040516103c391906115e8565b60405180910390f35b3480156103d7575f80fd5b506103e0610eb8565b6040516103ed91906115cf565b60405180910390f35b348015610401575f80fd5b5061040a610ecb565b005b61042660048036038101906104219190611456565b610f86565b005b348015610433575f80fd5b5061043c6111f6565b6040516104499190611a04565b60405180910390f35b60058181548110610461575f80fd5b905f5260205f2090600302015f91509050805f01805461048090611a51565b80601f01602080910402602001604051908101604052809291908181526020018280546104ac90611a51565b80156104f75780601f106104ce576101008083540402835291602001916104f7565b820191905f5260205f20905b8154815290600101906020018083116104da57829003601f168201915b5050505050908060010154908060020154905083565b5f805461051990611a51565b80601f016020809104026020016040519081016040528092919081815260200182805461054590611a51565b80156105905780601f1061056757610100808354040283529160200191610590565b820191905f5260205f20905b81548152906001019060200180831161057357829003601f168201915b505050505081565b5f8060028111156105ac576105ab61155c565b5b600460159054906101000a900460ff1660028111156105ce576105cd61155c565b5b1480156105dc575060035442115b156105fc576002544710156105f25760026105f5565b60015b905061060f565b600460159054906101000a900460ff1690505b90565b60035481565b60045f9054906101000a900473ffffffffffffffffffffffffffffffffffffffff1673ffffffffffffffffffffffffffffffffffffffff163373ffffffffffffffffffffffffffffffffffffffff16146106a7576040517f08c379a000000000000000000000000000000000000000000000000000000000815260040161069e90611acb565b60405180910390fd5b5f60028111156106ba576106b961155c565b5b600460159054906101000a900460ff1660028111156106dc576106db61155c565b5b1461071c576040517f08c379a000000000000000000000000000000000000000000000000000000000815260040161071390611b33565b60405180910390fd5b620151808161072b9190611b7e565b60035f82825461073b9190611bbf565b9250508190555050565b60045f9054906101000a900473ffffffffffffffffffffffffffffffffffffffff1673ffffffffffffffffffffffffffffffffffffffff163373ffffffffffffffffffffffffffffffffffffffff16146107d4576040517f08c379a00000000000000000000000000000000000000000000000000000000081526004016107cb90611acb565b60405180910390fd5b6107dc6112f5565b600160028111156107f0576107ef61155c565b5b600460159054906101000a900460ff1660028111156108125761081161155c565b5b14610852576040517f08c379a000000000000000000000000000000000000000000000000000000000815260040161084990611c3c565b60405180910390fd5b5f4790505f8111610898576040517f08c379a000000000000000000000000000000000000000000000000000000000815260040161088f90611ca4565b60405180910390fd5b60045f9054906101000a900473ffffffffffffffffffffffffffffffffffffffff1673ffffffffffffffffffffffffffffffffffffffff166108fc8290811502906040515f60405180830381858888f193505050501580156108fc573d5f803e3d5ffd5b5050565b60025481565b61090e6112f5565b6002808111156109215761092061155c565b5b600460159054906101000a900460ff1660028111156109435761094261155c565b5b14610983576040517f08c379a000000000000000000000000000000000000000000000000000000000815260040161097a90611d0c565b60405180910390fd5b5f60065f3373ffffffffffffffffffffffffffffffffffffffff1673ffffffffffffffffffffffffffffffffffffffff1681526020019081526020015f205f015490505f8111610a08576040517f08c379a00000000000000000000000000000000000000000000000000000000081526004016109ff90611d74565b60405180910390fd5b5f60065f3373ffffffffffffffffffffffffffffffffffffffff1673ffffffffffffffffffffffffffffffffffffffff1681526020019081526020015f205f01819055503373ffffffffffffffffffffffffffffffffffffffff166108fc8290811502906040515f60405180830381858888f19350505050158015610a8f573d5f803e3d5ffd5b5050565b600460149054906101000a900460ff1681565b5f47905090565b60018054610aba90611a51565b80601f0160208091040260200160405190810160405280929190818152602001828054610ae690611a51565b8015610b315780601f10610b0857610100808354040283529160200191610b31565b820191905f5260205f20905b815481529060010190602001808311610b1457829003601f168201915b505050505081565b60045f9054906101000a900473ffffffffffffffffffffffffffffffffffffffff1673ffffffffffffffffffffffffffffffffffffffff163373ffffffffffffffffffffffffffffffffffffffff1614610bc8576040517f08c379a0000000000000000000000000000000000000000000000000000000008152600401610bbf90611acb565b60405180910390fd5b6005805490508110610c0f576040517f08c379a0000000000000000000000000000000000000000000000000000000008152600401610c0690611ddc565b60405180910390fd5b60056001600580549050610c239190611dfa565b81548110610c3457610c33611e2d565b5b905f5260205f20906003020160058281548110610c5457610c53611e2d565b5b905f5260205f2090600302015f8201815f019081610c72919061200c565b5060018201548160010155600282015481600201559050506005805480610c9c57610c9b6120f1565b5b600190038181905f5260205f2090600302015f8082015f610cbd91906113ba565b600182015f9055600282015f90555050905550565b5f60065f8473ffffffffffffffffffffffffffffffffffffffff1673ffffffffffffffffffffffffffffffffffffffff1681526020019081526020015f206001015f8381526020019081526020015f205f9054906101000a900460ff16905092915050565b60045f9054906101000a900473ffffffffffffffffffffffffffffffffffffffff1681565b60045f9054906101000a900473ffffffffffffffffffffffffffffffffffffffff1673ffffffffffffffffffffffffffffffffffffffff163373ffffffffffffffffffffffffffffffffffffffff1614610deb576040517f08c379a0000000000000000000000000000000000000000000000000000000008152600401610de290611acb565b60405180910390fd5b5f8111610e2d576040517f08c379a0000000000000000000000000000000000000000000000000000000008152600401610e2490612168565b60405180910390fd5b600560405180606001604052808481526020018381526020015f815250908060018154018082558091505060019003905f5260205f2090600302015f909190919091505f820151815f019081610e839190612186565b50602082015181600101556040820151816002015550505050565b6006602052805f5260405f205f91509050805f0154905081565b600460159054906101000a900460ff1681565b60045f9054906101000a900473ffffffffffffffffffffffffffffffffffffffff1673ffffffffffffffffffffffffffffffffffffffff163373ffffffffffffffffffffffffffffffffffffffff1614610f5a576040517f08c379a0000000000000000000000000000000000000000000000000000000008152600401610f5190611acb565b60405180910390fd5b600460149054906101000a900460ff1615600460146101000a81548160ff021916908315150217905550565b5f6002811115610f9957610f9861155c565b5b600460159054906101000a900460ff166002811115610fbb57610fba61155c565b5b14610ffb576040517f08c379a0000000000000000000000000000000000000000000000000000000008152600401610ff290611b33565b60405180910390fd5b600460149054906101000a900460ff161561104b576040517f08c379a00000000000000000000000000000000000000000000000000000000081526004016110429061229f565b60405180910390fd5b6005805490508110611092576040517f08c379a000000000000000000000000000000000000000000000000000000000815260040161108990612307565b60405180910390fd5b600581815481106110a6576110a5611e2d565b5b905f5260205f2090600302016001015434146110f7576040517f08c379a00000000000000000000000000000000000000000000000000000000081526004016110ee9061236f565b60405180910390fd5b6005818154811061110b5761110a611e2d565b5b905f5260205f2090600302016002015f81548092919061112a9061238d565b91905055503460065f3373ffffffffffffffffffffffffffffffffffffffff1673ffffffffffffffffffffffffffffffffffffffff1681526020019081526020015f205f015f82825461117d9190611bbf565b92505081905550600160065f3373ffffffffffffffffffffffffffffffffffffffff1673ffffffffffffffffffffffffffffffffffffffff1681526020019081526020015f206001015f8381526020019081526020015f205f6101000a81548160ff0219169083151502179055506111f36112f5565b50565b60606005805480602002602001604051908101604052809291908181526020015f905b828210156112ec578382905f5260205f2090600302016040518060600160405290815f8201805461124990611a51565b80601f016020809104026020016040519081016040528092919081815260200182805461127590611a51565b80156112c05780601f10611297576101008083540402835291602001916112c0565b820191905f5260205f20905b8154815290600101906020018083116112a357829003601f168201915b505050505081526020016001820154815260200160028201548152505081526020019060010190611219565b50505050905090565b5f60028111156113085761130761155c565b5b600460159054906101000a900460ff16600281111561132a5761132961155c565b5b036113b857600354421061137a5760025447101561134957600261134c565b60015b600460156101000a81548160ff021916908360028111156113705761136f61155c565b5b02179055506113b7565b60025447101561138a575f61138d565b60015b600460156101000a81548160ff021916908360028111156113b1576113b061155c565b5b02179055505b5b565b5080546113c690611a51565b5f825580601f106113d757506113f4565b601f0160209004905f5260205f20908101906113f391906113f7565b5b50565b5b8082111561140e575f815f9055506001016113f8565b5090565b5f604051905090565b5f80fd5b5f80fd5b5f819050919050565b61143581611423565b811461143f575f80fd5b50565b5f813590506114508161142c565b92915050565b5f6020828403121561146b5761146a61141b565b5b5f61147884828501611442565b91505092915050565b5f81519050919050565b5f82825260208201905092915050565b8281835e5f83830152505050565b5f601f19601f8301169050919050565b5f6114c382611481565b6114cd818561148b565b93506114dd81856020860161149b565b6114e6816114a9565b840191505092915050565b6114fa81611423565b82525050565b5f6060820190508181035f83015261151881866114b9565b905061152760208301856114f1565b61153460408301846114f1565b949350505050565b5f6020820190508181035f83015261155481846114b9565b905092915050565b7f4e487b71000000000000000000000000000000000000000000000000000000005f52602160045260245ffd5b6003811061159a5761159961155c565b5b50565b5f8190506115aa82611589565b919050565b5f6115b98261159d565b9050919050565b6115c9816115af565b82525050565b5f6020820190506115e25f8301846115c0565b92915050565b5f6020820190506115fb5f8301846114f1565b92915050565b5f8115159050919050565b61161581611601565b82525050565b5f60208201905061162e5f83018461160c565b92915050565b5f73ffffffffffffffffffffffffffffffffffffffff82169050919050565b5f61165d82611634565b9050919050565b61166d81611653565b8114611677575f80fd5b50565b5f8135905061168881611664565b92915050565b5f80604083850312156116a4576116a361141b565b5b5f6116b18582860161167a565b92505060206116c285828601611442565b9150509250929050565b6116d581611653565b82525050565b5f6020820190506116ee5f8301846116cc565b92915050565b5f80fd5b5f80fd5b7f4e487b71000000000000000000000000000000000000000000000000000000005f52604160045260245ffd5b611732826114a9565b810181811067ffffffffffffffff82111715611751576117506116fc565b5b80604052505050565b5f611763611412565b905061176f8282611729565b919050565b5f67ffffffffffffffff82111561178e5761178d6116fc565b5b611797826114a9565b9050602081019050919050565b828183375f83830152505050565b5f6117c46117bf84611774565b61175a565b9050828152602081018484840111156117e0576117df6116f8565b5b6117eb8482856117a4565b509392505050565b5f82601f830112611807576118066116f4565b5b81356118178482602086016117b2565b91505092915050565b5f80604083850312156118365761183561141b565b5b5f83013567ffffffffffffffff8111156118535761185261141f565b5b61185f858286016117f3565b925050602061187085828601611442565b9150509250929050565b5f6020828403121561188f5761188e61141b565b5b5f61189c8482850161167a565b91505092915050565b5f81519050919050565b5f82825260208201905092915050565b5f819050602082019050919050565b5f82825260208201905092915050565b5f6118e882611481565b6118f281856118ce565b935061190281856020860161149b565b61190b816114a9565b840191505092915050565b61191f81611423565b82525050565b5f606083015f8301518482035f86015261193f82826118de565b91505060208301516119546020860182611916565b5060408301516119676040860182611916565b508091505092915050565b5f61197d8383611925565b905092915050565b5f602082019050919050565b5f61199b826118a5565b6119a581856118af565b9350836020820285016119b7856118bf565b805f5b858110156119f257848403895281516119d38582611972565b94506119de83611985565b925060208a019950506001810190506119ba565b50829750879550505050505092915050565b5f6020820190508181035f830152611a1c8184611991565b905092915050565b7f4e487b71000000000000000000000000000000000000000000000000000000005f52602260045260245ffd5b5f6002820490506001821680611a6857607f821691505b602082108103611a7b57611a7a611a24565b5b50919050565b7f4e6f7420746865206f776e6572000000000000000000000000000000000000005f82015250565b5f611ab5600d8361148b565b9150611ac082611a81565b602082019050919050565b5f6020820190508181035f830152611ae281611aa9565b9050919050565b7f43616d706169676e206973206e6f7420616374697665000000000000000000005f82015250565b5f611b1d60168361148b565b9150611b2882611ae9565b602082019050919050565b5f6020820190508181035f830152611b4a81611b11565b9050919050565b7f4e487b71000000000000000000000000000000000000000000000000000000005f52601160045260245ffd5b5f611b8882611423565b9150611b9383611423565b9250828202611ba181611423565b91508282048414831517611bb857611bb7611b51565b5b5092915050565b5f611bc982611423565b9150611bd483611423565b9250828201905080821115611bec57611beb611b51565b5b92915050565b7f43616d706169676e206e6f74205375636365737366756c0000000000000000005f82015250565b5f611c2660178361148b565b9150611c3182611bf2565b602082019050919050565b5f6020820190508181035f830152611c5381611c1a565b9050919050565b7f4e6f2062616c616e636520746f207769746864726177000000000000000000005f82015250565b5f611c8e60168361148b565b9150611c9982611c5a565b602082019050919050565b5f6020820190508181035f830152611cbb81611c82565b9050919050565b7f526566756e6473206e6f7420617661696c61626c6500000000000000000000005f82015250565b5f611cf660158361148b565b9150611d0182611cc2565b602082019050919050565b5f6020820190508181035f830152611d2381611cea565b9050919050565b7f4e6f20636f6e747269627574696f6e20746f20726566756e64000000000000005f82015250565b5f611d5e60198361148b565b9150611d6982611d2a565b602082019050919050565b5f6020820190508181035f830152611d8b81611d52565b9050919050565b7f5469657220646f6573206e6f74206578697374000000000000000000000000005f82015250565b5f611dc660138361148b565b9150611dd182611d92565b602082019050919050565b5f6020820190508181035f830152611df381611dba565b9050919050565b5f611e0482611423565b9150611e0f83611423565b9250828203905081811115611e2757611e26611b51565b5b92915050565b7f4e487b71000000000000000000000000000000000000000000000000000000005f52603260045260245ffd5b5f81549050611e6881611a51565b9050919050565b5f819050815f5260205f209050919050565b5f6020601f8301049050919050565b5f82821b905092915050565b5f60088302611ecb7fffffffffffffffffffffffffffffffffffffffffffffffffffffffffffffffff82611e90565b611ed58683611e90565b95508019841693508086168417925050509392505050565b5f819050919050565b5f611f10611f0b611f0684611423565b611eed565b611423565b9050919050565b5f819050919050565b611f2983611ef6565b611f3d611f3582611f17565b848454611e9c565b825550505050565b5f90565b611f51611f45565b611f5c818484611f20565b505050565b5b81811015611f7f57611f745f82611f49565b600181019050611f62565b5050565b601f821115611fc457611f9581611e6f565b611f9e84611e81565b81016020851015611fad578190505b611fc1611fb985611e81565b830182611f61565b50505b505050565b5f82821c905092915050565b5f611fe45f1984600802611fc9565b1980831691505092915050565b5f611ffc8383611fd5565b9150826002028217905092915050565b81810361201a5750506120ef565b61202382611e5a565b67ffffffffffffffff81111561203c5761203b6116fc565b5b6120468254611a51565b612051828285611f83565b5f601f83116001811461207e575f841561206c578287015490505b6120768582611ff1565b8655506120e8565b601f19841661208c87611e6f565b965061209786611e6f565b5f5b828110156120be57848901548255600182019150600185019450602081019050612099565b868310156120db57848901546120d7601f891682611fd5565b8355505b6001600288020188555050505b5050505050505b565b7f4e487b71000000000000000000000000000000000000000000000000000000005f52603160045260245ffd5b7f416d6f756e74206d7573742062652067726561746572207468616e20302e00005f82015250565b5f612152601e8361148b565b915061215d8261211e565b602082019050919050565b5f6020820190508181035f83015261217f81612146565b9050919050565b61218f82611481565b67ffffffffffffffff8111156121a8576121a76116fc565b5b6121b28254611a51565b6121bd828285611f83565b5f60209050601f8311600181146121ee575f84156121dc578287015190505b6121e68582611ff1565b86555061224d565b601f1984166121fc86611e6f565b5f5b82811015612223578489015182556001820191506020850194506020810190506121fe565b86831015612240578489015161223c601f891682611fd5565b8355505b6001600288020188555050505b505050505050565b7f436f6e7472616374206973207061757365642e000000000000000000000000005f82015250565b5f61228960138361148b565b915061229482612255565b602082019050919050565b5f6020820190508181035f8301526122b68161227d565b9050919050565b7f496e76616c6964207469657200000000000000000000000000000000000000005f82015250565b5f6122f1600c8361148b565b91506122fc826122bd565b602082019050919050565b5f6020820190508181035f83015261231e816122e5565b9050919050565b7f496e636f727265637420616d6f756e74000000000000000000000000000000005f82015250565b5f61235960108361148b565b915061236482612325565b602082019050919050565b5f6020820190508181035f8301526123868161234d565b9050919050565b5f61239782611423565b91507fffffffffffffffffffffffffffffffffffffffffffffffffffffffffffffffff82036123c9576123c8611b51565b5b60018201905091905056fea26469706673582212207b29608c2b12f289182028c1be024932ca0d30aded59a2b275cb19d7d65fed4c64736f6c634300081a0033",
					"opcodes": "PUSH1 0x80 PUSH1 0x40 MSTORE CALLVALUE DUP1 ISZERO PUSH2 0xF JUMPI PUSH0 DUP1 REVERT JUMPDEST POP PUSH1 0x40 MLOAD PUSH2 0x2ABE CODESIZE SUB DUP1 PUSH2 0x2ABE DUP4 CODECOPY DUP2 DUP2 ADD PUSH1 0x40 MSTORE DUP2 ADD SWAP1 PUSH2 0x31 SWAP2 SWAP1 PUSH2 0x26A JUMP JUMPDEST DUP4 PUSH0 SWAP1 DUP2 PUSH2 0x3F SWAP2 SWAP1 PUSH2 0x50A JUMP JUMPDEST POP DUP3 PUSH1 0x1 SWAP1 DUP2 PUSH2 0x4F SWAP2 SWAP1 PUSH2 0x50A JUMP JUMPDEST POP DUP2 PUSH1 0x2 DUP2 SWAP1 SSTORE POP PUSH3 0x15180 DUP2 PUSH2 0x66 SWAP2 SWAP1 PUSH2 0x606 JUMP JUMPDEST TIMESTAMP PUSH2 0x71 SWAP2 SWAP1 PUSH2 0x647 JUMP JUMPDEST PUSH1 0x3 DUP2 SWAP1 SSTORE POP CALLER PUSH1 0x4 PUSH0 PUSH2 0x100 EXP DUP2 SLOAD DUP2 PUSH20 0xFFFFFFFFFFFFFFFFFFFFFFFFFFFFFFFFFFFFFFFF MUL NOT AND SWAP1 DUP4 PUSH20 0xFFFFFFFFFFFFFFFFFFFFFFFFFFFFFFFFFFFFFFFF AND MUL OR SWAP1 SSTORE POP PUSH0 PUSH1 0x4 PUSH1 0x15 PUSH2 0x100 EXP DUP2 SLOAD DUP2 PUSH1 0xFF MUL NOT AND SWAP1 DUP4 PUSH1 0x2 DUP2 GT ISZERO PUSH2 0xDC JUMPI PUSH2 0xDB PUSH2 0x67A JUMP JUMPDEST JUMPDEST MUL OR SWAP1 SSTORE POP POP POP POP POP PUSH2 0x6A7 JUMP JUMPDEST PUSH0 PUSH1 0x40 MLOAD SWAP1 POP SWAP1 JUMP JUMPDEST PUSH0 DUP1 REVERT JUMPDEST PUSH0 DUP1 REVERT JUMPDEST PUSH0 DUP1 REVERT JUMPDEST PUSH0 DUP1 REVERT JUMPDEST PUSH0 PUSH1 0x1F NOT PUSH1 0x1F DUP4 ADD AND SWAP1 POP SWAP2 SWAP1 POP JUMP JUMPDEST PUSH32 0x4E487B7100000000000000000000000000000000000000000000000000000000 PUSH0 MSTORE PUSH1 0x41 PUSH1 0x4 MSTORE PUSH1 0x24 PUSH0 REVERT JUMPDEST PUSH2 0x149 DUP3 PUSH2 0x103 JUMP JUMPDEST DUP2 ADD DUP2 DUP2 LT PUSH8 0xFFFFFFFFFFFFFFFF DUP3 GT OR ISZERO PUSH2 0x168 JUMPI PUSH2 0x167 PUSH2 0x113 JUMP JUMPDEST JUMPDEST DUP1 PUSH1 0x40 MSTORE POP POP POP JUMP JUMPDEST PUSH0 PUSH2 0x17A PUSH2 0xEA JUMP JUMPDEST SWAP1 POP PUSH2 0x186 DUP3 DUP3 PUSH2 0x140 JUMP JUMPDEST SWAP2 SWAP1 POP JUMP JUMPDEST PUSH0 PUSH8 0xFFFFFFFFFFFFFFFF DUP3 GT ISZERO PUSH2 0x1A5 JUMPI PUSH2 0x1A4 PUSH2 0x113 JUMP JUMPDEST JUMPDEST PUSH2 0x1AE DUP3 PUSH2 0x103 JUMP JUMPDEST SWAP1 POP PUSH1 0x20 DUP2 ADD SWAP1 POP SWAP2 SWAP1 POP JUMP JUMPDEST DUP3 DUP2 DUP4 MCOPY PUSH0 DUP4 DUP4 ADD MSTORE POP POP POP JUMP JUMPDEST PUSH0 PUSH2 0x1DB PUSH2 0x1D6 DUP5 PUSH2 0x18B JUMP JUMPDEST PUSH2 0x171 JUMP JUMPDEST SWAP1 POP DUP3 DUP2 MSTORE PUSH1 0x20 DUP2 ADD DUP5 DUP5 DUP5 ADD GT ISZERO PUSH2 0x1F7 JUMPI PUSH2 0x1F6 PUSH2 0xFF JUMP JUMPDEST JUMPDEST PUSH2 0x202 DUP5 DUP3 DUP6 PUSH2 0x1BB JUMP JUMPDEST POP SWAP4 SWAP3 POP POP POP JUMP JUMPDEST PUSH0 DUP3 PUSH1 0x1F DUP4 ADD SLT PUSH2 0x21E JUMPI PUSH2 0x21D PUSH2 0xFB JUMP JUMPDEST JUMPDEST DUP2 MLOAD PUSH2 0x22E DUP5 DUP3 PUSH1 0x20 DUP7 ADD PUSH2 0x1C9 JUMP JUMPDEST SWAP2 POP POP SWAP3 SWAP2 POP POP JUMP JUMPDEST PUSH0 DUP2 SWAP1 POP SWAP2 SWAP1 POP JUMP JUMPDEST PUSH2 0x249 DUP2 PUSH2 0x237 JUMP JUMPDEST DUP2 EQ PUSH2 0x253 JUMPI PUSH0 DUP1 REVERT JUMPDEST POP JUMP JUMPDEST PUSH0 DUP2 MLOAD SWAP1 POP PUSH2 0x264 DUP2 PUSH2 0x240 JUMP JUMPDEST SWAP3 SWAP2 POP POP JUMP JUMPDEST PUSH0 DUP1 PUSH0 DUP1 PUSH1 0x80 DUP6 DUP8 SUB SLT ISZERO PUSH2 0x282 JUMPI PUSH2 0x281 PUSH2 0xF3 JUMP JUMPDEST JUMPDEST PUSH0 DUP6 ADD MLOAD PUSH8 0xFFFFFFFFFFFFFFFF DUP2 GT ISZERO PUSH2 0x29F JUMPI PUSH2 0x29E PUSH2 0xF7 JUMP JUMPDEST JUMPDEST PUSH2 0x2AB DUP8 DUP3 DUP9 ADD PUSH2 0x20A JUMP JUMPDEST SWAP5 POP POP PUSH1 0x20 DUP6 ADD MLOAD PUSH8 0xFFFFFFFFFFFFFFFF DUP2 GT ISZERO PUSH2 0x2CC JUMPI PUSH2 0x2CB PUSH2 0xF7 JUMP JUMPDEST JUMPDEST PUSH2 0x2D8 DUP8 DUP3 DUP9 ADD PUSH2 0x20A JUMP JUMPDEST SWAP4 POP POP PUSH1 0x40 PUSH2 0x2E9 DUP8 DUP3 DUP9 ADD PUSH2 0x256 JUMP JUMPDEST SWAP3 POP POP PUSH1 0x60 PUSH2 0x2FA DUP8 DUP3 DUP9 ADD PUSH2 0x256 JUMP JUMPDEST SWAP2 POP POP SWAP3 SWAP6 SWAP2 SWAP5 POP SWAP3 POP JUMP JUMPDEST PUSH0 DUP2 MLOAD SWAP1 POP SWAP2 SWAP1 POP JUMP JUMPDEST PUSH32 0x4E487B7100000000000000000000000000000000000000000000000000000000 PUSH0 MSTORE PUSH1 0x22 PUSH1 0x4 MSTORE PUSH1 0x24 PUSH0 REVERT JUMPDEST PUSH0 PUSH1 0x2 DUP3 DIV SWAP1 POP PUSH1 0x1 DUP3 AND DUP1 PUSH2 0x354 JUMPI PUSH1 0x7F DUP3 AND SWAP2 POP JUMPDEST PUSH1 0x20 DUP3 LT DUP2 SUB PUSH2 0x367 JUMPI PUSH2 0x366 PUSH2 0x310 JUMP JUMPDEST JUMPDEST POP SWAP2 SWAP1 POP JUMP JUMPDEST PUSH0 DUP2 SWAP1 POP DUP2 PUSH0 MSTORE PUSH1 0x20 PUSH0 KECCAK256 SWAP1 POP SWAP2 SWAP1 POP JUMP JUMPDEST PUSH0 PUSH1 0x20 PUSH1 0x1F DUP4 ADD DIV SWAP1 POP SWAP2 SWAP1 POP JUMP JUMPDEST PUSH0 DUP3 DUP3 SHL SWAP1 POP SWAP3 SWAP2 POP POP JUMP JUMPDEST PUSH0 PUSH1 0x8 DUP4 MUL PUSH2 0x3C9 PUSH32 0xFFFFFFFFFFFFFFFFFFFFFFFFFFFFFFFFFFFFFFFFFFFFFFFFFFFFFFFFFFFFFFFF DUP3 PUSH2 0x38E JUMP JUMPDEST PUSH2 0x3D3 DUP7 DUP4 PUSH2 0x38E JUMP JUMPDEST SWAP6 POP DUP1 NOT DUP5 AND SWAP4 POP DUP1 DUP7 AND DUP5 OR SWAP3 POP POP POP SWAP4 SWAP3 POP POP POP JUMP JUMPDEST PUSH0 DUP2 SWAP1 POP SWAP2 SWAP1 POP JUMP JUMPDEST PUSH0 PUSH2 0x40E PUSH2 0x409 PUSH2 0x404 DUP5 PUSH2 0x237 JUMP JUMPDEST PUSH2 0x3EB JUMP JUMPDEST PUSH2 0x237 JUMP JUMPDEST SWAP1 POP SWAP2 SWAP1 POP JUMP JUMPDEST PUSH0 DUP2 SWAP1 POP SWAP2 SWAP1 POP JUMP JUMPDEST PUSH2 0x427 DUP4 PUSH2 0x3F4 JUMP JUMPDEST PUSH2 0x43B PUSH2 0x433 DUP3 PUSH2 0x415 JUMP JUMPDEST DUP5 DUP5 SLOAD PUSH2 0x39A JUMP JUMPDEST DUP3 SSTORE POP POP POP POP JUMP JUMPDEST PUSH0 SWAP1 JUMP JUMPDEST PUSH2 0x44F PUSH2 0x443 JUMP JUMPDEST PUSH2 0x45A DUP2 DUP5 DUP5 PUSH2 0x41E JUMP JUMPDEST POP POP POP JUMP JUMPDEST JUMPDEST DUP2 DUP2 LT ISZERO PUSH2 0x47D JUMPI PUSH2 0x472 PUSH0 DUP3 PUSH2 0x447 JUMP JUMPDEST PUSH1 0x1 DUP2 ADD SWAP1 POP PUSH2 0x460 JUMP JUMPDEST POP POP JUMP JUMPDEST PUSH1 0x1F DUP3 GT ISZERO PUSH2 0x4C2 JUMPI PUSH2 0x493 DUP2 PUSH2 0x36D JUMP JUMPDEST PUSH2 0x49C DUP5 PUSH2 0x37F JUMP JUMPDEST DUP2 ADD PUSH1 0x20 DUP6 LT ISZERO PUSH2 0x4AB JUMPI DUP2 SWAP1 POP JUMPDEST PUSH2 0x4BF PUSH2 0x4B7 DUP6 PUSH2 0x37F JUMP JUMPDEST DUP4 ADD DUP3 PUSH2 0x45F JUMP JUMPDEST POP POP JUMPDEST POP POP POP JUMP JUMPDEST PUSH0 DUP3 DUP3 SHR SWAP1 POP SWAP3 SWAP2 POP POP JUMP JUMPDEST PUSH0 PUSH2 0x4E2 PUSH0 NOT DUP5 PUSH1 0x8 MUL PUSH2 0x4C7 JUMP JUMPDEST NOT DUP1 DUP4 AND SWAP2 POP POP SWAP3 SWAP2 POP POP JUMP JUMPDEST PUSH0 PUSH2 0x4FA DUP4 DUP4 PUSH2 0x4D3 JUMP JUMPDEST SWAP2 POP DUP3 PUSH1 0x2 MUL DUP3 OR SWAP1 POP SWAP3 SWAP2 POP POP JUMP JUMPDEST PUSH2 0x513 DUP3 PUSH2 0x306 JUMP JUMPDEST PUSH8 0xFFFFFFFFFFFFFFFF DUP2 GT ISZERO PUSH2 0x52C JUMPI PUSH2 0x52B PUSH2 0x113 JUMP JUMPDEST JUMPDEST PUSH2 0x536 DUP3 SLOAD PUSH2 0x33D JUMP JUMPDEST PUSH2 0x541 DUP3 DUP3 DUP6 PUSH2 0x481 JUMP JUMPDEST PUSH0 PUSH1 0x20 SWAP1 POP PUSH1 0x1F DUP4 GT PUSH1 0x1 DUP2 EQ PUSH2 0x572 JUMPI PUSH0 DUP5 ISZERO PUSH2 0x560 JUMPI DUP3 DUP8 ADD MLOAD SWAP1 POP JUMPDEST PUSH2 0x56A DUP6 DUP3 PUSH2 0x4EF JUMP JUMPDEST DUP7 SSTORE POP PUSH2 0x5D1 JUMP JUMPDEST PUSH1 0x1F NOT DUP5 AND PUSH2 0x580 DUP7 PUSH2 0x36D JUMP JUMPDEST PUSH0 JUMPDEST DUP3 DUP2 LT ISZERO PUSH2 0x5A7 JUMPI DUP5 DUP10 ADD MLOAD DUP3 SSTORE PUSH1 0x1 DUP3 ADD SWAP2 POP PUSH1 0x20 DUP6 ADD SWAP5 POP PUSH1 0x20 DUP2 ADD SWAP1 POP PUSH2 0x582 JUMP JUMPDEST DUP7 DUP4 LT ISZERO PUSH2 0x5C4 JUMPI DUP5 DUP10 ADD MLOAD PUSH2 0x5C0 PUSH1 0x1F DUP10 AND DUP3 PUSH2 0x4D3 JUMP JUMPDEST DUP4 SSTORE POP JUMPDEST PUSH1 0x1 PUSH1 0x2 DUP9 MUL ADD DUP9 SSTORE POP POP POP JUMPDEST POP POP POP POP POP POP JUMP JUMPDEST PUSH32 0x4E487B7100000000000000000000000000000000000000000000000000000000 PUSH0 MSTORE PUSH1 0x11 PUSH1 0x4 MSTORE PUSH1 0x24 PUSH0 REVERT JUMPDEST PUSH0 PUSH2 0x610 DUP3 PUSH2 0x237 JUMP JUMPDEST SWAP2 POP PUSH2 0x61B DUP4 PUSH2 0x237 JUMP JUMPDEST SWAP3 POP DUP3 DUP3 MUL PUSH2 0x629 DUP2 PUSH2 0x237 JUMP JUMPDEST SWAP2 POP DUP3 DUP3 DIV DUP5 EQ DUP4 ISZERO OR PUSH2 0x640 JUMPI PUSH2 0x63F PUSH2 0x5D9 JUMP JUMPDEST JUMPDEST POP SWAP3 SWAP2 POP POP JUMP JUMPDEST PUSH0 PUSH2 0x651 DUP3 PUSH2 0x237 JUMP JUMPDEST SWAP2 POP PUSH2 0x65C DUP4 PUSH2 0x237 JUMP JUMPDEST SWAP3 POP DUP3 DUP3 ADD SWAP1 POP DUP1 DUP3 GT ISZERO PUSH2 0x674 JUMPI PUSH2 0x673 PUSH2 0x5D9 JUMP JUMPDEST JUMPDEST SWAP3 SWAP2 POP POP JUMP JUMPDEST PUSH32 0x4E487B7100000000000000000000000000000000000000000000000000000000 PUSH0 MSTORE PUSH1 0x21 PUSH1 0x4 MSTORE PUSH1 0x24 PUSH0 REVERT JUMPDEST PUSH2 0x240A DUP1 PUSH2 0x6B4 PUSH0 CODECOPY PUSH0 RETURN INVALID PUSH1 0x80 PUSH1 0x40 MSTORE PUSH1 0x4 CALLDATASIZE LT PUSH2 0x11E JUMPI PUSH0 CALLDATALOAD PUSH1 0xE0 SHR DUP1 PUSH4 0x7284E416 GT PUSH2 0x9F JUMPI DUP1 PUSH4 0xB85DFB80 GT PUSH2 0x63 JUMPI DUP1 PUSH4 0xB85DFB80 EQ PUSH2 0x390 JUMPI DUP1 PUSH4 0xC19D93FB EQ PUSH2 0x3CC JUMPI DUP1 PUSH4 0xC4AE3168 EQ PUSH2 0x3F6 JUMPI DUP1 PUSH4 0xCA1D209D EQ PUSH2 0x40C JUMPI DUP1 PUSH4 0xDE170570 EQ PUSH2 0x428 JUMPI PUSH2 0x11E JUMP JUMPDEST DUP1 PUSH4 0x7284E416 EQ PUSH2 0x2B0 JUMPI DUP1 PUSH4 0x7497211B EQ PUSH2 0x2DA JUMPI DUP1 PUSH4 0x7ADBA527 EQ PUSH2 0x302 JUMPI DUP1 PUSH4 0x8DA5CB5B EQ PUSH2 0x33E JUMPI DUP1 PUSH4 0x8ECE7B91 EQ PUSH2 0x368 JUMPI PUSH2 0x11E JUMP JUMPDEST DUP1 PUSH4 0x3CCFD60B GT PUSH2 0xE6 JUMPI DUP1 PUSH4 0x3CCFD60B EQ PUSH2 0x206 JUMPI DUP1 PUSH4 0x40193883 EQ PUSH2 0x21C JUMPI DUP1 PUSH4 0x590E1AE3 EQ PUSH2 0x246 JUMPI DUP1 PUSH4 0x5C975ABB EQ PUSH2 0x25C JUMPI DUP1 PUSH4 0x6F9FB98A EQ PUSH2 0x286 JUMPI PUSH2 0x11E JUMP JUMPDEST DUP1 PUSH4 0x39AF9EB EQ PUSH2 0x122 JUMPI DUP1 PUSH4 0x6FDDE03 EQ PUSH2 0x160 JUMPI DUP1 PUSH4 0x10550515 EQ PUSH2 0x18A JUMPI DUP1 PUSH4 0x29DCB0CF EQ PUSH2 0x1B4 JUMPI DUP1 PUSH4 0x389B7533 EQ PUSH2 0x1DE JUMPI JUMPDEST PUSH0 DUP1 REVERT JUMPDEST CALLVALUE DUP1 ISZERO PUSH2 0x12D JUMPI PUSH0 DUP1 REVERT JUMPDEST POP PUSH2 0x148 PUSH1 0x4 DUP1 CALLDATASIZE SUB DUP2 ADD SWAP1 PUSH2 0x143 SWAP2 SWAP1 PUSH2 0x1456 JUMP JUMPDEST PUSH2 0x452 JUMP JUMPDEST PUSH1 0x40 MLOAD PUSH2 0x157 SWAP4 SWAP3 SWAP2 SWAP1 PUSH2 0x1500 JUMP JUMPDEST PUSH1 0x40 MLOAD DUP1 SWAP2 SUB SWAP1 RETURN JUMPDEST CALLVALUE DUP1 ISZERO PUSH2 0x16B JUMPI PUSH0 DUP1 REVERT JUMPDEST POP PUSH2 0x174 PUSH2 0x50D JUMP JUMPDEST PUSH1 0x40 MLOAD PUSH2 0x181 SWAP2 SWAP1 PUSH2 0x153C JUMP JUMPDEST PUSH1 0x40 MLOAD DUP1 SWAP2 SUB SWAP1 RETURN JUMPDEST CALLVALUE DUP1 ISZERO PUSH2 0x195 JUMPI PUSH0 DUP1 REVERT JUMPDEST POP PUSH2 0x19E PUSH2 0x598 JUMP JUMPDEST PUSH1 0x40 MLOAD PUSH2 0x1AB SWAP2 SWAP1 PUSH2 0x15CF JUMP JUMPDEST PUSH1 0x40 MLOAD DUP1 SWAP2 SUB SWAP1 RETURN JUMPDEST CALLVALUE DUP1 ISZERO PUSH2 0x1BF JUMPI PUSH0 DUP1 REVERT JUMPDEST POP PUSH2 0x1C8 PUSH2 0x612 JUMP JUMPDEST PUSH1 0x40 MLOAD PUSH2 0x1D5 SWAP2 SWAP1 PUSH2 0x15E8 JUMP JUMPDEST PUSH1 0x40 MLOAD DUP1 SWAP2 SUB SWAP1 RETURN JUMPDEST CALLVALUE DUP1 ISZERO PUSH2 0x1E9 JUMPI PUSH0 DUP1 REVERT JUMPDEST POP PUSH2 0x204 PUSH1 0x4 DUP1 CALLDATASIZE SUB DUP2 ADD SWAP1 PUSH2 0x1FF SWAP2 SWAP1 PUSH2 0x1456 JUMP JUMPDEST PUSH2 0x618 JUMP JUMPDEST STOP JUMPDEST CALLVALUE DUP1 ISZERO PUSH2 0x211 JUMPI PUSH0 DUP1 REVERT JUMPDEST POP PUSH2 0x21A PUSH2 0x745 JUMP JUMPDEST STOP JUMPDEST CALLVALUE DUP1 ISZERO PUSH2 0x227 JUMPI PUSH0 DUP1 REVERT JUMPDEST POP PUSH2 0x230 PUSH2 0x900 JUMP JUMPDEST PUSH1 0x40 MLOAD PUSH2 0x23D SWAP2 SWAP1 PUSH2 0x15E8 JUMP JUMPDEST PUSH1 0x40 MLOAD DUP1 SWAP2 SUB SWAP1 RETURN JUMPDEST CALLVALUE DUP1 ISZERO PUSH2 0x251 JUMPI PUSH0 DUP1 REVERT JUMPDEST POP PUSH2 0x25A PUSH2 0x906 JUMP JUMPDEST STOP JUMPDEST CALLVALUE DUP1 ISZERO PUSH2 0x267 JUMPI PUSH0 DUP1 REVERT JUMPDEST POP PUSH2 0x270 PUSH2 0xA93 JUMP JUMPDEST PUSH1 0x40 MLOAD PUSH2 0x27D SWAP2 SWAP1 PUSH2 0x161B JUMP JUMPDEST PUSH1 0x40 MLOAD DUP1 SWAP2 SUB SWAP1 RETURN JUMPDEST CALLVALUE DUP1 ISZERO PUSH2 0x291 JUMPI PUSH0 DUP1 REVERT JUMPDEST POP PUSH2 0x29A PUSH2 0xAA6 JUMP JUMPDEST PUSH1 0x40 MLOAD PUSH2 0x2A7 SWAP2 SWAP1 PUSH2 0x15E8 JUMP JUMPDEST PUSH1 0x40 MLOAD DUP1 SWAP2 SUB SWAP1 RETURN JUMPDEST CALLVALUE DUP1 ISZERO PUSH2 0x2BB JUMPI PUSH0 DUP1 REVERT JUMPDEST POP PUSH2 0x2C4 PUSH2 0xAAD JUMP JUMPDEST PUSH1 0x40 MLOAD PUSH2 0x2D1 SWAP2 SWAP1 PUSH2 0x153C JUMP JUMPDEST PUSH1 0x40 MLOAD DUP1 SWAP2 SUB SWAP1 RETURN JUMPDEST CALLVALUE DUP1 ISZERO PUSH2 0x2E5 JUMPI PUSH0 DUP1 REVERT JUMPDEST POP PUSH2 0x300 PUSH1 0x4 DUP1 CALLDATASIZE SUB DUP2 ADD SWAP1 PUSH2 0x2FB SWAP2 SWAP1 PUSH2 0x1456 JUMP JUMPDEST PUSH2 0xB39 JUMP JUMPDEST STOP JUMPDEST CALLVALUE DUP1 ISZERO PUSH2 0x30D JUMPI PUSH0 DUP1 REVERT JUMPDEST POP PUSH2 0x328 PUSH1 0x4 DUP1 CALLDATASIZE SUB DUP2 ADD SWAP1 PUSH2 0x323 SWAP2 SWAP1 PUSH2 0x168E JUMP JUMPDEST PUSH2 0xCD2 JUMP JUMPDEST PUSH1 0x40 MLOAD PUSH2 0x335 SWAP2 SWAP1 PUSH2 0x161B JUMP JUMPDEST PUSH1 0x40 MLOAD DUP1 SWAP2 SUB SWAP1 RETURN JUMPDEST CALLVALUE DUP1 ISZERO PUSH2 0x349 JUMPI PUSH0 DUP1 REVERT JUMPDEST POP PUSH2 0x352 PUSH2 0xD37 JUMP JUMPDEST PUSH1 0x40 MLOAD PUSH2 0x35F SWAP2 SWAP1 PUSH2 0x16DB JUMP JUMPDEST PUSH1 0x40 MLOAD DUP1 SWAP2 SUB SWAP1 RETURN JUMPDEST CALLVALUE DUP1 ISZERO PUSH2 0x373 JUMPI PUSH0 DUP1 REVERT JUMPDEST POP PUSH2 0x38E PUSH1 0x4 DUP1 CALLDATASIZE SUB DUP2 ADD SWAP1 PUSH2 0x389 SWAP2 SWAP1 PUSH2 0x1820 JUMP JUMPDEST PUSH2 0xD5C JUMP JUMPDEST STOP JUMPDEST CALLVALUE DUP1 ISZERO PUSH2 0x39B JUMPI PUSH0 DUP1 REVERT JUMPDEST POP PUSH2 0x3B6 PUSH1 0x4 DUP1 CALLDATASIZE SUB DUP2 ADD SWAP1 PUSH2 0x3B1 SWAP2 SWAP1 PUSH2 0x187A JUMP JUMPDEST PUSH2 0xE9E JUMP JUMPDEST PUSH1 0x40 MLOAD PUSH2 0x3C3 SWAP2 SWAP1 PUSH2 0x15E8 JUMP JUMPDEST PUSH1 0x40 MLOAD DUP1 SWAP2 SUB SWAP1 RETURN JUMPDEST CALLVALUE DUP1 ISZERO PUSH2 0x3D7 JUMPI PUSH0 DUP1 REVERT JUMPDEST POP PUSH2 0x3E0 PUSH2 0xEB8 JUMP JUMPDEST PUSH1 0x40 MLOAD PUSH2 0x3ED SWAP2 SWAP1 PUSH2 0x15CF JUMP JUMPDEST PUSH1 0x40 MLOAD DUP1 SWAP2 SUB SWAP1 RETURN JUMPDEST CALLVALUE DUP1 ISZERO PUSH2 0x401 JUMPI PUSH0 DUP1 REVERT JUMPDEST POP PUSH2 0x40A PUSH2 0xECB JUMP JUMPDEST STOP JUMPDEST PUSH2 0x426 PUSH1 0x4 DUP1 CALLDATASIZE SUB DUP2 ADD SWAP1 PUSH2 0x421 SWAP2 SWAP1 PUSH2 0x1456 JUMP JUMPDEST PUSH2 0xF86 JUMP JUMPDEST STOP JUMPDEST CALLVALUE DUP1 ISZERO PUSH2 0x433 JUMPI PUSH0 DUP1 REVERT JUMPDEST POP PUSH2 0x43C PUSH2 0x11F6 JUMP JUMPDEST PUSH1 0x40 MLOAD PUSH2 0x449 SWAP2 SWAP1 PUSH2 0x1A04 JUMP JUMPDEST PUSH1 0x40 MLOAD DUP1 SWAP2 SUB SWAP1 RETURN JUMPDEST PUSH1 0x5 DUP2 DUP2 SLOAD DUP2 LT PUSH2 0x461 JUMPI PUSH0 DUP1 REVERT JUMPDEST SWAP1 PUSH0 MSTORE PUSH1 0x20 PUSH0 KECCAK256 SWAP1 PUSH1 0x3 MUL ADD PUSH0 SWAP2 POP SWAP1 POP DUP1 PUSH0 ADD DUP1 SLOAD PUSH2 0x480 SWAP1 PUSH2 0x1A51 JUMP JUMPDEST DUP1 PUSH1 0x1F ADD PUSH1 0x20 DUP1 SWAP2 DIV MUL PUSH1 0x20 ADD PUSH1 0x40 MLOAD SWAP1 DUP2 ADD PUSH1 0x40 MSTORE DUP1 SWAP3 SWAP2 SWAP1 DUP2 DUP2 MSTORE PUSH1 0x20 ADD DUP3 DUP1 SLOAD PUSH2 0x4AC SWAP1 PUSH2 0x1A51 JUMP JUMPDEST DUP1 ISZERO PUSH2 0x4F7 JUMPI DUP1 PUSH1 0x1F LT PUSH2 0x4CE JUMPI PUSH2 0x100 DUP1 DUP4 SLOAD DIV MUL DUP4 MSTORE SWAP2 PUSH1 0x20 ADD SWAP2 PUSH2 0x4F7 JUMP JUMPDEST DUP3 ADD SWAP2 SWAP1 PUSH0 MSTORE PUSH1 0x20 PUSH0 KECCAK256 SWAP1 JUMPDEST DUP2 SLOAD DUP2 MSTORE SWAP1 PUSH1 0x1 ADD SWAP1 PUSH1 0x20 ADD DUP1 DUP4 GT PUSH2 0x4DA JUMPI DUP3 SWAP1 SUB PUSH1 0x1F AND DUP3 ADD SWAP2 JUMPDEST POP POP POP POP POP SWAP1 DUP1 PUSH1 0x1 ADD SLOAD SWAP1 DUP1 PUSH1 0x2 ADD SLOAD SWAP1 POP DUP4 JUMP JUMPDEST PUSH0 DUP1 SLOAD PUSH2 0x519 SWAP1 PUSH2 0x1A51 JUMP JUMPDEST DUP1 PUSH1 0x1F ADD PUSH1 0x20 DUP1 SWAP2 DIV MUL PUSH1 0x20 ADD PUSH1 0x40 MLOAD SWAP1 DUP2 ADD PUSH1 0x40 MSTORE DUP1 SWAP3 SWAP2 SWAP1 DUP2 DUP2 MSTORE PUSH1 0x20 ADD DUP3 DUP1 SLOAD PUSH2 0x545 SWAP1 PUSH2 0x1A51 JUMP JUMPDEST DUP1 ISZERO PUSH2 0x590 JUMPI DUP1 PUSH1 0x1F LT PUSH2 0x567 JUMPI PUSH2 0x100 DUP1 DUP4 SLOAD DIV MUL DUP4 MSTORE SWAP2 PUSH1 0x20 ADD SWAP2 PUSH2 0x590 JUMP JUMPDEST DUP3 ADD SWAP2 SWAP1 PUSH0 MSTORE PUSH1 0x20 PUSH0 KECCAK256 SWAP1 JUMPDEST DUP2 SLOAD DUP2 MSTORE SWAP1 PUSH1 0x1 ADD SWAP1 PUSH1 0x20 ADD DUP1 DUP4 GT PUSH2 0x573 JUMPI DUP3 SWAP1 SUB PUSH1 0x1F AND DUP3 ADD SWAP2 JUMPDEST POP POP POP POP POP DUP2 JUMP JUMPDEST PUSH0 DUP1 PUSH1 0x2 DUP2 GT ISZERO PUSH2 0x5AC JUMPI PUSH2 0x5AB PUSH2 0x155C JUMP JUMPDEST JUMPDEST PUSH1 0x4 PUSH1 0x15 SWAP1 SLOAD SWAP1 PUSH2 0x100 EXP SWAP1 DIV PUSH1 0xFF AND PUSH1 0x2 DUP2 GT ISZERO PUSH2 0x5CE JUMPI PUSH2 0x5CD PUSH2 0x155C JUMP JUMPDEST JUMPDEST EQ DUP1 ISZERO PUSH2 0x5DC JUMPI POP PUSH1 0x3 SLOAD TIMESTAMP GT JUMPDEST ISZERO PUSH2 0x5FC JUMPI PUSH1 0x2 SLOAD SELFBALANCE LT ISZERO PUSH2 0x5F2 JUMPI PUSH1 0x2 PUSH2 0x5F5 JUMP JUMPDEST PUSH1 0x1 JUMPDEST SWAP1 POP PUSH2 0x60F JUMP JUMPDEST PUSH1 0x4 PUSH1 0x15 SWAP1 SLOAD SWAP1 PUSH2 0x100 EXP SWAP1 DIV PUSH1 0xFF AND SWAP1 POP JUMPDEST SWAP1 JUMP JUMPDEST PUSH1 0x3 SLOAD DUP2 JUMP JUMPDEST PUSH1 0x4 PUSH0 SWAP1 SLOAD SWAP1 PUSH2 0x100 EXP SWAP1 DIV PUSH20 0xFFFFFFFFFFFFFFFFFFFFFFFFFFFFFFFFFFFFFFFF AND PUSH20 0xFFFFFFFFFFFFFFFFFFFFFFFFFFFFFFFFFFFFFFFF AND CALLER PUSH20 0xFFFFFFFFFFFFFFFFFFFFFFFFFFFFFFFFFFFFFFFF AND EQ PUSH2 0x6A7 JUMPI PUSH1 0x40 MLOAD PUSH32 0x8C379A000000000000000000000000000000000000000000000000000000000 DUP2 MSTORE PUSH1 0x4 ADD PUSH2 0x69E SWAP1 PUSH2 0x1ACB JUMP JUMPDEST PUSH1 0x40 MLOAD DUP1 SWAP2 SUB SWAP1 REVERT JUMPDEST PUSH0 PUSH1 0x2 DUP2 GT ISZERO PUSH2 0x6BA JUMPI PUSH2 0x6B9 PUSH2 0x155C JUMP JUMPDEST JUMPDEST PUSH1 0x4 PUSH1 0x15 SWAP1 SLOAD SWAP1 PUSH2 0x100 EXP SWAP1 DIV PUSH1 0xFF AND PUSH1 0x2 DUP2 GT ISZERO PUSH2 0x6DC JUMPI PUSH2 0x6DB PUSH2 0x155C JUMP JUMPDEST JUMPDEST EQ PUSH2 0x71C JUMPI PUSH1 0x40 MLOAD PUSH32 0x8C379A000000000000000000000000000000000000000000000000000000000 DUP2 MSTORE PUSH1 0x4 ADD PUSH2 0x713 SWAP1 PUSH2 0x1B33 JUMP JUMPDEST PUSH1 0x40 MLOAD DUP1 SWAP2 SUB SWAP1 REVERT JUMPDEST PUSH3 0x15180 DUP2 PUSH2 0x72B SWAP2 SWAP1 PUSH2 0x1B7E JUMP JUMPDEST PUSH1 0x3 PUSH0 DUP3 DUP3 SLOAD PUSH2 0x73B SWAP2 SWAP1 PUSH2 0x1BBF JUMP JUMPDEST SWAP3 POP POP DUP2 SWAP1 SSTORE POP POP JUMP JUMPDEST PUSH1 0x4 PUSH0 SWAP1 SLOAD SWAP1 PUSH2 0x100 EXP SWAP1 DIV PUSH20 0xFFFFFFFFFFFFFFFFFFFFFFFFFFFFFFFFFFFFFFFF AND PUSH20 0xFFFFFFFFFFFFFFFFFFFFFFFFFFFFFFFFFFFFFFFF AND CALLER PUSH20 0xFFFFFFFFFFFFFFFFFFFFFFFFFFFFFFFFFFFFFFFF AND EQ PUSH2 0x7D4 JUMPI PUSH1 0x40 MLOAD PUSH32 0x8C379A000000000000000000000000000000000000000000000000000000000 DUP2 MSTORE PUSH1 0x4 ADD PUSH2 0x7CB SWAP1 PUSH2 0x1ACB JUMP JUMPDEST PUSH1 0x40 MLOAD DUP1 SWAP2 SUB SWAP1 REVERT JUMPDEST PUSH2 0x7DC PUSH2 0x12F5 JUMP JUMPDEST PUSH1 0x1 PUSH1 0x2 DUP2 GT ISZERO PUSH2 0x7F0 JUMPI PUSH2 0x7EF PUSH2 0x155C JUMP JUMPDEST JUMPDEST PUSH1 0x4 PUSH1 0x15 SWAP1 SLOAD SWAP1 PUSH2 0x100 EXP SWAP1 DIV PUSH1 0xFF AND PUSH1 0x2 DUP2 GT ISZERO PUSH2 0x812 JUMPI PUSH2 0x811 PUSH2 0x155C JUMP JUMPDEST JUMPDEST EQ PUSH2 0x852 JUMPI PUSH1 0x40 MLOAD PUSH32 0x8C379A000000000000000000000000000000000000000000000000000000000 DUP2 MSTORE PUSH1 0x4 ADD PUSH2 0x849 SWAP1 PUSH2 0x1C3C JUMP JUMPDEST PUSH1 0x40 MLOAD DUP1 SWAP2 SUB SWAP1 REVERT JUMPDEST PUSH0 SELFBALANCE SWAP1 POP PUSH0 DUP2 GT PUSH2 0x898 JUMPI PUSH1 0x40 MLOAD PUSH32 0x8C379A000000000000000000000000000000000000000000000000000000000 DUP2 MSTORE PUSH1 0x4 ADD PUSH2 0x88F SWAP1 PUSH2 0x1CA4 JUMP JUMPDEST PUSH1 0x40 MLOAD DUP1 SWAP2 SUB SWAP1 REVERT JUMPDEST PUSH1 0x4 PUSH0 SWAP1 SLOAD SWAP1 PUSH2 0x100 EXP SWAP1 DIV PUSH20 0xFFFFFFFFFFFFFFFFFFFFFFFFFFFFFFFFFFFFFFFF AND PUSH20 0xFFFFFFFFFFFFFFFFFFFFFFFFFFFFFFFFFFFFFFFF AND PUSH2 0x8FC DUP3 SWAP1 DUP2 ISZERO MUL SWAP1 PUSH1 0x40 MLOAD PUSH0 PUSH1 0x40 MLOAD DUP1 DUP4 SUB DUP2 DUP6 DUP9 DUP9 CALL SWAP4 POP POP POP POP ISZERO DUP1 ISZERO PUSH2 0x8FC JUMPI RETURNDATASIZE PUSH0 DUP1 RETURNDATACOPY RETURNDATASIZE PUSH0 REVERT JUMPDEST POP POP JUMP JUMPDEST PUSH1 0x2 SLOAD DUP2 JUMP JUMPDEST PUSH2 0x90E PUSH2 0x12F5 JUMP JUMPDEST PUSH1 0x2 DUP1 DUP2 GT ISZERO PUSH2 0x921 JUMPI PUSH2 0x920 PUSH2 0x155C JUMP JUMPDEST JUMPDEST PUSH1 0x4 PUSH1 0x15 SWAP1 SLOAD SWAP1 PUSH2 0x100 EXP SWAP1 DIV PUSH1 0xFF AND PUSH1 0x2 DUP2 GT ISZERO PUSH2 0x943 JUMPI PUSH2 0x942 PUSH2 0x155C JUMP JUMPDEST JUMPDEST EQ PUSH2 0x983 JUMPI PUSH1 0x40 MLOAD PUSH32 0x8C379A000000000000000000000000000000000000000000000000000000000 DUP2 MSTORE PUSH1 0x4 ADD PUSH2 0x97A SWAP1 PUSH2 0x1D0C JUMP JUMPDEST PUSH1 0x40 MLOAD DUP1 SWAP2 SUB SWAP1 REVERT JUMPDEST PUSH0 PUSH1 0x6 PUSH0 CALLER PUSH20 0xFFFFFFFFFFFFFFFFFFFFFFFFFFFFFFFFFFFFFFFF AND PUSH20 0xFFFFFFFFFFFFFFFFFFFFFFFFFFFFFFFFFFFFFFFF AND DUP2 MSTORE PUSH1 0x20 ADD SWAP1 DUP2 MSTORE PUSH1 0x20 ADD PUSH0 KECCAK256 PUSH0 ADD SLOAD SWAP1 POP PUSH0 DUP2 GT PUSH2 0xA08 JUMPI PUSH1 0x40 MLOAD PUSH32 0x8C379A000000000000000000000000000000000000000000000000000000000 DUP2 MSTORE PUSH1 0x4 ADD PUSH2 0x9FF SWAP1 PUSH2 0x1D74 JUMP JUMPDEST PUSH1 0x40 MLOAD DUP1 SWAP2 SUB SWAP1 REVERT JUMPDEST PUSH0 PUSH1 0x6 PUSH0 CALLER PUSH20 0xFFFFFFFFFFFFFFFFFFFFFFFFFFFFFFFFFFFFFFFF AND PUSH20 0xFFFFFFFFFFFFFFFFFFFFFFFFFFFFFFFFFFFFFFFF AND DUP2 MSTORE PUSH1 0x20 ADD SWAP1 DUP2 MSTORE PUSH1 0x20 ADD PUSH0 KECCAK256 PUSH0 ADD DUP2 SWAP1 SSTORE POP CALLER PUSH20 0xFFFFFFFFFFFFFFFFFFFFFFFFFFFFFFFFFFFFFFFF AND PUSH2 0x8FC DUP3 SWAP1 DUP2 ISZERO MUL SWAP1 PUSH1 0x40 MLOAD PUSH0 PUSH1 0x40 MLOAD DUP1 DUP4 SUB DUP2 DUP6 DUP9 DUP9 CALL SWAP4 POP POP POP POP ISZERO DUP1 ISZERO PUSH2 0xA8F JUMPI RETURNDATASIZE PUSH0 DUP1 RETURNDATACOPY RETURNDATASIZE PUSH0 REVERT JUMPDEST POP POP JUMP JUMPDEST PUSH1 0x4 PUSH1 0x14 SWAP1 SLOAD SWAP1 PUSH2 0x100 EXP SWAP1 DIV PUSH1 0xFF AND DUP2 JUMP JUMPDEST PUSH0 SELFBALANCE SWAP1 POP SWAP1 JUMP JUMPDEST PUSH1 0x1 DUP1 SLOAD PUSH2 0xABA SWAP1 PUSH2 0x1A51 JUMP JUMPDEST DUP1 PUSH1 0x1F ADD PUSH1 0x20 DUP1 SWAP2 DIV MUL PUSH1 0x20 ADD PUSH1 0x40 MLOAD SWAP1 DUP2 ADD PUSH1 0x40 MSTORE DUP1 SWAP3 SWAP2 SWAP1 DUP2 DUP2 MSTORE PUSH1 0x20 ADD DUP3 DUP1 SLOAD PUSH2 0xAE6 SWAP1 PUSH2 0x1A51 JUMP JUMPDEST DUP1 ISZERO PUSH2 0xB31 JUMPI DUP1 PUSH1 0x1F LT PUSH2 0xB08 JUMPI PUSH2 0x100 DUP1 DUP4 SLOAD DIV MUL DUP4 MSTORE SWAP2 PUSH1 0x20 ADD SWAP2 PUSH2 0xB31 JUMP JUMPDEST DUP3 ADD SWAP2 SWAP1 PUSH0 MSTORE PUSH1 0x20 PUSH0 KECCAK256 SWAP1 JUMPDEST DUP2 SLOAD DUP2 MSTORE SWAP1 PUSH1 0x1 ADD SWAP1 PUSH1 0x20 ADD DUP1 DUP4 GT PUSH2 0xB14 JUMPI DUP3 SWAP1 SUB PUSH1 0x1F AND DUP3 ADD SWAP2 JUMPDEST POP POP POP POP POP DUP2 JUMP JUMPDEST PUSH1 0x4 PUSH0 SWAP1 SLOAD SWAP1 PUSH2 0x100 EXP SWAP1 DIV PUSH20 0xFFFFFFFFFFFFFFFFFFFFFFFFFFFFFFFFFFFFFFFF AND PUSH20 0xFFFFFFFFFFFFFFFFFFFFFFFFFFFFFFFFFFFFFFFF AND CALLER PUSH20 0xFFFFFFFFFFFFFFFFFFFFFFFFFFFFFFFFFFFFFFFF AND EQ PUSH2 0xBC8 JUMPI PUSH1 0x40 MLOAD PUSH32 0x8C379A000000000000000000000000000000000000000000000000000000000 DUP2 MSTORE PUSH1 0x4 ADD PUSH2 0xBBF SWAP1 PUSH2 0x1ACB JUMP JUMPDEST PUSH1 0x40 MLOAD DUP1 SWAP2 SUB SWAP1 REVERT JUMPDEST PUSH1 0x5 DUP1 SLOAD SWAP1 POP DUP2 LT PUSH2 0xC0F JUMPI PUSH1 0x40 MLOAD PUSH32 0x8C379A000000000000000000000000000000000000000000000000000000000 DUP2 MSTORE PUSH1 0x4 ADD PUSH2 0xC06 SWAP1 PUSH2 0x1DDC JUMP JUMPDEST PUSH1 0x40 MLOAD DUP1 SWAP2 SUB SWAP1 REVERT JUMPDEST PUSH1 0x5 PUSH1 0x1 PUSH1 0x5 DUP1 SLOAD SWAP1 POP PUSH2 0xC23 SWAP2 SWAP1 PUSH2 0x1DFA JUMP JUMPDEST DUP2 SLOAD DUP2 LT PUSH2 0xC34 JUMPI PUSH2 0xC33 PUSH2 0x1E2D JUMP JUMPDEST JUMPDEST SWAP1 PUSH0 MSTORE PUSH1 0x20 PUSH0 KECCAK256 SWAP1 PUSH1 0x3 MUL ADD PUSH1 0x5 DUP3 DUP2 SLOAD DUP2 LT PUSH2 0xC54 JUMPI PUSH2 0xC53 PUSH2 0x1E2D JUMP JUMPDEST JUMPDEST SWAP1 PUSH0 MSTORE PUSH1 0x20 PUSH0 KECCAK256 SWAP1 PUSH1 0x3 MUL ADD PUSH0 DUP3 ADD DUP2 PUSH0 ADD SWAP1 DUP2 PUSH2 0xC72 SWAP2 SWAP1 PUSH2 0x200C JUMP JUMPDEST POP PUSH1 0x1 DUP3 ADD SLOAD DUP2 PUSH1 0x1 ADD SSTORE PUSH1 0x2 DUP3 ADD SLOAD DUP2 PUSH1 0x2 ADD SSTORE SWAP1 POP POP PUSH1 0x5 DUP1 SLOAD DUP1 PUSH2 0xC9C JUMPI PUSH2 0xC9B PUSH2 0x20F1 JUMP JUMPDEST JUMPDEST PUSH1 0x1 SWAP1 SUB DUP2 DUP2 SWAP1 PUSH0 MSTORE PUSH1 0x20 PUSH0 KECCAK256 SWAP1 PUSH1 0x3 MUL ADD PUSH0 DUP1 DUP3 ADD PUSH0 PUSH2 0xCBD SWAP2 SWAP1 PUSH2 0x13BA JUMP JUMPDEST PUSH1 0x1 DUP3 ADD PUSH0 SWAP1 SSTORE PUSH1 0x2 DUP3 ADD PUSH0 SWAP1 SSTORE POP POP SWAP1 SSTORE POP JUMP JUMPDEST PUSH0 PUSH1 0x6 PUSH0 DUP5 PUSH20 0xFFFFFFFFFFFFFFFFFFFFFFFFFFFFFFFFFFFFFFFF AND PUSH20 0xFFFFFFFFFFFFFFFFFFFFFFFFFFFFFFFFFFFFFFFF AND DUP2 MSTORE PUSH1 0x20 ADD SWAP1 DUP2 MSTORE PUSH1 0x20 ADD PUSH0 KECCAK256 PUSH1 0x1 ADD PUSH0 DUP4 DUP2 MSTORE PUSH1 0x20 ADD SWAP1 DUP2 MSTORE PUSH1 0x20 ADD PUSH0 KECCAK256 PUSH0 SWAP1 SLOAD SWAP1 PUSH2 0x100 EXP SWAP1 DIV PUSH1 0xFF AND SWAP1 POP SWAP3 SWAP2 POP POP JUMP JUMPDEST PUSH1 0x4 PUSH0 SWAP1 SLOAD SWAP1 PUSH2 0x100 EXP SWAP1 DIV PUSH20 0xFFFFFFFFFFFFFFFFFFFFFFFFFFFFFFFFFFFFFFFF AND DUP2 JUMP JUMPDEST PUSH1 0x4 PUSH0 SWAP1 SLOAD SWAP1 PUSH2 0x100 EXP SWAP1 DIV PUSH20 0xFFFFFFFFFFFFFFFFFFFFFFFFFFFFFFFFFFFFFFFF AND PUSH20 0xFFFFFFFFFFFFFFFFFFFFFFFFFFFFFFFFFFFFFFFF AND CALLER PUSH20 0xFFFFFFFFFFFFFFFFFFFFFFFFFFFFFFFFFFFFFFFF AND EQ PUSH2 0xDEB JUMPI PUSH1 0x40 MLOAD PUSH32 0x8C379A000000000000000000000000000000000000000000000000000000000 DUP2 MSTORE PUSH1 0x4 ADD PUSH2 0xDE2 SWAP1 PUSH2 0x1ACB JUMP JUMPDEST PUSH1 0x40 MLOAD DUP1 SWAP2 SUB SWAP1 REVERT JUMPDEST PUSH0 DUP2 GT PUSH2 0xE2D JUMPI PUSH1 0x40 MLOAD PUSH32 0x8C379A000000000000000000000000000000000000000000000000000000000 DUP2 MSTORE PUSH1 0x4 ADD PUSH2 0xE24 SWAP1 PUSH2 0x2168 JUMP JUMPDEST PUSH1 0x40 MLOAD DUP1 SWAP2 SUB SWAP1 REVERT JUMPDEST PUSH1 0x5 PUSH1 0x40 MLOAD DUP1 PUSH1 0x60 ADD PUSH1 0x40 MSTORE DUP1 DUP5 DUP2 MSTORE PUSH1 0x20 ADD DUP4 DUP2 MSTORE PUSH1 0x20 ADD PUSH0 DUP2 MSTORE POP SWAP1 DUP1 PUSH1 0x1 DUP2 SLOAD ADD DUP1 DUP3 SSTORE DUP1 SWAP2 POP POP PUSH1 0x1 SWAP1 SUB SWAP1 PUSH0 MSTORE PUSH1 0x20 PUSH0 KECCAK256 SWAP1 PUSH1 0x3 MUL ADD PUSH0 SWAP1 SWAP2 SWAP1 SWAP2 SWAP1 SWAP2 POP PUSH0 DUP3 ADD MLOAD DUP2 PUSH0 ADD SWAP1 DUP2 PUSH2 0xE83 SWAP2 SWAP1 PUSH2 0x2186 JUMP JUMPDEST POP PUSH1 0x20 DUP3 ADD MLOAD DUP2 PUSH1 0x1 ADD SSTORE PUSH1 0x40 DUP3 ADD MLOAD DUP2 PUSH1 0x2 ADD SSTORE POP POP POP POP JUMP JUMPDEST PUSH1 0x6 PUSH1 0x20 MSTORE DUP1 PUSH0 MSTORE PUSH1 0x40 PUSH0 KECCAK256 PUSH0 SWAP2 POP SWAP1 POP DUP1 PUSH0 ADD SLOAD SWAP1 POP DUP2 JUMP JUMPDEST PUSH1 0x4 PUSH1 0x15 SWAP1 SLOAD SWAP1 PUSH2 0x100 EXP SWAP1 DIV PUSH1 0xFF AND DUP2 JUMP JUMPDEST PUSH1 0x4 PUSH0 SWAP1 SLOAD SWAP1 PUSH2 0x100 EXP SWAP1 DIV PUSH20 0xFFFFFFFFFFFFFFFFFFFFFFFFFFFFFFFFFFFFFFFF AND PUSH20 0xFFFFFFFFFFFFFFFFFFFFFFFFFFFFFFFFFFFFFFFF AND CALLER PUSH20 0xFFFFFFFFFFFFFFFFFFFFFFFFFFFFFFFFFFFFFFFF AND EQ PUSH2 0xF5A JUMPI PUSH1 0x40 MLOAD PUSH32 0x8C379A000000000000000000000000000000000000000000000000000000000 DUP2 MSTORE PUSH1 0x4 ADD PUSH2 0xF51 SWAP1 PUSH2 0x1ACB JUMP JUMPDEST PUSH1 0x40 MLOAD DUP1 SWAP2 SUB SWAP1 REVERT JUMPDEST PUSH1 0x4 PUSH1 0x14 SWAP1 SLOAD SWAP1 PUSH2 0x100 EXP SWAP1 DIV PUSH1 0xFF AND ISZERO PUSH1 0x4 PUSH1 0x14 PUSH2 0x100 EXP DUP2 SLOAD DUP2 PUSH1 0xFF MUL NOT AND SWAP1 DUP4 ISZERO ISZERO MUL OR SWAP1 SSTORE POP JUMP JUMPDEST PUSH0 PUSH1 0x2 DUP2 GT ISZERO PUSH2 0xF99 JUMPI PUSH2 0xF98 PUSH2 0x155C JUMP JUMPDEST JUMPDEST PUSH1 0x4 PUSH1 0x15 SWAP1 SLOAD SWAP1 PUSH2 0x100 EXP SWAP1 DIV PUSH1 0xFF AND PUSH1 0x2 DUP2 GT ISZERO PUSH2 0xFBB JUMPI PUSH2 0xFBA PUSH2 0x155C JUMP JUMPDEST JUMPDEST EQ PUSH2 0xFFB JUMPI PUSH1 0x40 MLOAD PUSH32 0x8C379A000000000000000000000000000000000000000000000000000000000 DUP2 MSTORE PUSH1 0x4 ADD PUSH2 0xFF2 SWAP1 PUSH2 0x1B33 JUMP JUMPDEST PUSH1 0x40 MLOAD DUP1 SWAP2 SUB SWAP1 REVERT JUMPDEST PUSH1 0x4 PUSH1 0x14 SWAP1 SLOAD SWAP1 PUSH2 0x100 EXP SWAP1 DIV PUSH1 0xFF AND ISZERO PUSH2 0x104B JUMPI PUSH1 0x40 MLOAD PUSH32 0x8C379A000000000000000000000000000000000000000000000000000000000 DUP2 MSTORE PUSH1 0x4 ADD PUSH2 0x1042 SWAP1 PUSH2 0x229F JUMP JUMPDEST PUSH1 0x40 MLOAD DUP1 SWAP2 SUB SWAP1 REVERT JUMPDEST PUSH1 0x5 DUP1 SLOAD SWAP1 POP DUP2 LT PUSH2 0x1092 JUMPI PUSH1 0x40 MLOAD PUSH32 0x8C379A000000000000000000000000000000000000000000000000000000000 DUP2 MSTORE PUSH1 0x4 ADD PUSH2 0x1089 SWAP1 PUSH2 0x2307 JUMP JUMPDEST PUSH1 0x40 MLOAD DUP1 SWAP2 SUB SWAP1 REVERT JUMPDEST PUSH1 0x5 DUP2 DUP2 SLOAD DUP2 LT PUSH2 0x10A6 JUMPI PUSH2 0x10A5 PUSH2 0x1E2D JUMP JUMPDEST JUMPDEST SWAP1 PUSH0 MSTORE PUSH1 0x20 PUSH0 KECCAK256 SWAP1 PUSH1 0x3 MUL ADD PUSH1 0x1 ADD SLOAD CALLVALUE EQ PUSH2 0x10F7 JUMPI PUSH1 0x40 MLOAD PUSH32 0x8C379A000000000000000000000000000000000000000000000000000000000 DUP2 MSTORE PUSH1 0x4 ADD PUSH2 0x10EE SWAP1 PUSH2 0x236F JUMP JUMPDEST PUSH1 0x40 MLOAD DUP1 SWAP2 SUB SWAP1 REVERT JUMPDEST PUSH1 0x5 DUP2 DUP2 SLOAD DUP2 LT PUSH2 0x110B JUMPI PUSH2 0x110A PUSH2 0x1E2D JUMP JUMPDEST JUMPDEST SWAP1 PUSH0 MSTORE PUSH1 0x20 PUSH0 KECCAK256 SWAP1 PUSH1 0x3 MUL ADD PUSH1 0x2 ADD PUSH0 DUP2 SLOAD DUP1 SWAP3 SWAP2 SWAP1 PUSH2 0x112A SWAP1 PUSH2 0x238D JUMP JUMPDEST SWAP2 SWAP1 POP SSTORE POP CALLVALUE PUSH1 0x6 PUSH0 CALLER PUSH20 0xFFFFFFFFFFFFFFFFFFFFFFFFFFFFFFFFFFFFFFFF AND PUSH20 0xFFFFFFFFFFFFFFFFFFFFFFFFFFFFFFFFFFFFFFFF AND DUP2 MSTORE PUSH1 0x20 ADD SWAP1 DUP2 MSTORE PUSH1 0x20 ADD PUSH0 KECCAK256 PUSH0 ADD PUSH0 DUP3 DUP3 SLOAD PUSH2 0x117D SWAP2 SWAP1 PUSH2 0x1BBF JUMP JUMPDEST SWAP3 POP POP DUP2 SWAP1 SSTORE POP PUSH1 0x1 PUSH1 0x6 PUSH0 CALLER PUSH20 0xFFFFFFFFFFFFFFFFFFFFFFFFFFFFFFFFFFFFFFFF AND PUSH20 0xFFFFFFFFFFFFFFFFFFFFFFFFFFFFFFFFFFFFFFFF AND DUP2 MSTORE PUSH1 0x20 ADD SWAP1 DUP2 MSTORE PUSH1 0x20 ADD PUSH0 KECCAK256 PUSH1 0x1 ADD PUSH0 DUP4 DUP2 MSTORE PUSH1 0x20 ADD SWAP1 DUP2 MSTORE PUSH1 0x20 ADD PUSH0 KECCAK256 PUSH0 PUSH2 0x100 EXP DUP2 SLOAD DUP2 PUSH1 0xFF MUL NOT AND SWAP1 DUP4 ISZERO ISZERO MUL OR SWAP1 SSTORE POP PUSH2 0x11F3 PUSH2 0x12F5 JUMP JUMPDEST POP JUMP JUMPDEST PUSH1 0x60 PUSH1 0x5 DUP1 SLOAD DUP1 PUSH1 0x20 MUL PUSH1 0x20 ADD PUSH1 0x40 MLOAD SWAP1 DUP2 ADD PUSH1 0x40 MSTORE DUP1 SWAP3 SWAP2 SWAP1 DUP2 DUP2 MSTORE PUSH1 0x20 ADD PUSH0 SWAP1 JUMPDEST DUP3 DUP3 LT ISZERO PUSH2 0x12EC JUMPI DUP4 DUP3 SWAP1 PUSH0 MSTORE PUSH1 0x20 PUSH0 KECCAK256 SWAP1 PUSH1 0x3 MUL ADD PUSH1 0x40 MLOAD DUP1 PUSH1 0x60 ADD PUSH1 0x40 MSTORE SWAP1 DUP2 PUSH0 DUP3 ADD DUP1 SLOAD PUSH2 0x1249 SWAP1 PUSH2 0x1A51 JUMP JUMPDEST DUP1 PUSH1 0x1F ADD PUSH1 0x20 DUP1 SWAP2 DIV MUL PUSH1 0x20 ADD PUSH1 0x40 MLOAD SWAP1 DUP2 ADD PUSH1 0x40 MSTORE DUP1 SWAP3 SWAP2 SWAP1 DUP2 DUP2 MSTORE PUSH1 0x20 ADD DUP3 DUP1 SLOAD PUSH2 0x1275 SWAP1 PUSH2 0x1A51 JUMP JUMPDEST DUP1 ISZERO PUSH2 0x12C0 JUMPI DUP1 PUSH1 0x1F LT PUSH2 0x1297 JUMPI PUSH2 0x100 DUP1 DUP4 SLOAD DIV MUL DUP4 MSTORE SWAP2 PUSH1 0x20 ADD SWAP2 PUSH2 0x12C0 JUMP JUMPDEST DUP3 ADD SWAP2 SWAP1 PUSH0 MSTORE PUSH1 0x20 PUSH0 KECCAK256 SWAP1 JUMPDEST DUP2 SLOAD DUP2 MSTORE SWAP1 PUSH1 0x1 ADD SWAP1 PUSH1 0x20 ADD DUP1 DUP4 GT PUSH2 0x12A3 JUMPI DUP3 SWAP1 SUB PUSH1 0x1F AND DUP3 ADD SWAP2 JUMPDEST POP POP POP POP POP DUP2 MSTORE PUSH1 0x20 ADD PUSH1 0x1 DUP3 ADD SLOAD DUP2 MSTORE PUSH1 0x20 ADD PUSH1 0x2 DUP3 ADD SLOAD DUP2 MSTORE POP POP DUP2 MSTORE PUSH1 0x20 ADD SWAP1 PUSH1 0x1 ADD SWAP1 PUSH2 0x1219 JUMP JUMPDEST POP POP POP POP SWAP1 POP SWAP1 JUMP JUMPDEST PUSH0 PUSH1 0x2 DUP2 GT ISZERO PUSH2 0x1308 JUMPI PUSH2 0x1307 PUSH2 0x155C JUMP JUMPDEST JUMPDEST PUSH1 0x4 PUSH1 0x15 SWAP1 SLOAD SWAP1 PUSH2 0x100 EXP SWAP1 DIV PUSH1 0xFF AND PUSH1 0x2 DUP2 GT ISZERO PUSH2 0x132A JUMPI PUSH2 0x1329 PUSH2 0x155C JUMP JUMPDEST JUMPDEST SUB PUSH2 0x13B8 JUMPI PUSH1 0x3 SLOAD TIMESTAMP LT PUSH2 0x137A JUMPI PUSH1 0x2 SLOAD SELFBALANCE LT ISZERO PUSH2 0x1349 JUMPI PUSH1 0x2 PUSH2 0x134C JUMP JUMPDEST PUSH1 0x1 JUMPDEST PUSH1 0x4 PUSH1 0x15 PUSH2 0x100 EXP DUP2 SLOAD DUP2 PUSH1 0xFF MUL NOT AND SWAP1 DUP4 PUSH1 0x2 DUP2 GT ISZERO PUSH2 0x1370 JUMPI PUSH2 0x136F PUSH2 0x155C JUMP JUMPDEST JUMPDEST MUL OR SWAP1 SSTORE POP PUSH2 0x13B7 JUMP JUMPDEST PUSH1 0x2 SLOAD SELFBALANCE LT ISZERO PUSH2 0x138A JUMPI PUSH0 PUSH2 0x138D JUMP JUMPDEST PUSH1 0x1 JUMPDEST PUSH1 0x4 PUSH1 0x15 PUSH2 0x100 EXP DUP2 SLOAD DUP2 PUSH1 0xFF MUL NOT AND SWAP1 DUP4 PUSH1 0x2 DUP2 GT ISZERO PUSH2 0x13B1 JUMPI PUSH2 0x13B0 PUSH2 0x155C JUMP JUMPDEST JUMPDEST MUL OR SWAP1 SSTORE POP JUMPDEST JUMPDEST JUMP JUMPDEST POP DUP1 SLOAD PUSH2 0x13C6 SWAP1 PUSH2 0x1A51 JUMP JUMPDEST PUSH0 DUP3 SSTORE DUP1 PUSH1 0x1F LT PUSH2 0x13D7 JUMPI POP PUSH2 0x13F4 JUMP JUMPDEST PUSH1 0x1F ADD PUSH1 0x20 SWAP1 DIV SWAP1 PUSH0 MSTORE PUSH1 0x20 PUSH0 KECCAK256 SWAP1 DUP2 ADD SWAP1 PUSH2 0x13F3 SWAP2 SWAP1 PUSH2 0x13F7 JUMP JUMPDEST JUMPDEST POP JUMP JUMPDEST JUMPDEST DUP1 DUP3 GT ISZERO PUSH2 0x140E JUMPI PUSH0 DUP2 PUSH0 SWAP1 SSTORE POP PUSH1 0x1 ADD PUSH2 0x13F8 JUMP JUMPDEST POP SWAP1 JUMP JUMPDEST PUSH0 PUSH1 0x40 MLOAD SWAP1 POP SWAP1 JUMP JUMPDEST PUSH0 DUP1 REVERT JUMPDEST PUSH0 DUP1 REVERT JUMPDEST PUSH0 DUP2 SWAP1 POP SWAP2 SWAP1 POP JUMP JUMPDEST PUSH2 0x1435 DUP2 PUSH2 0x1423 JUMP JUMPDEST DUP2 EQ PUSH2 0x143F JUMPI PUSH0 DUP1 REVERT JUMPDEST POP JUMP JUMPDEST PUSH0 DUP2 CALLDATALOAD SWAP1 POP PUSH2 0x1450 DUP2 PUSH2 0x142C JUMP JUMPDEST SWAP3 SWAP2 POP POP JUMP JUMPDEST PUSH0 PUSH1 0x20 DUP3 DUP5 SUB SLT ISZERO PUSH2 0x146B JUMPI PUSH2 0x146A PUSH2 0x141B JUMP JUMPDEST JUMPDEST PUSH0 PUSH2 0x1478 DUP5 DUP3 DUP6 ADD PUSH2 0x1442 JUMP JUMPDEST SWAP2 POP POP SWAP3 SWAP2 POP POP JUMP JUMPDEST PUSH0 DUP2 MLOAD SWAP1 POP SWAP2 SWAP1 POP JUMP JUMPDEST PUSH0 DUP3 DUP3 MSTORE PUSH1 0x20 DUP3 ADD SWAP1 POP SWAP3 SWAP2 POP POP JUMP JUMPDEST DUP3 DUP2 DUP4 MCOPY PUSH0 DUP4 DUP4 ADD MSTORE POP POP POP JUMP JUMPDEST PUSH0 PUSH1 0x1F NOT PUSH1 0x1F DUP4 ADD AND SWAP1 POP SWAP2 SWAP1 POP JUMP JUMPDEST PUSH0 PUSH2 0x14C3 DUP3 PUSH2 0x1481 JUMP JUMPDEST PUSH2 0x14CD DUP2 DUP6 PUSH2 0x148B JUMP JUMPDEST SWAP4 POP PUSH2 0x14DD DUP2 DUP6 PUSH1 0x20 DUP7 ADD PUSH2 0x149B JUMP JUMPDEST PUSH2 0x14E6 DUP2 PUSH2 0x14A9 JUMP JUMPDEST DUP5 ADD SWAP2 POP POP SWAP3 SWAP2 POP POP JUMP JUMPDEST PUSH2 0x14FA DUP2 PUSH2 0x1423 JUMP JUMPDEST DUP3 MSTORE POP POP JUMP JUMPDEST PUSH0 PUSH1 0x60 DUP3 ADD SWAP1 POP DUP2 DUP2 SUB PUSH0 DUP4 ADD MSTORE PUSH2 0x1518 DUP2 DUP7 PUSH2 0x14B9 JUMP JUMPDEST SWAP1 POP PUSH2 0x1527 PUSH1 0x20 DUP4 ADD DUP6 PUSH2 0x14F1 JUMP JUMPDEST PUSH2 0x1534 PUSH1 0x40 DUP4 ADD DUP5 PUSH2 0x14F1 JUMP JUMPDEST SWAP5 SWAP4 POP POP POP POP JUMP JUMPDEST PUSH0 PUSH1 0x20 DUP3 ADD SWAP1 POP DUP2 DUP2 SUB PUSH0 DUP4 ADD MSTORE PUSH2 0x1554 DUP2 DUP5 PUSH2 0x14B9 JUMP JUMPDEST SWAP1 POP SWAP3 SWAP2 POP POP JUMP JUMPDEST PUSH32 0x4E487B7100000000000000000000000000000000000000000000000000000000 PUSH0 MSTORE PUSH1 0x21 PUSH1 0x4 MSTORE PUSH1 0x24 PUSH0 REVERT JUMPDEST PUSH1 0x3 DUP2 LT PUSH2 0x159A JUMPI PUSH2 0x1599 PUSH2 0x155C JUMP JUMPDEST JUMPDEST POP JUMP JUMPDEST PUSH0 DUP2 SWAP1 POP PUSH2 0x15AA DUP3 PUSH2 0x1589 JUMP JUMPDEST SWAP2 SWAP1 POP JUMP JUMPDEST PUSH0 PUSH2 0x15B9 DUP3 PUSH2 0x159D JUMP JUMPDEST SWAP1 POP SWAP2 SWAP1 POP JUMP JUMPDEST PUSH2 0x15C9 DUP2 PUSH2 0x15AF JUMP JUMPDEST DUP3 MSTORE POP POP JUMP JUMPDEST PUSH0 PUSH1 0x20 DUP3 ADD SWAP1 POP PUSH2 0x15E2 PUSH0 DUP4 ADD DUP5 PUSH2 0x15C0 JUMP JUMPDEST SWAP3 SWAP2 POP POP JUMP JUMPDEST PUSH0 PUSH1 0x20 DUP3 ADD SWAP1 POP PUSH2 0x15FB PUSH0 DUP4 ADD DUP5 PUSH2 0x14F1 JUMP JUMPDEST SWAP3 SWAP2 POP POP JUMP JUMPDEST PUSH0 DUP2 ISZERO ISZERO SWAP1 POP SWAP2 SWAP1 POP JUMP JUMPDEST PUSH2 0x1615 DUP2 PUSH2 0x1601 JUMP JUMPDEST DUP3 MSTORE POP POP JUMP JUMPDEST PUSH0 PUSH1 0x20 DUP3 ADD SWAP1 POP PUSH2 0x162E PUSH0 DUP4 ADD DUP5 PUSH2 0x160C JUMP JUMPDEST SWAP3 SWAP2 POP POP JUMP JUMPDEST PUSH0 PUSH20 0xFFFFFFFFFFFFFFFFFFFFFFFFFFFFFFFFFFFFFFFF DUP3 AND SWAP1 POP SWAP2 SWAP1 POP JUMP JUMPDEST PUSH0 PUSH2 0x165D DUP3 PUSH2 0x1634 JUMP JUMPDEST SWAP1 POP SWAP2 SWAP1 POP JUMP JUMPDEST PUSH2 0x166D DUP2 PUSH2 0x1653 JUMP JUMPDEST DUP2 EQ PUSH2 0x1677 JUMPI PUSH0 DUP1 REVERT JUMPDEST POP JUMP JUMPDEST PUSH0 DUP2 CALLDATALOAD SWAP1 POP PUSH2 0x1688 DUP2 PUSH2 0x1664 JUMP JUMPDEST SWAP3 SWAP2 POP POP JUMP JUMPDEST PUSH0 DUP1 PUSH1 0x40 DUP4 DUP6 SUB SLT ISZERO PUSH2 0x16A4 JUMPI PUSH2 0x16A3 PUSH2 0x141B JUMP JUMPDEST JUMPDEST PUSH0 PUSH2 0x16B1 DUP6 DUP3 DUP7 ADD PUSH2 0x167A JUMP JUMPDEST SWAP3 POP POP PUSH1 0x20 PUSH2 0x16C2 DUP6 DUP3 DUP7 ADD PUSH2 0x1442 JUMP JUMPDEST SWAP2 POP POP SWAP3 POP SWAP3 SWAP1 POP JUMP JUMPDEST PUSH2 0x16D5 DUP2 PUSH2 0x1653 JUMP JUMPDEST DUP3 MSTORE POP POP JUMP JUMPDEST PUSH0 PUSH1 0x20 DUP3 ADD SWAP1 POP PUSH2 0x16EE PUSH0 DUP4 ADD DUP5 PUSH2 0x16CC JUMP JUMPDEST SWAP3 SWAP2 POP POP JUMP JUMPDEST PUSH0 DUP1 REVERT JUMPDEST PUSH0 DUP1 REVERT JUMPDEST PUSH32 0x4E487B7100000000000000000000000000000000000000000000000000000000 PUSH0 MSTORE PUSH1 0x41 PUSH1 0x4 MSTORE PUSH1 0x24 PUSH0 REVERT JUMPDEST PUSH2 0x1732 DUP3 PUSH2 0x14A9 JUMP JUMPDEST DUP2 ADD DUP2 DUP2 LT PUSH8 0xFFFFFFFFFFFFFFFF DUP3 GT OR ISZERO PUSH2 0x1751 JUMPI PUSH2 0x1750 PUSH2 0x16FC JUMP JUMPDEST JUMPDEST DUP1 PUSH1 0x40 MSTORE POP POP POP JUMP JUMPDEST PUSH0 PUSH2 0x1763 PUSH2 0x1412 JUMP JUMPDEST SWAP1 POP PUSH2 0x176F DUP3 DUP3 PUSH2 0x1729 JUMP JUMPDEST SWAP2 SWAP1 POP JUMP JUMPDEST PUSH0 PUSH8 0xFFFFFFFFFFFFFFFF DUP3 GT ISZERO PUSH2 0x178E JUMPI PUSH2 0x178D PUSH2 0x16FC JUMP JUMPDEST JUMPDEST PUSH2 0x1797 DUP3 PUSH2 0x14A9 JUMP JUMPDEST SWAP1 POP PUSH1 0x20 DUP2 ADD SWAP1 POP SWAP2 SWAP1 POP JUMP JUMPDEST DUP3 DUP2 DUP4 CALLDATACOPY PUSH0 DUP4 DUP4 ADD MSTORE POP POP POP JUMP JUMPDEST PUSH0 PUSH2 0x17C4 PUSH2 0x17BF DUP5 PUSH2 0x1774 JUMP JUMPDEST PUSH2 0x175A JUMP JUMPDEST SWAP1 POP DUP3 DUP2 MSTORE PUSH1 0x20 DUP2 ADD DUP5 DUP5 DUP5 ADD GT ISZERO PUSH2 0x17E0 JUMPI PUSH2 0x17DF PUSH2 0x16F8 JUMP JUMPDEST JUMPDEST PUSH2 0x17EB DUP5 DUP3 DUP6 PUSH2 0x17A4 JUMP JUMPDEST POP SWAP4 SWAP3 POP POP POP JUMP JUMPDEST PUSH0 DUP3 PUSH1 0x1F DUP4 ADD SLT PUSH2 0x1807 JUMPI PUSH2 0x1806 PUSH2 0x16F4 JUMP JUMPDEST JUMPDEST DUP2 CALLDATALOAD PUSH2 0x1817 DUP5 DUP3 PUSH1 0x20 DUP7 ADD PUSH2 0x17B2 JUMP JUMPDEST SWAP2 POP POP SWAP3 SWAP2 POP POP JUMP JUMPDEST PUSH0 DUP1 PUSH1 0x40 DUP4 DUP6 SUB SLT ISZERO PUSH2 0x1836 JUMPI PUSH2 0x1835 PUSH2 0x141B JUMP JUMPDEST JUMPDEST PUSH0 DUP4 ADD CALLDATALOAD PUSH8 0xFFFFFFFFFFFFFFFF DUP2 GT ISZERO PUSH2 0x1853 JUMPI PUSH2 0x1852 PUSH2 0x141F JUMP JUMPDEST JUMPDEST PUSH2 0x185F DUP6 DUP3 DUP7 ADD PUSH2 0x17F3 JUMP JUMPDEST SWAP3 POP POP PUSH1 0x20 PUSH2 0x1870 DUP6 DUP3 DUP7 ADD PUSH2 0x1442 JUMP JUMPDEST SWAP2 POP POP SWAP3 POP SWAP3 SWAP1 POP JUMP JUMPDEST PUSH0 PUSH1 0x20 DUP3 DUP5 SUB SLT ISZERO PUSH2 0x188F JUMPI PUSH2 0x188E PUSH2 0x141B JUMP JUMPDEST JUMPDEST PUSH0 PUSH2 0x189C DUP5 DUP3 DUP6 ADD PUSH2 0x167A JUMP JUMPDEST SWAP2 POP POP SWAP3 SWAP2 POP POP JUMP JUMPDEST PUSH0 DUP2 MLOAD SWAP1 POP SWAP2 SWAP1 POP JUMP JUMPDEST PUSH0 DUP3 DUP3 MSTORE PUSH1 0x20 DUP3 ADD SWAP1 POP SWAP3 SWAP2 POP POP JUMP JUMPDEST PUSH0 DUP2 SWAP1 POP PUSH1 0x20 DUP3 ADD SWAP1 POP SWAP2 SWAP1 POP JUMP JUMPDEST PUSH0 DUP3 DUP3 MSTORE PUSH1 0x20 DUP3 ADD SWAP1 POP SWAP3 SWAP2 POP POP JUMP JUMPDEST PUSH0 PUSH2 0x18E8 DUP3 PUSH2 0x1481 JUMP JUMPDEST PUSH2 0x18F2 DUP2 DUP6 PUSH2 0x18CE JUMP JUMPDEST SWAP4 POP PUSH2 0x1902 DUP2 DUP6 PUSH1 0x20 DUP7 ADD PUSH2 0x149B JUMP JUMPDEST PUSH2 0x190B DUP2 PUSH2 0x14A9 JUMP JUMPDEST DUP5 ADD SWAP2 POP POP SWAP3 SWAP2 POP POP JUMP JUMPDEST PUSH2 0x191F DUP2 PUSH2 0x1423 JUMP JUMPDEST DUP3 MSTORE POP POP JUMP JUMPDEST PUSH0 PUSH1 0x60 DUP4 ADD PUSH0 DUP4 ADD MLOAD DUP5 DUP3 SUB PUSH0 DUP7 ADD MSTORE PUSH2 0x193F DUP3 DUP3 PUSH2 0x18DE JUMP JUMPDEST SWAP2 POP POP PUSH1 0x20 DUP4 ADD MLOAD PUSH2 0x1954 PUSH1 0x20 DUP7 ADD DUP3 PUSH2 0x1916 JUMP JUMPDEST POP PUSH1 0x40 DUP4 ADD MLOAD PUSH2 0x1967 PUSH1 0x40 DUP7 ADD DUP3 PUSH2 0x1916 JUMP JUMPDEST POP DUP1 SWAP2 POP POP SWAP3 SWAP2 POP POP JUMP JUMPDEST PUSH0 PUSH2 0x197D DUP4 DUP4 PUSH2 0x1925 JUMP JUMPDEST SWAP1 POP SWAP3 SWAP2 POP POP JUMP JUMPDEST PUSH0 PUSH1 0x20 DUP3 ADD SWAP1 POP SWAP2 SWAP1 POP JUMP JUMPDEST PUSH0 PUSH2 0x199B DUP3 PUSH2 0x18A5 JUMP JUMPDEST PUSH2 0x19A5 DUP2 DUP6 PUSH2 0x18AF JUMP JUMPDEST SWAP4 POP DUP4 PUSH1 0x20 DUP3 MUL DUP6 ADD PUSH2 0x19B7 DUP6 PUSH2 0x18BF JUMP JUMPDEST DUP1 PUSH0 JUMPDEST DUP6 DUP2 LT ISZERO PUSH2 0x19F2 JUMPI DUP5 DUP5 SUB DUP10 MSTORE DUP2 MLOAD PUSH2 0x19D3 DUP6 DUP3 PUSH2 0x1972 JUMP JUMPDEST SWAP5 POP PUSH2 0x19DE DUP4 PUSH2 0x1985 JUMP JUMPDEST SWAP3 POP PUSH1 0x20 DUP11 ADD SWAP10 POP POP PUSH1 0x1 DUP2 ADD SWAP1 POP PUSH2 0x19BA JUMP JUMPDEST POP DUP3 SWAP8 POP DUP8 SWAP6 POP POP POP POP POP POP SWAP3 SWAP2 POP POP JUMP JUMPDEST PUSH0 PUSH1 0x20 DUP3 ADD SWAP1 POP DUP2 DUP2 SUB PUSH0 DUP4 ADD MSTORE PUSH2 0x1A1C DUP2 DUP5 PUSH2 0x1991 JUMP JUMPDEST SWAP1 POP SWAP3 SWAP2 POP POP JUMP JUMPDEST PUSH32 0x4E487B7100000000000000000000000000000000000000000000000000000000 PUSH0 MSTORE PUSH1 0x22 PUSH1 0x4 MSTORE PUSH1 0x24 PUSH0 REVERT JUMPDEST PUSH0 PUSH1 0x2 DUP3 DIV SWAP1 POP PUSH1 0x1 DUP3 AND DUP1 PUSH2 0x1A68 JUMPI PUSH1 0x7F DUP3 AND SWAP2 POP JUMPDEST PUSH1 0x20 DUP3 LT DUP2 SUB PUSH2 0x1A7B JUMPI PUSH2 0x1A7A PUSH2 0x1A24 JUMP JUMPDEST JUMPDEST POP SWAP2 SWAP1 POP JUMP JUMPDEST PUSH32 0x4E6F7420746865206F776E657200000000000000000000000000000000000000 PUSH0 DUP3 ADD MSTORE POP JUMP JUMPDEST PUSH0 PUSH2 0x1AB5 PUSH1 0xD DUP4 PUSH2 0x148B JUMP JUMPDEST SWAP2 POP PUSH2 0x1AC0 DUP3 PUSH2 0x1A81 JUMP JUMPDEST PUSH1 0x20 DUP3 ADD SWAP1 POP SWAP2 SWAP1 POP JUMP JUMPDEST PUSH0 PUSH1 0x20 DUP3 ADD SWAP1 POP DUP2 DUP2 SUB PUSH0 DUP4 ADD MSTORE PUSH2 0x1AE2 DUP2 PUSH2 0x1AA9 JUMP JUMPDEST SWAP1 POP SWAP2 SWAP1 POP JUMP JUMPDEST PUSH32 0x43616D706169676E206973206E6F742061637469766500000000000000000000 PUSH0 DUP3 ADD MSTORE POP JUMP JUMPDEST PUSH0 PUSH2 0x1B1D PUSH1 0x16 DUP4 PUSH2 0x148B JUMP JUMPDEST SWAP2 POP PUSH2 0x1B28 DUP3 PUSH2 0x1AE9 JUMP JUMPDEST PUSH1 0x20 DUP3 ADD SWAP1 POP SWAP2 SWAP1 POP JUMP JUMPDEST PUSH0 PUSH1 0x20 DUP3 ADD SWAP1 POP DUP2 DUP2 SUB PUSH0 DUP4 ADD MSTORE PUSH2 0x1B4A DUP2 PUSH2 0x1B11 JUMP JUMPDEST SWAP1 POP SWAP2 SWAP1 POP JUMP JUMPDEST PUSH32 0x4E487B7100000000000000000000000000000000000000000000000000000000 PUSH0 MSTORE PUSH1 0x11 PUSH1 0x4 MSTORE PUSH1 0x24 PUSH0 REVERT JUMPDEST PUSH0 PUSH2 0x1B88 DUP3 PUSH2 0x1423 JUMP JUMPDEST SWAP2 POP PUSH2 0x1B93 DUP4 PUSH2 0x1423 JUMP JUMPDEST SWAP3 POP DUP3 DUP3 MUL PUSH2 0x1BA1 DUP2 PUSH2 0x1423 JUMP JUMPDEST SWAP2 POP DUP3 DUP3 DIV DUP5 EQ DUP4 ISZERO OR PUSH2 0x1BB8 JUMPI PUSH2 0x1BB7 PUSH2 0x1B51 JUMP JUMPDEST JUMPDEST POP SWAP3 SWAP2 POP POP JUMP JUMPDEST PUSH0 PUSH2 0x1BC9 DUP3 PUSH2 0x1423 JUMP JUMPDEST SWAP2 POP PUSH2 0x1BD4 DUP4 PUSH2 0x1423 JUMP JUMPDEST SWAP3 POP DUP3 DUP3 ADD SWAP1 POP DUP1 DUP3 GT ISZERO PUSH2 0x1BEC JUMPI PUSH2 0x1BEB PUSH2 0x1B51 JUMP JUMPDEST JUMPDEST SWAP3 SWAP2 POP POP JUMP JUMPDEST PUSH32 0x43616D706169676E206E6F74205375636365737366756C000000000000000000 PUSH0 DUP3 ADD MSTORE POP JUMP JUMPDEST PUSH0 PUSH2 0x1C26 PUSH1 0x17 DUP4 PUSH2 0x148B JUMP JUMPDEST SWAP2 POP PUSH2 0x1C31 DUP3 PUSH2 0x1BF2 JUMP JUMPDEST PUSH1 0x20 DUP3 ADD SWAP1 POP SWAP2 SWAP1 POP JUMP JUMPDEST PUSH0 PUSH1 0x20 DUP3 ADD SWAP1 POP DUP2 DUP2 SUB PUSH0 DUP4 ADD MSTORE PUSH2 0x1C53 DUP2 PUSH2 0x1C1A JUMP JUMPDEST SWAP1 POP SWAP2 SWAP1 POP JUMP JUMPDEST PUSH32 0x4E6F2062616C616E636520746F20776974686472617700000000000000000000 PUSH0 DUP3 ADD MSTORE POP JUMP JUMPDEST PUSH0 PUSH2 0x1C8E PUSH1 0x16 DUP4 PUSH2 0x148B JUMP JUMPDEST SWAP2 POP PUSH2 0x1C99 DUP3 PUSH2 0x1C5A JUMP JUMPDEST PUSH1 0x20 DUP3 ADD SWAP1 POP SWAP2 SWAP1 POP JUMP JUMPDEST PUSH0 PUSH1 0x20 DUP3 ADD SWAP1 POP DUP2 DUP2 SUB PUSH0 DUP4 ADD MSTORE PUSH2 0x1CBB DUP2 PUSH2 0x1C82 JUMP JUMPDEST SWAP1 POP SWAP2 SWAP1 POP JUMP JUMPDEST PUSH32 0x526566756E6473206E6F7420617661696C61626C650000000000000000000000 PUSH0 DUP3 ADD MSTORE POP JUMP JUMPDEST PUSH0 PUSH2 0x1CF6 PUSH1 0x15 DUP4 PUSH2 0x148B JUMP JUMPDEST SWAP2 POP PUSH2 0x1D01 DUP3 PUSH2 0x1CC2 JUMP JUMPDEST PUSH1 0x20 DUP3 ADD SWAP1 POP SWAP2 SWAP1 POP JUMP JUMPDEST PUSH0 PUSH1 0x20 DUP3 ADD SWAP1 POP DUP2 DUP2 SUB PUSH0 DUP4 ADD MSTORE PUSH2 0x1D23 DUP2 PUSH2 0x1CEA JUMP JUMPDEST SWAP1 POP SWAP2 SWAP1 POP JUMP JUMPDEST PUSH32 0x4E6F20636F6E747269627574696F6E20746F20726566756E6400000000000000 PUSH0 DUP3 ADD MSTORE POP JUMP JUMPDEST PUSH0 PUSH2 0x1D5E PUSH1 0x19 DUP4 PUSH2 0x148B JUMP JUMPDEST SWAP2 POP PUSH2 0x1D69 DUP3 PUSH2 0x1D2A JUMP JUMPDEST PUSH1 0x20 DUP3 ADD SWAP1 POP SWAP2 SWAP1 POP JUMP JUMPDEST PUSH0 PUSH1 0x20 DUP3 ADD SWAP1 POP DUP2 DUP2 SUB PUSH0 DUP4 ADD MSTORE PUSH2 0x1D8B DUP2 PUSH2 0x1D52 JUMP JUMPDEST SWAP1 POP SWAP2 SWAP1 POP JUMP JUMPDEST PUSH32 0x5469657220646F6573206E6F7420657869737400000000000000000000000000 PUSH0 DUP3 ADD MSTORE POP JUMP JUMPDEST PUSH0 PUSH2 0x1DC6 PUSH1 0x13 DUP4 PUSH2 0x148B JUMP JUMPDEST SWAP2 POP PUSH2 0x1DD1 DUP3 PUSH2 0x1D92 JUMP JUMPDEST PUSH1 0x20 DUP3 ADD SWAP1 POP SWAP2 SWAP1 POP JUMP JUMPDEST PUSH0 PUSH1 0x20 DUP3 ADD SWAP1 POP DUP2 DUP2 SUB PUSH0 DUP4 ADD MSTORE PUSH2 0x1DF3 DUP2 PUSH2 0x1DBA JUMP JUMPDEST SWAP1 POP SWAP2 SWAP1 POP JUMP JUMPDEST PUSH0 PUSH2 0x1E04 DUP3 PUSH2 0x1423 JUMP JUMPDEST SWAP2 POP PUSH2 0x1E0F DUP4 PUSH2 0x1423 JUMP JUMPDEST SWAP3 POP DUP3 DUP3 SUB SWAP1 POP DUP2 DUP2 GT ISZERO PUSH2 0x1E27 JUMPI PUSH2 0x1E26 PUSH2 0x1B51 JUMP JUMPDEST JUMPDEST SWAP3 SWAP2 POP POP JUMP JUMPDEST PUSH32 0x4E487B7100000000000000000000000000000000000000000000000000000000 PUSH0 MSTORE PUSH1 0x32 PUSH1 0x4 MSTORE PUSH1 0x24 PUSH0 REVERT JUMPDEST PUSH0 DUP2 SLOAD SWAP1 POP PUSH2 0x1E68 DUP2 PUSH2 0x1A51 JUMP JUMPDEST SWAP1 POP SWAP2 SWAP1 POP JUMP JUMPDEST PUSH0 DUP2 SWAP1 POP DUP2 PUSH0 MSTORE PUSH1 0x20 PUSH0 KECCAK256 SWAP1 POP SWAP2 SWAP1 POP JUMP JUMPDEST PUSH0 PUSH1 0x20 PUSH1 0x1F DUP4 ADD DIV SWAP1 POP SWAP2 SWAP1 POP JUMP JUMPDEST PUSH0 DUP3 DUP3 SHL SWAP1 POP SWAP3 SWAP2 POP POP JUMP JUMPDEST PUSH0 PUSH1 0x8 DUP4 MUL PUSH2 0x1ECB PUSH32 0xFFFFFFFFFFFFFFFFFFFFFFFFFFFFFFFFFFFFFFFFFFFFFFFFFFFFFFFFFFFFFFFF DUP3 PUSH2 0x1E90 JUMP JUMPDEST PUSH2 0x1ED5 DUP7 DUP4 PUSH2 0x1E90 JUMP JUMPDEST SWAP6 POP DUP1 NOT DUP5 AND SWAP4 POP DUP1 DUP7 AND DUP5 OR SWAP3 POP POP POP SWAP4 SWAP3 POP POP POP JUMP JUMPDEST PUSH0 DUP2 SWAP1 POP SWAP2 SWAP1 POP JUMP JUMPDEST PUSH0 PUSH2 0x1F10 PUSH2 0x1F0B PUSH2 0x1F06 DUP5 PUSH2 0x1423 JUMP JUMPDEST PUSH2 0x1EED JUMP JUMPDEST PUSH2 0x1423 JUMP JUMPDEST SWAP1 POP SWAP2 SWAP1 POP JUMP JUMPDEST PUSH0 DUP2 SWAP1 POP SWAP2 SWAP1 POP JUMP JUMPDEST PUSH2 0x1F29 DUP4 PUSH2 0x1EF6 JUMP JUMPDEST PUSH2 0x1F3D PUSH2 0x1F35 DUP3 PUSH2 0x1F17 JUMP JUMPDEST DUP5 DUP5 SLOAD PUSH2 0x1E9C JUMP JUMPDEST DUP3 SSTORE POP POP POP POP JUMP JUMPDEST PUSH0 SWAP1 JUMP JUMPDEST PUSH2 0x1F51 PUSH2 0x1F45 JUMP JUMPDEST PUSH2 0x1F5C DUP2 DUP5 DUP5 PUSH2 0x1F20 JUMP JUMPDEST POP POP POP JUMP JUMPDEST JUMPDEST DUP2 DUP2 LT ISZERO PUSH2 0x1F7F JUMPI PUSH2 0x1F74 PUSH0 DUP3 PUSH2 0x1F49 JUMP JUMPDEST PUSH1 0x1 DUP2 ADD SWAP1 POP PUSH2 0x1F62 JUMP JUMPDEST POP POP JUMP JUMPDEST PUSH1 0x1F DUP3 GT ISZERO PUSH2 0x1FC4 JUMPI PUSH2 0x1F95 DUP2 PUSH2 0x1E6F JUMP JUMPDEST PUSH2 0x1F9E DUP5 PUSH2 0x1E81 JUMP JUMPDEST DUP2 ADD PUSH1 0x20 DUP6 LT ISZERO PUSH2 0x1FAD JUMPI DUP2 SWAP1 POP JUMPDEST PUSH2 0x1FC1 PUSH2 0x1FB9 DUP6 PUSH2 0x1E81 JUMP JUMPDEST DUP4 ADD DUP3 PUSH2 0x1F61 JUMP JUMPDEST POP POP JUMPDEST POP POP POP JUMP JUMPDEST PUSH0 DUP3 DUP3 SHR SWAP1 POP SWAP3 SWAP2 POP POP JUMP JUMPDEST PUSH0 PUSH2 0x1FE4 PUSH0 NOT DUP5 PUSH1 0x8 MUL PUSH2 0x1FC9 JUMP JUMPDEST NOT DUP1 DUP4 AND SWAP2 POP POP SWAP3 SWAP2 POP POP JUMP JUMPDEST PUSH0 PUSH2 0x1FFC DUP4 DUP4 PUSH2 0x1FD5 JUMP JUMPDEST SWAP2 POP DUP3 PUSH1 0x2 MUL DUP3 OR SWAP1 POP SWAP3 SWAP2 POP POP JUMP JUMPDEST DUP2 DUP2 SUB PUSH2 0x201A JUMPI POP POP PUSH2 0x20EF JUMP JUMPDEST PUSH2 0x2023 DUP3 PUSH2 0x1E5A JUMP JUMPDEST PUSH8 0xFFFFFFFFFFFFFFFF DUP2 GT ISZERO PUSH2 0x203C JUMPI PUSH2 0x203B PUSH2 0x16FC JUMP JUMPDEST JUMPDEST PUSH2 0x2046 DUP3 SLOAD PUSH2 0x1A51 JUMP JUMPDEST PUSH2 0x2051 DUP3 DUP3 DUP6 PUSH2 0x1F83 JUMP JUMPDEST PUSH0 PUSH1 0x1F DUP4 GT PUSH1 0x1 DUP2 EQ PUSH2 0x207E JUMPI PUSH0 DUP5 ISZERO PUSH2 0x206C JUMPI DUP3 DUP8 ADD SLOAD SWAP1 POP JUMPDEST PUSH2 0x2076 DUP6 DUP3 PUSH2 0x1FF1 JUMP JUMPDEST DUP7 SSTORE POP PUSH2 0x20E8 JUMP JUMPDEST PUSH1 0x1F NOT DUP5 AND PUSH2 0x208C DUP8 PUSH2 0x1E6F JUMP JUMPDEST SWAP7 POP PUSH2 0x2097 DUP7 PUSH2 0x1E6F JUMP JUMPDEST PUSH0 JUMPDEST DUP3 DUP2 LT ISZERO PUSH2 0x20BE JUMPI DUP5 DUP10 ADD SLOAD DUP3 SSTORE PUSH1 0x1 DUP3 ADD SWAP2 POP PUSH1 0x1 DUP6 ADD SWAP5 POP PUSH1 0x20 DUP2 ADD SWAP1 POP PUSH2 0x2099 JUMP JUMPDEST DUP7 DUP4 LT ISZERO PUSH2 0x20DB JUMPI DUP5 DUP10 ADD SLOAD PUSH2 0x20D7 PUSH1 0x1F DUP10 AND DUP3 PUSH2 0x1FD5 JUMP JUMPDEST DUP4 SSTORE POP JUMPDEST PUSH1 0x1 PUSH1 0x2 DUP9 MUL ADD DUP9 SSTORE POP POP POP JUMPDEST POP POP POP POP POP POP JUMPDEST JUMP JUMPDEST PUSH32 0x4E487B7100000000000000000000000000000000000000000000000000000000 PUSH0 MSTORE PUSH1 0x31 PUSH1 0x4 MSTORE PUSH1 0x24 PUSH0 REVERT JUMPDEST PUSH32 0x416D6F756E74206D7573742062652067726561746572207468616E20302E0000 PUSH0 DUP3 ADD MSTORE POP JUMP JUMPDEST PUSH0 PUSH2 0x2152 PUSH1 0x1E DUP4 PUSH2 0x148B JUMP JUMPDEST SWAP2 POP PUSH2 0x215D DUP3 PUSH2 0x211E JUMP JUMPDEST PUSH1 0x20 DUP3 ADD SWAP1 POP SWAP2 SWAP1 POP JUMP JUMPDEST PUSH0 PUSH1 0x20 DUP3 ADD SWAP1 POP DUP2 DUP2 SUB PUSH0 DUP4 ADD MSTORE PUSH2 0x217F DUP2 PUSH2 0x2146 JUMP JUMPDEST SWAP1 POP SWAP2 SWAP1 POP JUMP JUMPDEST PUSH2 0x218F DUP3 PUSH2 0x1481 JUMP JUMPDEST PUSH8 0xFFFFFFFFFFFFFFFF DUP2 GT ISZERO PUSH2 0x21A8 JUMPI PUSH2 0x21A7 PUSH2 0x16FC JUMP JUMPDEST JUMPDEST PUSH2 0x21B2 DUP3 SLOAD PUSH2 0x1A51 JUMP JUMPDEST PUSH2 0x21BD DUP3 DUP3 DUP6 PUSH2 0x1F83 JUMP JUMPDEST PUSH0 PUSH1 0x20 SWAP1 POP PUSH1 0x1F DUP4 GT PUSH1 0x1 DUP2 EQ PUSH2 0x21EE JUMPI PUSH0 DUP5 ISZERO PUSH2 0x21DC JUMPI DUP3 DUP8 ADD MLOAD SWAP1 POP JUMPDEST PUSH2 0x21E6 DUP6 DUP3 PUSH2 0x1FF1 JUMP JUMPDEST DUP7 SSTORE POP PUSH2 0x224D JUMP JUMPDEST PUSH1 0x1F NOT DUP5 AND PUSH2 0x21FC DUP7 PUSH2 0x1E6F JUMP JUMPDEST PUSH0 JUMPDEST DUP3 DUP2 LT ISZERO PUSH2 0x2223 JUMPI DUP5 DUP10 ADD MLOAD DUP3 SSTORE PUSH1 0x1 DUP3 ADD SWAP2 POP PUSH1 0x20 DUP6 ADD SWAP5 POP PUSH1 0x20 DUP2 ADD SWAP1 POP PUSH2 0x21FE JUMP JUMPDEST DUP7 DUP4 LT ISZERO PUSH2 0x2240 JUMPI DUP5 DUP10 ADD MLOAD PUSH2 0x223C PUSH1 0x1F DUP10 AND DUP3 PUSH2 0x1FD5 JUMP JUMPDEST DUP4 SSTORE POP JUMPDEST PUSH1 0x1 PUSH1 0x2 DUP9 MUL ADD DUP9 SSTORE POP POP POP JUMPDEST POP POP POP POP POP POP JUMP JUMPDEST PUSH32 0x436F6E7472616374206973207061757365642E00000000000000000000000000 PUSH0 DUP3 ADD MSTORE POP JUMP JUMPDEST PUSH0 PUSH2 0x2289 PUSH1 0x13 DUP4 PUSH2 0x148B JUMP JUMPDEST SWAP2 POP PUSH2 0x2294 DUP3 PUSH2 0x2255 JUMP JUMPDEST PUSH1 0x20 DUP3 ADD SWAP1 POP SWAP2 SWAP1 POP JUMP JUMPDEST PUSH0 PUSH1 0x20 DUP3 ADD SWAP1 POP DUP2 DUP2 SUB PUSH0 DUP4 ADD MSTORE PUSH2 0x22B6 DUP2 PUSH2 0x227D JUMP JUMPDEST SWAP1 POP SWAP2 SWAP1 POP JUMP JUMPDEST PUSH32 0x496E76616C696420746965720000000000000000000000000000000000000000 PUSH0 DUP3 ADD MSTORE POP JUMP JUMPDEST PUSH0 PUSH2 0x22F1 PUSH1 0xC DUP4 PUSH2 0x148B JUMP JUMPDEST SWAP2 POP PUSH2 0x22FC DUP3 PUSH2 0x22BD JUMP JUMPDEST PUSH1 0x20 DUP3 ADD SWAP1 POP SWAP2 SWAP1 POP JUMP JUMPDEST PUSH0 PUSH1 0x20 DUP3 ADD SWAP1 POP DUP2 DUP2 SUB PUSH0 DUP4 ADD MSTORE PUSH2 0x231E DUP2 PUSH2 0x22E5 JUMP JUMPDEST SWAP1 POP SWAP2 SWAP1 POP JUMP JUMPDEST PUSH32 0x496E636F727265637420616D6F756E7400000000000000000000000000000000 PUSH0 DUP3 ADD MSTORE POP JUMP JUMPDEST PUSH0 PUSH2 0x2359 PUSH1 0x10 DUP4 PUSH2 0x148B JUMP JUMPDEST SWAP2 POP PUSH2 0x2364 DUP3 PUSH2 0x2325 JUMP JUMPDEST PUSH1 0x20 DUP3 ADD SWAP1 POP SWAP2 SWAP1 POP JUMP JUMPDEST PUSH0 PUSH1 0x20 DUP3 ADD SWAP1 POP DUP2 DUP2 SUB PUSH0 DUP4 ADD MSTORE PUSH2 0x2386 DUP2 PUSH2 0x234D JUMP JUMPDEST SWAP1 POP SWAP2 SWAP1 POP JUMP JUMPDEST PUSH0 PUSH2 0x2397 DUP3 PUSH2 0x1423 JUMP JUMPDEST SWAP2 POP PUSH32 0xFFFFFFFFFFFFFFFFFFFFFFFFFFFFFFFFFFFFFFFFFFFFFFFFFFFFFFFFFFFFFFFF DUP3 SUB PUSH2 0x23C9 JUMPI PUSH2 0x23C8 PUSH2 0x1B51 JUMP JUMPDEST JUMPDEST PUSH1 0x1 DUP3 ADD SWAP1 POP SWAP2 SWAP1 POP JUMP INVALID LOG2 PUSH5 0x6970667358 0x22 SLT KECCAK256 PUSH28 0x29608C2B12F289182028C1BE024932CA0D30ADED59A2B275CB19D7D6 PUSH0 0xED 0x4C PUSH5 0x736F6C6343 STOP ADDMOD BYTE STOP CALLER "
				},
				"gasEstimates": {
					"creation": {
						"codeDepositCost": "1845200",
						"executionCost": "infinite",
						"totalCost": "infinite"
					},
					"external": {
						"addTier(string,uint256)": "infinite",
						"backers(address)": "2837",
						"deadline()": "2515",
						"description()": "infinite",
						"extendDeadline(uint256)": "infinite",
						"fund(uint256)": "infinite",
						"getCampaignStatus()": "7075",
						"getContractBalance()": "445",
						"getTiers()": "infinite",
						"goal()": "2470",
						"hasFundedTier(address,uint256)": "3190",
						"name()": "infinite",
						"owner()": "2597",
						"paused()": "2606",
						"refund()": "infinite",
						"removeTier(uint256)": "infinite",
						"state()": "2649",
						"tiers(uint256)": "infinite",
						"togglePause()": "28884",
						"withdraw()": "infinite"
					},
					"internal": {
						"checkAndUpdateCampaignState()": "30878"
					}
				},
				"methodIdentifiers": {
					"addTier(string,uint256)": "8ece7b91",
					"backers(address)": "b85dfb80",
					"deadline()": "29dcb0cf",
					"description()": "7284e416",
					"extendDeadline(uint256)": "389b7533",
					"fund(uint256)": "ca1d209d",
					"getCampaignStatus()": "10550515",
					"getContractBalance()": "6f9fb98a",
					"getTiers()": "de170570",
					"goal()": "40193883",
					"hasFundedTier(address,uint256)": "7adba527",
					"name()": "06fdde03",
					"owner()": "8da5cb5b",
					"paused()": "5c975abb",
					"refund()": "590e1ae3",
					"removeTier(uint256)": "7497211b",
					"state()": "c19d93fb",
					"tiers(uint256)": "039af9eb",
					"togglePause()": "c4ae3168",
					"withdraw()": "3ccfd60b"
				}
			},
			"storageLayout": {
				"storage": [
					{
						"astId": 3,
						"contract": "contracts/Crowdfunding.sol:Crowdfunding",
						"label": "name",
						"offset": 0,
						"slot": "0",
						"type": "t_string_storage"
					},
					{
						"astId": 5,
						"contract": "contracts/Crowdfunding.sol:Crowdfunding",
						"label": "description",
						"offset": 0,
						"slot": "1",
						"type": "t_string_storage"
					},
					{
						"astId": 7,
						"contract": "contracts/Crowdfunding.sol:Crowdfunding",
						"label": "goal",
						"offset": 0,
						"slot": "2",
						"type": "t_uint256"
					},
					{
						"astId": 9,
						"contract": "contracts/Crowdfunding.sol:Crowdfunding",
						"label": "deadline",
						"offset": 0,
						"slot": "3",
						"type": "t_uint256"
					},
					{
						"astId": 11,
						"contract": "contracts/Crowdfunding.sol:Crowdfunding",
						"label": "owner",
						"offset": 0,
						"slot": "4",
						"type": "t_address"
					},
					{
						"astId": 13,
						"contract": "contracts/Crowdfunding.sol:Crowdfunding",
						"label": "paused",
						"offset": 20,
						"slot": "4",
						"type": "t_bool"
					},
					{
						"astId": 20,
						"contract": "contracts/Crowdfunding.sol:Crowdfunding",
						"label": "state",
						"offset": 21,
						"slot": "4",
						"type": "t_enum(CampaignState)17"
					},
					{
						"astId": 38,
						"contract": "contracts/Crowdfunding.sol:Crowdfunding",
						"label": "tiers",
						"offset": 0,
						"slot": "5",
						"type": "t_array(t_struct(Tier)27_storage)dyn_storage"
					},
					{
						"astId": 43,
						"contract": "contracts/Crowdfunding.sol:Crowdfunding",
						"label": "backers",
						"offset": 0,
						"slot": "6",
						"type": "t_mapping(t_address,t_struct(Backer)34_storage)"
					}
				],
				"types": {
					"t_address": {
						"encoding": "inplace",
						"label": "address",
						"numberOfBytes": "20"
					},
					"t_array(t_struct(Tier)27_storage)dyn_storage": {
						"base": "t_struct(Tier)27_storage",
						"encoding": "dynamic_array",
						"label": "struct Crowdfunding.Tier[]",
						"numberOfBytes": "32"
					},
					"t_bool": {
						"encoding": "inplace",
						"label": "bool",
						"numberOfBytes": "1"
					},
					"t_enum(CampaignState)17": {
						"encoding": "inplace",
						"label": "enum Crowdfunding.CampaignState",
						"numberOfBytes": "1"
					},
					"t_mapping(t_address,t_struct(Backer)34_storage)": {
						"encoding": "mapping",
						"key": "t_address",
						"label": "mapping(address => struct Crowdfunding.Backer)",
						"numberOfBytes": "32",
						"value": "t_struct(Backer)34_storage"
					},
					"t_mapping(t_uint256,t_bool)": {
						"encoding": "mapping",
						"key": "t_uint256",
						"label": "mapping(uint256 => bool)",
						"numberOfBytes": "32",
						"value": "t_bool"
					},
					"t_string_storage": {
						"encoding": "bytes",
						"label": "string",
						"numberOfBytes": "32"
					},
					"t_struct(Backer)34_storage": {
						"encoding": "inplace",
						"label": "struct Crowdfunding.Backer",
						"members": [
							{
								"astId": 29,
								"contract": "contracts/Crowdfunding.sol:Crowdfunding",
								"label": "totalContribution",
								"offset": 0,
								"slot": "0",
								"type": "t_uint256"
							},
							{
								"astId": 33,
								"contract": "contracts/Crowdfunding.sol:Crowdfunding",
								"label": "fundedTiers",
								"offset": 0,
								"slot": "1",
								"type": "t_mapping(t_uint256,t_bool)"
							}
						],
						"numberOfBytes": "64"
					},
					"t_struct(Tier)27_storage": {
						"encoding": "inplace",
						"label": "struct Crowdfunding.Tier",
						"members": [
							{
								"astId": 22,
								"contract": "contracts/Crowdfunding.sol:Crowdfunding",
								"label": "name",
								"offset": 0,
								"slot": "0",
								"type": "t_string_storage"
							},
							{
								"astId": 24,
								"contract": "contracts/Crowdfunding.sol:Crowdfunding",
								"label": "amount",
								"offset": 0,
								"slot": "1",
								"type": "t_uint256"
							},
							{
								"astId": 26,
								"contract": "contracts/Crowdfunding.sol:Crowdfunding",
								"label": "backers",
								"offset": 0,
								"slot": "2",
								"type": "t_uint256"
							}
						],
						"numberOfBytes": "96"
					},
					"t_uint256": {
						"encoding": "inplace",
						"label": "uint256",
						"numberOfBytes": "32"
					}
				}
			},
			"userdoc": {
				"kind": "user",
				"methods": {},
				"version": 1
			}
		}
	}
}